:10000000C04D002035300000B1F500002130000067
:1000100021300000213000002130000000000000ED
:10002000000000000000000000000000253100007A
:100030002130000000000000C1300000213000002D
:1000400011330000B502010011330000113300002C
:100050001133000011330000113300001133000090
:100060001133000011330000113300001133000080
:100070001133000011330000113300001133000070
:100080001133000011330000113300001133000060
:100090001133000011330000113300001133000050
:1000A0001133000011330000113300001133000040
:1000B0001133000011330000113300001133000030
:1000C0001133000011330000113300001133000020
:0C00D00011330000113300001133000058
:0400DC00FFFFFFFF24
:1000E00081F0004102E000BF83F0004330B54FEAE9
:1000F00041044FEA430594EA050F08BF90EA020F56
:100100001FBF54EA000C55EA020C7FEA645C7FEAE8
:10011000655C00F0E2804FEA5454D4EB5555B8BF0B
:100120006D420CDD2C4480EA020281EA030382EA7C
:10013000000083EA010180EA020281EA0303362D0E
:1001400088BF30BD11F0004F4FEA01314FF4801CE1
:100150004CEA113102D0404261EB410113F0004FF3
:100160004FEA03334CEA133302D0524263EB4303AA
:1001700094EA050F00F0A780A4F10104D5F1200E48
:100180000DDB02FA0EFC22FA05F2801841F10001A3
:1001900003FA0EF2801843FA05F359410EE0A5F177
:1001A00020050EF1200E012A03FA0EFC28BF4CF0A8
:1001B000020C43FA05F3C01851EBE37101F000455E
:1001C00007D54FF0000EDCF1000C7EEB00006EEB6B
:1001D0000101B1F5801F1BD3B1F5001F0CD34908F5
:1001E0005FEA30004FEA3C0C04F101044FEA44524C
:1001F00012F5800F80F09A80BCF1004F08BF5FEAD3
:10020000500C50F1000041EB045141EA050130BDB2
:100210005FEA4C0C404141EB0101013C28BFB1F5C4
:10022000801FE9D291F0000F04BF01460020B1FA0F
:1002300081F308BF2033A3F10B03B3F120020CDAE2
:100240000C3208DD02F1140CC2F10C0201FA0CF0C0
:1002500021FA02F10CE002F11402D8BFC2F1200C25
:1002600001FA02F120FA0CFCDCBF41EA0C019040DB
:10027000E41AA2BF01EB0451294330BD6FEA040424
:100280001F3C1CDA0C340EDC04F11404C4F120020F
:1002900020FA04F001FA02F340EA030021FA04F321
:1002A00045EA030130BDC4F10C04C4F1200220FA78
:1002B00002F001FA04F340EA0300294630BD21FAB6
:1002C00004F0294630BD94F0000F83F4801306BF7C
:1002D00081F480110134013D4EE77FEA645C18BF70
:1002E0007FEA655C29D094EA050F08BF90EA020F07
:1002F00005D054EA000C04BF1946104630BD91EAFF
:10030000030F1EBF0021002030BD5FEA545C05D101
:100310004000494128BF41F0004130BD14F5800440
:100320003CBF01F5801130BD01F0004545F0FE41B4
:1003300041F470014FF0000030BD7FEA645C1ABFE9
:10034000194610467FEA655C1CBF0B46024650EA20
:10035000013406BF52EA033591EA030F41F400214C
:1003600030BD00BF90F0000F04BF0021704730B5D2
:100370004FF4806404F132044FF000054FF00001A7
:1003800050E700BF90F0000F04BF0021704730B568
:100390004FF4806404F1320410F0004548BF40423D
:1003A0004FF000013EE700BF42004FEAE2014FEA92
:1003B00031014FEA02701FBF12F07F4393F07F4F6D
:1003C00081F06051704732F07F4208BF704793F070
:1003D0007F4F04BF41F40021704730B54FF4607483
:1003E00001F0004521F000411CE700BF50EA010286
:1003F00008BF704730B54FF000050AE050EA01022F
:1004000008BF704730B511F0004502D5404261EB9E
:1004100041014FF4806404F132045FEA915C3FF4DF
:10042000D8AE4FF003025FEADC0C18BF03325FEA7C
:10043000DC0C18BF033202EBDC02C2F1200300FA2D
:1004400003FC20FA02F001FA03FE40EA0E0021FA52
:1004500002F11444BDE600BF70B54FF0FF0C4CF440
:10046000E06C1CEA11541DBF1CEA135594EA0C0FF2
:1004700095EA0C0F00F0DEF82C4481EA030621EA2D
:100480004C5123EA4C5350EA013518BF52EA033568
:1004900041F4801143F4801338D0A0FB02CE4FF01A
:1004A0000005E1FB02E506F00042E0FB03E54FF04A
:1004B0000006E1FB03569CF0000F18BF4EF0010E42
:1004C000A4F1FF04B6F5007F64F5407404D25FEA3E
:1004D0004E0E6D4146EB060642EAC62141EA5551F1
:1004E0004FEAC52040EA5E504FEACE2EB4F1FD0C33
:1004F00088BFBCF5E06F1ED8BEF1004F08BF5FEAB1
:10050000500E50F1000041EB045170BD06F0004662
:1005100046EA010140EA020081EA0301B4EB5C040F
:10052000C2BFD4EB0C0541EA045170BD41F4801107
:100530004FF0000E013C00F3AB8014F1360FDEBF2C
:10054000002001F0004170BDC4F10004203C35DA08
:100550000C341BDC04F11404C4F1200500FA05F38B
:1005600020FA04F001FA05F240EA020001F000422C
:1005700021F0004110EBD37021FA04F642EB0601A2
:100580005EEA430E08BF20EAD37070BDC4F10C04CC
:10059000C4F1200500FA04F320FA05F001FA04F290
:1005A00040EA020001F0004110EBD37041F100017C
:1005B0005EEA430E08BF20EAD37070BDC4F1200587
:1005C00000FA05F24EEA020E20FA04F301FA05F2EF
:1005D00043EA020321FA04F001F0004121FA04F297
:1005E00020EA020000EBD3705EEA430E08BF20EA67
:1005F000D37070BD94F0000F0FD101F000464000A1
:1006000041EB010111F4801F08BF013CF7D041EA22
:10061000060195F0000F18BF704703F00046520026
:1006200043EB030313F4801F08BF013DF7D043EAF7
:100630000603704794EA0C0F0CEA135518BF95EAAD
:100640000C0F0CD050EA410618BF52EA4306D1D134
:1006500081EA030101F000414FF0000070BD50EA53
:10066000410606BF1046194652EA430619D094EADD
:100670000C0F02D150EA013613D195EA0C0F05D1C7
:1006800052EA03361CBF104619460AD181EA03011B
:1006900001F0004141F0FE4141F470014FF00000D3
:1006A00070BD41F0FE4141F4780170BD70B54FF06E
:1006B000FF0C4CF4E06C1CEA11541DBF1CEA1355EE
:1006C00094EA0C0F95EA0C0F00F0A7F8A4EB0504D0
:1006D00081EA030E52EA03354FEA013100F08880C7
:1006E0004FEA03334FF0805545EA131343EA126390
:1006F0004FEA022245EA111545EA10654FEA002645
:100700000EF000419D4208BF964244F1FD0404F5FD
:10071000407402D25B084FEA3202B61A65EB030559
:100720005B084FEA32024FF480104FF4002CB6EB16
:10073000020E75EB030E22BFB61A754640EA0C0096
:100740005B084FEA3202B6EB020E75EB030E22BFD6
:10075000B61A754640EA5C005B084FEA3202B6EB17
:10076000020E75EB030E22BFB61A754640EA9C00D6
:100770005B084FEA3202B6EB020E75EB030E22BFA6
:10078000B61A754640EADC0055EA060E18D04FEA64
:10079000051545EA16754FEA06164FEAC30343EA04
:1007A00052734FEAC2025FEA1C1CC0D111F4801FD1
:1007B0000BD141EA00014FF000004FF0004CB6E7CA
:1007C00011F4801F04BF01430020B4F1FD0C88BF69
:1007D000BCF5E06F3FF6AFAEB5EB030C04BFB6EB74
:1007E000020C5FEA500C50F1000041EB045170BD67
:1007F0000EF0004E4EEA113114EB5C04C2BFD4EB94
:100800000C0541EA045170BD41F480114FF0000E17
:10081000013C90E645EA060E8DE60CEA135594EA93
:100820000C0F08BF95EA0C0F3FF43BAF94EA0C0F96
:100830000AD150EA01347FF434AF95EA0C0F7FF40B
:1008400025AF104619462CE795EA0C0F06D152EA5F
:1008500003353FF4FDAE1046194622E750EA410643
:1008600018BF52EA43067FF4C5AE50EA41047FF454
:100870000DAF52EA43057FF4EBAE12E74FEA4102B7
:1008800012F5001215D211D56FF47873B3EB6252E2
:1008900012D94FEAC12343F0004343EA505311F009
:1008A000004F23FA02F018BF404270474FF000009B
:1008B000704750EA013005D111F0004008BF6FF0D9
:1008C000004070474FF00000704700BF7BB972B91D
:1008D0000029BEBF00204FF0004106E008BF0028FD
:1008E0001CBF6FF000414FF0FF3000F057B8ADF182
:1008F000080C6DE904CE002909DB002B1ADB00F09F
:100900004FF8DDF804E0DDE9022304B0704740420F
:1009100061EB4101002B1BDB00F042F8DDF804E045
:10092000DDE9022304B0404261EB4101524263EB36
:1009300043037047524263EB430300F031F8DDF8A4
:1009400004E0DDE9022304B0404261EB410170475D
:10095000524263EB430300F023F8DDF804E0DDE9E5
:10096000022304B0524263EB4303704753B94AB9C0
:10097000002908BF00281CBF4FF0FF314FF0FF30A7
:1009800000F00CB8ADF1080C6DE904CE00F008F8E9
:10099000DDF804E0DDE9022304B07047704700BFD2
:1009A0002DE9F04786468C460846089E1546744653
:1009B0001946002B40F0C2808542B2FA82F245D936
:1009C0004AB1C2F1200300FA02FC2EFA03F395406B
:1009D00043EA0C0C94404FEA154EA8B2BCFBFEF85B
:1009E000230C0EFB18CC08FB00F943EA0C43994595
:1009F00028D9EB1808F1FF3704D2994502D9A8F19C
:100A000002072B44A3EB0903A4B2B3FBFEFC0EFBCD
:100A10001C330CFB00F044EA0344A04214D92C1907
:100A20000CF1FF3304D2A04202D9ACF102032C44F2
:100A3000241A43EA07401EB1D44000233460736097
:100A4000BDE8F0874746DDE76346F1E792BB431B0D
:100A500001214FEA154EAFB2B3FBFEFC200C0EFB9A
:100A60001C330CFB07F840EA0343984562D9EB18A6
:100A70000CF1FF3004D2984502D9ACF102002B44AE
:100A8000A3EB0803A4B2B3FBFEFC0EFB1C330CFB70
:100A900007F744EA0344A7424ED92C190CF1FF335F
:100AA00004D2A74202D9ACF102032C44E41B43EA6E
:100AB0000040C0E7C2F1200320FA03F195409040C6
:100AC0002EFA03F303434FEA154EAFB2B1FBFEFC1F
:100AD0000EFB1C10190C0CFB07F841EA004188457D
:100AE00004FA02F422D969180CF1FF3004D28845C7
:100AF00002D9ACF102002944A1EB08019BB2B1FB81
:100B0000FEFC0EFB1C110CFB07F743EA01439F425E
:100B10000ED9EB180CF1FF3104D29F4202D9ACF18F
:100B200002012B44DB1B41EA004192E76046E3E708
:100B30006146F7E76046A3E76346B7E7834206D915
:100B400016B9002108467BE7C6E900E0F9E7B3FAE9
:100B500083F78FB9834201D3724508D8BEEB0204F4
:100B600060EB030301209C461EB9002168E738466C
:100B7000FAE7C6E9004CF8E7C7F1200CBB4022FABF
:100B80000CF41C432EFA0CF120FA0CF3B84001438C
:100B90004FEA14490EFA07F5B3FBF9F81FFA84FE81
:100BA00009FB18300B0C08FB0EFA43EA00439A4588
:100BB00002FA07F240D9E31808F1FF3004D29A454F
:100BC00002D9A8F102002344A3EB0A0389B2B3FBC4
:100BD000F9F809FB183308FB0EFE41EA03418E4584
:100BE0002CD9611808F1FF3304D28E4502D9A8F13F
:100BF0000203214443EA0040A0FB0298A1EB0E014E
:100C00004145CE46434602D306D14D4504D2B9EB09
:100C1000020E68EB04030138002EA6D0B5EB0E02DD
:100C200061EB030101FA0CFC22FA07F34CEA03031F
:100C3000F940C6E9003198E74046C5E74346D9E7A1
:100C4000034611F8012B03F8012B002AF9D1704754
:100C5000034613F8012B002AFBD1181A01387047FC
:100C6000BFB52DA7D7E90067DFF8B4A0DFF8B490CF
:100C700000244FF000082A480DF05BFD002818DA28
:100C800029480CF0F3FB294A2948234603210EF09A
:100C90009BFB0323ADF80430264863BA01A9ADF8E5
:100CA000063010F0DCFF00214FF480300BF002FE24
:100CB000E1E702AA0E2150460DF03FFD002801DABF
:100CC0001D48DEE704AA0D2150460DF036FD002830
:100CD00001DA1A48D5E71A4A0398136801331360FA
:100CE000FFF750FB32463B46FFF7E0FC0446029814
:100CF0000D46FFF747FB02460B4620462946FFF705
:100D0000F5F942464B46FFF7A7FBFFF7B7FD04B2E4
:100D1000B9E700BFAFF300800000000080842E41DF
:100D2000E0270100000059404E340100B6340100B4
:100D3000182A0100B00E0020693401008E34010031
:100D4000AC0E0020000000002DE9FF4840A7D7E9C5
:100D50000067DFF80491DFF804A14FF00008404875
:100D60000DF0E7FC00281BDA3E480CF07FFB4FF04B
:100D7000000B3D4A5B46504603210EF025FB9BFAD3
:100D80009BFB01233948ADF8043001A9ADF806B04A
:100D900010F065FF00214FF480300BF08BFDDEE793
:100DA0002F4802AA0D210DF0C8FC002801DA3048B6
:100DB000DBE72B4804AA10210DF0BFFC002801DA64
:100DC0002C48D2E72C4A0398136801331360FFF7CD
:100DD000D9FA32463B46FFF769FC044602980D46B5
:100DE000FFF7D0FA02460B4620462946FFF77EF968
:100DF00042464B46FFF730FBFFF740FD0FFA80FB02
:100E00001E4A5B46504603210EF0DEFA0598FFF7B6
:100E1000B9FA32463B46FFF749FC044604980D46B2
:100E2000FFF7B0FA02460B4620462946FFF75EF967
:100E30004B464246FFF710FBFFF720FD0346104AE2
:100E4000032150460EF0C0FA93E700BFAFF30080D5
:100E50000000000080842E4100005940182A010043
:100E6000B82701004E34010066350100B00E0020A5
:100E7000E53401000C350100A80E002030350100DA
:100E80004F350100000000002DE9F0438DB020B97E
:100E90000DB0BDE8F04306F02FB84D4C94F83E304D
:100EA000DA0700F18C8094F8253004EB83039D6A07
:100EB00094F8313004EB83035F6B95B12E4616F83E
:100EC000020BC0F3801004F073FE0368C5F8023013
:100ED0008388B3802B785B0614D43D4839460FF0E5
:100EE0000AF994F820300121C3F302030DF12B001D
:100EF0008DF82B300EF05BFD024658B90C200DB07A
:100F0000BDE8F083062130460EF025FD0028E4D12F
:100F10001220F4E7797828460FF0A7F8002531234E
:100F20002C492570C4E902352B4B6560A0FB0101FB
:100F3000C01841F1070124A3D3E90023C4E90555F2
:100F4000FFF714FDA68F20610FF007F82369234AED
:100F500003F2471111600992214A00F10907CDE916
:100F600006422048204A4FF0910CCDE90432A6FBFE
:100F700000014FF6FF73CDE902534FF0020912A3AF
:100F8000D3E900230DF12C080CFB0611CDF82C90B1
:100F9000CDF82080FFF7EAFC0321CDE900503B4665
:100FA0004A4628460EF09FFF414604F02BFF0028DA
:100FB000A4D194F83E3043F0010384F83E30002081
:100FC0009DE700BFAFF300808D49FD1A07000000C8
:100FD000F817002000CA9A3B8C49FD1AEC17002034
:100FE0002D5C0000002AE784E16C00000000000096
:100FF00070B590F820308AB0C3F302030D46044662
:1010000001210DF1230016468DF823300EF0CFFCA0
:101010007178024628460FF028F81D49A0FB0131DF
:101020001C48181841F1070117A3D3E90023FFF763
:101030009DFC216905468D421ED2481B0021164A9F
:10104000A21A0223920909931A44144B059309AE7C
:101050000023CDE90110CDE9033303210696009367
:10106000D2B218460EF061FF314604F0CBFE38B91B
:10107000256100200AB070BDFBD9691A0020DEE7A7
:101080000C20F7E7AFF300808D49FD1A0700000040
:1010900000CA9A3B8C49FD1AF81700202D5C00000D
:1010A000F7B50546C46806F02BFF002006F078FF70
:1010B0000021084606F066FF00222521082006F0E0
:1010C000A5FF354B019301A806F088FF334940F294
:1010D0005B6007F019F82379C3F3020262F3C503DA
:1010E0002371204606F012FD27682E6838460FF05F
:1010F00004F906446A6806F10901012007F03EF987
:1011000007F0CCF9204605F0E1FE811C3246C9B259
:1011100038460FF000F9054630B3214A21492248EC
:1011200040F214430DF03EFD20480726A5FB0001C8
:1011300017A3D3E9002306FB0511FFF717FC1C4991
:1011400002461C480DF02EFD404080F311884FF000
:10115000030002DF1848214606F0B2FE06F092FFB7
:101160006FF08B0003B0F0BD20460FF0C4F808B953
:101170000020F7E70A4A11490B4840F22C430DF0D2
:1011800011FD404080F311884FF0030002DFEFE7CC
:1011900000CA9A3B00000000D6BE898E5555550006
:1011A00064490100364B0100233E01008D49FD1AC0
:1011B000024A0100D84901007503010040450100C1
:1011C000032973B50546144671D8002A40D0072A72
:1011D0005CD15A681C683A48D1171346C4FB0031E9
:1011E000012B71F1000225DB00F56E1000F65D7039
:1011F000181831A3D3E9002341F10001FFF766FB82
:1012000080B202281ED004281ED008281ED0102824
:1012100033D103232B492A6951F8231011615268F5
:1012200014691B01302223212846A44602B0BDE8E0
:10123000704060472448181861F100011EA3D3E9EB
:101240000023DBE70023E5E70123E3E70223E1E7EF
:101250001A881E4B33F8021B8A420BD12E69736821
:101260000DF107029B68202128469847002807DADD
:1012700002B070BD01340B2CECD16FF01500F7E714
:101280009DF80720130704D4082C05D16FF08500C2
:10129000EEE70A2C08BF0924736802F00F0242EA45
:1012A0000412DB68D2B2202128469847E0E702B05A
:1012B000BDE8704008F03ABE3AA395000000000077
:1012C00040420F00B8020020632EB5FF9C3301009E
:1012D00070B5064688B030B10146104808B0BDE888
:1012E00070400DF052BC0E4D0E480DF04EFC0FCD6F
:1012F00003AC0FC42B6823600B49009633460222CF
:1013000003A803F087FD014620B108480DF03DFC1D
:1013100008B070BD06480DF038FCF9E7B2330100A3
:10132000002B0100D2330100F82D0100E933010048
:101330000F3401002DE9F04100AF1B4810F063FCB1
:101340001A480DF022FC1A4803F0E8F8014610B1E3
:1013500018480DF01AFC144C174D184E42F26762F3
:10136000002320460BF092FBB8B1E8468AB090F813
:1013700000E090F801C08178C3786A465362062382
:10138000C2E9055EC2E907C142F8103F00234FF4ED
:101390004351304601F028F8C546002140F6CD40C3
:1013A0000BF088FADAE700BFB00E0020203401000D
:1013B000D1120000B233010037340100182A0100B5
:1013C00038B5074D284610F0C1F9044608B1FFF7BB
:1013D00047FC296803480CF037F8204638BD00BFA9
:1013E000E0270100CD3401002DE9FF412D4C2046BE
:1013F00010F0ACF938B921682B480DF0C6FB00207D
:1014000004B0BDE8F0812948226821460DF0BDFBFB
:1014100002A9204608F048FB0028F0D19DF80D30C5
:101420000093BDF80820BDF80A309DF80C10204844
:10143000204E214FDFF884800DF0A7FBBDF80A3065
:10144000B3F5905F34BF00230123337020460DF0C5
:1014500070F9014620B110F10B0F1ED01848CCE7EF
:1014600020460FF0B6FD337805462BB183791A0775
:1014700002D414480DF089FBAB79DB0703D5E97979
:1014800040460DF082FB002138460DF07EFB002126
:101490004FF400400BF00EFAD8E70B480DF075FB47
:1014A000F5E700BFA4270100CD3401007D35010020
:1014B00097350100481C0020DC350100CF350100C4
:1014C0000C360100C3350100F035010038B5074D79
:1014D000284610F03BF9044608B1FFF735FC2968AF
:1014E00003480BF0B1FF204638BD00BFB82701000C
:1014F000CD3401002DE9F04F91B08407009302F044
:1015000004030293C2F3C20303F10103DDF8689000
:10151000039205460E46059340F0BA81041D30B192
:10152000072909D86FF01B0011B0BDE8F08F01F05A
:101530000706341DC6F10806009B4FF00008591E2F
:101540004FF0040A4FF0FF330193CDF81080474667
:10155000C34653460DB1009A22600598002800F357
:10156000E8809848009A824203D397488242C0F0AC
:10157000E080039AA4EB050E92074FEA9E0000F16B
:1015800003810F2F00F2B180002D00F0058107F1DB
:1015900040020DEB020C019A0CF8200C0CF8102CF8
:1015A000049801300490E7E07A285DD84B280ED8E3
:1015B000472859D829282DD8252852D054D8202852
:1015C0007AD02338D0F1000B4BEB000B74E04C3891
:1015D0002E2849D8DFE800F0704848484848484875
:1015E000484848484B484848484848484859484B64
:1015F0004B595959704B6D487048184B18484882E0
:101600007F4B48484B487F0000204FF0000B4FF0C5
:10161000040A38E02A38C0B2012202FA00F010EAC7
:101620000E0F49D110F0625C2FD110EA020B43D0AB
:101630006046013C5444B4FBFAF40AFB04F4002D68
:1016400061D0A3EB050CA444B4453FF66BAF002872
:1016500068D1042B47D159F8043B23600434042398
:101660002AE0019A013A01924FF0000B24E011F8B0
:10167000010C6C2834D111F8023C00206C2B8346FD
:10168000C5D14FF0080A5346D3E709F1070929F0FD
:1016900007090734F9E802AB24F0070435B10698CE
:1016A0002044B0423FF63EAFC4E900AB08344FF0EF
:1016B000000B4FF0080A534611F8010F002878D0AC
:1016C000BBF1000F7FF470AF2528F5D1019B0133EA
:1016D00001934FF0010B4FF0040AECE7584694E7F2
:1016E00000208346A5E7082B02D06FF015001BE70A
:1016F00009F1070929F00709F9E80223C4E90023E1
:1017000008340823D8E768B9042B02D109F1040989
:10171000A4E7082BE9D109F1070929F0070909F124
:101720000809EDE7059A013A059259F8042B009251
:1017300010E7039A900720D5A4EB050E4FEA9E0010
:101740004FF0010CBEF5007FCFD20F2FCDD8F5B1F1
:1017500007F140020DEB020EC0B2019A0EF8200C08
:101760000EF8102CBCF1000F3FF41AAF60F07F00B0
:101770000EF8200C08F101080137C5F10802043405
:1017800006924FF6DA7E97E74FF0000CDAE7BCF1ED
:10179000000F01D00136EFE7029802360028EBD1A6
:1017A0000098CDE90631FFF753FADDE9063106442A
:1017B000E2E7631BB3F5806F97D23DB9A6F1080449
:1017C000E018B1E60C26010004540100029A2860DA
:1017D0009B082B709DF81030C2B1EB7085F8028029
:1017E000B8F1000F05D008A80022C5F1010C9742FE
:1017F0000ED1C5F101030DF120094FF0000A01934C
:101800000DF1300B574512D1601B8DE66B70E5E78B
:1018100010F8013B190608D504EB0C0EB64503F091
:101820007F033FF67FAE04F8013B0132DFE7B8F1FA
:10183000000F03D099F90020002A17DB029BD3B1D7
:101840001AF80B2004F8012B0022019B9818204461
:10185000B0423FF667AE99F8000004F8010B00991A
:101860000392204610F0EBFD039A14440AF1010A9A
:1018700009F10109C6E799F8002055F822300093D4
:10188000029B45F822300098FFF7E2F9421CDCE7A2
:101890006FF00D0048E600BF2DE9F04F97B000AFA4
:1018A00090F802A0D7F880B03B62CBF3C0030446A7
:1018B000FA62BB61894641B9457800780AEB80003D
:1018C00020444D4517D8A0EB0409E378FB61BAF139
:1018D000000F02D01BF0010F16D1FB6953BBFB6A4E
:1018E0001BB13A6A4946204698474D4628465C3720
:1018F000BD46BDE8F08F461C3046FFF7A9F9013020
:10190000304409F10109DCE7237862687A62FA6AF7
:101910009900796104EB8301002A40F000814D4673
:101920000E4601EB0A094FF000084E454CD101EB81
:101930000A0610E01BF0020FD1D023789A007A61DA
:1019400062687A62FA6A04EB8301002A77D14D4615
:1019500001EB0A0690461BF0050F0CBF0223012382
:10196000FB62FB6906EB430A0BF00203BB625645C0
:10197000BCD016F8021B16F8013C54F82390AF4B6C
:10198000994502D3AE4B994536D3BB69002B40D065
:10199000786A0DF0D1F800283BD0E9468AB06A4653
:1019A000A84B53617B6AC2E906314FF4007313847C
:1019B000A54B42F8103FA54800234FF4125100F008
:1019C00013FD023DCD46D2E716F8013BF96254F80B
:1019D0002300FFF73DF9D7F88430F96A01304BB1A5
:1019E000D7F8883098453EBFD7F8843023F81800E0
:1019F00008F10108054498E7BB6923B1786A0DF046
:101A00009BF80028C9D11BF0010F05D1FB6AED1A24
:101A1000ADE7BB6A002BAAD04846FFF719F9D7F803
:101A2000843053B1D7F8883098453FBFD7F8842029
:101A3000431C22F8183008F10108054497E7BAF171
:101A4000000F72D01BF0040672D0D046002607F1BA
:101A5000480052463B61B96210F0F1FCB96A3B693B
:101A600001EB0A02BA62FA69F9695200FA60BA6ACD
:101A700002EB41023A610BF00202BA603A69B96ABC
:101A80008A4257D162787A621BF0020F32440CBF4F
:101A90004FEA580100211BF0010FD2B240F09F80A5
:101AA0001BF0040F14BF40460020BB616270A070A1
:101AB000E1703A6A7969FB6A20469847051EFFF68D
:101AC00015AFBB6923707B6A6370FB69E3704146A5
:101AD0003A6AFB6A84F802A007F148009847B0F11F
:101AE0000008C0F2B5807B693A6AA9EB0A01C91AFD
:101AF000FB68C91AD7E90A0398470028C0F2AA80F0
:101B0000A84408EB00054FF0000B07F1380AB34575
:101B100067D300213A6AFB6A08469847E6E65646CC
:101B20004FF0000807F1380093E75646D04697E794
:101B3000B04695E7BA6A12F8021BBA6212F8015C65
:101B40003E4A54F82500904202D33D4A90421ED3AB
:101B5000BA6932B1786A7B600CF0EEFF7B680028CE
:101B60008CD1BA6802BB08F1280207F1300C08F1E9
:101B70000100944407F1580252FA80F008F102087B
:101B80000CF8101C5FFA88F800F8105C76E7BA6968
:101B90003AB1786A7B600CF0CFFF7B6800287FF455
:101BA0006DAF1BF0010F09D006F1280207F13000DC
:101BB000711C161806F8205CCEB25FE71BF0040F0C
:101BC0003FF45CAF08F1280207F1300008F1010191
:101BD00002EB000808F8105C5FFA81F84EE700207D
:101BE00063E71BF80A3087F8373054F82390D7F8AA
:101BF0008430FBB133F81B803A6AFB6A012107F19C
:101C000037009847002825DB0544B8F1000F06D1BE
:101C10004846FFF71DF800F101081FFA88F83A6AF4
:101C2000FB6A414648469847002813DB05440BF100
:101C3000010B6CE7D7F88480DEE700BF0C260100BB
:101C4000045401006136010004000001582A01001B
:101C500045464BE6054649E6014B1860704700BF14
:101C60002001002080B505460E46174698460AF02A
:101C70003FFE034610F0C0FCDFF81890044649F818
:101C80000030424630463946A84754F8090001F072
:101C9000E9F900BF080000002DE9F047058B044674
:101CA0002807904611D4022905F0070540F0CD80A1
:101CB00020460DF0D8F978B10138218B042811D8CD
:101CC000DFE800F0C3106D85950001290CBF45F0D9
:101CD000100545F02005258388F31188BFF36F8F29
:101CE000BDE8F08701F0070AAA4500F0A6800027AA
:101CF000B9463E46A368002B00F0BD8041F00801C4
:101D0000218388F31188BFF36F8FA168002900F049
:101D1000BB800D68002900F0B780D1F804803346FD
:101D200052462046C047002D76D02B6829461D46D6
:101D3000F0E701F007035A1F012A1BD8002221F007
:101D40000701062B276889B2C4E9002209D13B4666
:101D500003E0628B013262831B68002BF9D141F0F2
:101D60000201218320460DF07EF900287BD041F04E
:101D7000200177E0042B0AD121F0070189B22183E9
:101D800020460DF070F910B141F020012183218B24
:101D900001F0070AAA4550D00027B946AAE72369EF
:101DA00021F0070141F00601062DD3F800902183B0
:101DB0002DD1B9F1000F40D041F00801218388F303
:101DC0001188BFF36F8F3A492046C84729E021F0B8
:101DD0000701236941F0040189B2042DD3F804906E
:101DE0002183E6D000273E464FF0040A82E721F027
:101DF0000701236941F0050189B2052DD3F8089048
:101E00002183D6D000273E464FF0050A72E700270F
:101E10003E464FF0060A6DE72B4687E7B9F1000F03
:101E2000D1D14FF02003EFF3118883F31288BFF371
:101E30006F8F238B23F008032383258BEA062ED58F
:101E400025F01003238305F007056669218B002E1A
:101E5000BFF66FAF00232768C4E9003321F0070104
:101E600041F001012183218B01F0070AAA454FF0BF
:101E700000097FF43FAF002F9BD041F00801218380
:101E800088F31188BFF36F8F002FC7D03D683946A4
:101E90003346524620460DF012F92F46F4E7AB06C2
:101EA0007FF51AAF25F02003238305F00705FFE631
:101EB000EBF000002DE9F047DFF8588004460746B4
:101EC0004FF0010914B93846BDE8F08794FAA4F53B
:101ED000B5FA85F509FA05F32E0108EB05156FEA49
:101EE000030A24EA03042B7B002BEBD058F80630BE
:101EF0001B694BB94644042273682846196807EAEF
:101F00000A0700F05DFADDE7284698470028D9D196
:101F1000F0E700BFE02A010030B51049104889B051
:101F200000220FF0DAFF0F4D0F4900220023CDE908
:101F3000062300240E23CDE90334CDE901440B4BE5
:101F400000944FF4407228460AF088F90849284660
:101F50000FF082FC204609B030BD00BF751F0000A5
:101F6000100B00208806002080320020652200002F
:101F70001537010001480AF0BDBD00BFEC03002089
:101F80002DE9F04780461F480F460DF08EF90646B2
:101F9000002830D000252846BDE8F087237B73B1A8
:101FA0002368DB680BB12046984723681B69D3B9C7
:101FB000636804221968204600F002FA01361034E2
:101FC0004C45EBD3B8F1000FE5D0002DE2D0284608
:101FD000FFF770FF0546002FF7D000214FF4A470E3
:101FE0000AF068FCF1E7204698470028E0D00AFA9A
:101FF00006F31D43E2E7044CDFF8109005464FF06E
:10200000010ADDE7D80E0020E02A0100002B0100C4
:10201000014B53F8200070471C2E010008B5034601
:1020200008462BB1044A136000F096FC002008BD5E
:102030006FF01500FBE700BF2401002010B5044C31
:10204000237813B903480AF055FD0123237010BD0E
:10205000491C0020EC03002010B5044608480DF090
:1020600024F95CB1BFF35B8F064B53E8001F0139C5
:1020700043E80012002AF8D1BFF35B8F10BD00BF08
:10208000D00E0020D40E00200020064BBFF35B8F43
:10209000014653E8000F43E80012002AF9D1BFF3CC
:1020A0005B8F7047D00E002070B5FFF7EDFF084C36
:1020B000084E0546B44200D370BD63685B792BB10E
:1020C00023685B6813B12946204698471034F1E72E
:1020D000E02A0100002B010010B5044C0449204601
:1020E0000CF067FE034B1C6010BD00BF9403002082
:1020F000082E0100C80E0020084A094808B5002330
:102100001370084A1360084A4FF400411360FFF748
:1021100085FFBDE80840FFF7DFBF00BF4A1C002075
:10212000A7F20000D00E0020D40E002001460022AD
:10213000014800230CF05EBE9403002001480CF01F
:10214000F7BE00BF94030020024B014618680CF054
:1021500041BF00BFC80E002001480CF077BF00BF90
:102160009403002070B5284B187800284BD0FFF757
:10217000E5FF054690B1BFF35B8F244B53E8001F8A
:10218000013943E80012002AF8D1BFF35B8F204CDD
:10219000204EB4422DD32846FFF7D6FF1E4B1F4CCE
:1021A0001B68002B19DD0FF051FE4FF47A72A0FB73
:1021B000020302FB0131C30BD4E9002043EA41438F
:1021C0009B1A4FEAD13140F2E93261EB00019342B0
:1021D00071F1000101D3FFF767FFD4E9003213F575
:1021E0007A7342F10002C4E90032BDE87040FFF7A3
:1021F000B3BF63685B7923B1236829461B68204617
:1022000098471034C5E770BD491C0020D40E00204B
:10221000E02A0100002B0100D00E0020080B002056
:1022200070B50D4D297861B90120FFF7A9FE0B4C5F
:102230000B4EB44206D3FFF795FF0028FBD10123D4
:102240002B7070BD63685B791BB1236820469B6867
:1022500098471034EDE700BF4A1C0020E02A010037
:10226000002B010000212DE9F0470846FFF788FE0A
:10227000044658B340F267684FF0000910F0BCF90B
:102280001B4B1C4A1B58136033B11B4B1B68092B9B
:1022900002DD1A480AF02EFC194FDFF860A0002575
:1022A00044B12046FFF706FE044618B94FF0FF3848
:1022B0004FF0FF39FFF756FF064628B9B5B9424639
:1022C0004B4650460AF03CFC3546E9E74FF0FF38F4
:1022D0004FF0FF39D2E72B689B691BB100221146F2
:1022E000284698471035BD42F5D3E8E7054DFAE793
:1022F00008000000CC0E0020D40E0020EC030020CB
:10230000002B0100E02A010013B518480CF0CDFFA6
:10231000174B1B787BB14FF02003EFF3118483F34D
:102320001288BFF36F8FFFF71DFF84F31188BFF38F
:102330006F8F02B010BD0F4B1B68002BF9D050B946
:1023400000220023CDE900230B484FF40042002374
:102350000AF07CFFEDE70928EBD107480FF0C9FD33
:10236000064802B0BDE810400AF0C4BBD40E0020FD
:102370004A1C0020CC0E0020100B0020EC03002093
:1023800010B5064B1B68044698472146A0600448D8
:102390000CF0AEFDBDE81040FFF7B6BF24010020F1
:1023A00094030020044A054B9B1AB1EBD30F34BFB2
:1023B00052F8310000207047002A0100E02A010095
:1023C000084BC31A10B41B114468013323714368CE
:1023D0009A7143681960436801225A7110BCFFF773
:1023E0002DBE00BFE02A01002DE9F04F8FB004AFF1
:1023F000C1F34A28B8600D4691467B600C0DB8F1D8
:10240000000F63D0002607F114034FF0040B4FF0C8
:102410000A0AC7F80C80C7E907667E620193CDF807
:1024200008B0CDF800A007F11C03F9683246484611
:10243000FFF732FAB0F5006F03461CD36C468AB042
:10244000D9F8041004AB2648C3E9050140F2FF7136
:10245000D9611A464FF400711984224B42F8103F9B
:10246000214833464FF41251FFF7BEFFA5462C37E3
:10247000BD46BDE8F08FC0F30A0804F11700184408
:1024800020F0070080083B60FFF750FE68F35325FB
:10249000044690B13B68154AC7E9083600F11001BF
:1024A00007F11403F961CDE900A3CDF808B0F9688C
:1024B00007F11C034846FFF7EFF968F353257B68E3
:1024C000B9682A4620460CF026FFD0E704F1170031
:1024D00020F007008008FFF729FE0446EDE700BF63
:1024E0002A37010004000001802A0100EBF20000FD
:1024F0002DE9F04F87B0DDE91269DDE9105A044695
:102500000F4693469846A6B31021CDF80090334667
:1025100052460020CDF81490FEF7ECFF014605F17D
:1025200017000844144B039104F007040BF0070B49
:10253000E40020F0070003EA412344EA8B148008FA
:102540001C43FFF7F3FD44EA0554054640B13EB194
:102550000399CDF80090334652461030FEF7CAFF7B
:10256000434622463946284607B0BDE8F04F0CF0F6
:10257000D2BE3146D3E700BF00FE0F000EB403B554
:1025800003AB014653F8042B0448019301F05EF8B5
:1025900002B05DF804EB03B0704700BF29F40000FF
:1025A000CA0605D48B064CBF02490349FFF7E6BFB4
:1025B000704700BF4C3401004B3401002DE9F04F4F
:1025C00089B09B46149B06939DF84CA0159B0593E0
:1025D000169B179E049304460D469046BAF1000FD1
:1025E00000F09D8006F4807307930CF07CFE06F0EB
:1025F0000209024600283ED091492046FFF7BEFF5F
:102600000746B9F1000F08D016F0440F35D18D49B7
:102610002A462046FFF7B2FF074406F0010353B1F4
:10262000894B8A4953F82A20894B2046002A08BF43
:102630001A46FFF7A3FF06F48073002B49D006F07B
:102640000803002B63D1B8F1000F66D081494246E0
:102650002046FFF793FF0546069B3D44002B6DD1B6
:10266000049B002B73D1F30700F1E4803146204630
:10267000FFF796FFD8E00746C3E7774B18680028B6
:10268000CAD0764B4FF47A791B68B5FBF3F54FF45B
:102690006161B5FBF0F300FB135509FB05F54FF045
:1026A0003C0CB3FBF1F201FB1231B5FBF0FEB1FBC8
:1026B000FCF300FB1E550CFB131109FB05F5009103
:1026C000B5FBF0F56649CDE901E52046FFF756FF79
:1026D000A2E706F00803EBB1624B634953F82A20E6
:1026E0002046FFF74BFF0546B8F1000F05D05949CA
:1026F00042462046FFF742FF0544BBF1000FABD036
:102700005A495A462046FFF739FF0544A4E74FF0DF
:10271000000BE1E706F00805E6E745469CE7BBF15C
:10272000010F069B06D1002B64D1049B002B7BD0AC
:1027300000250CE0002BF8D04D485CE04D48069B8E
:102740004D4922460CF0C7F9049B002B68D0DFF8F6
:102750002C81DFF82C91049F3146102F204628BF92
:102760001027FFF71DFF4FF0000B5D4545DC059B73
:1027700049461A782046FFF701FF4FF0010B1BF086
:10278000070F03D141462046FFF7F8FE5F453BD9CE
:10279000059B494613F80B202046FFF7EFFE0BF18F
:1027A000010BBBF1100FEAD1364920464FF0000B68
:1027B000FFF7E4FE5A46059B9A5CA2F120015F29CF
:1027C00028BF2E2230492046FFF7D8FE0BF1010B1F
:1027D000BBF1100F1DD01BF0070F03D1414620465F
:1027E000FFF7CCFE5F455A46E5D841462046FFF745
:1027F000C5FEEBE71F485546A1E741462046FFF7D7
:10280000BDFE0BF1010BB0E720492046FFF7B6FEF5
:10281000C5E7059B3B440593049BDB1B04939AD1BE
:10282000BAF1000F7FF41FAF204609B0BDE8F04FAA
:102830000CF0EDBD064A05492046FFF79FFE15E75F
:102840006E370100723701002C2E0100A1400100FB
:102850006937010097370100E00E0020DC0E0020F0
:102860007B370100402E01009B370100A13701009A
:102870005FF4000029F400004D360000AE3701007F
:10288000A6370100B0370100B2370100AC370100B4
:102890002DE9F0410F884B688E6886B005460C46DE
:1028A0009046C7F382175BB1144A9B1A43F3CF01DA
:1028B000002920DB2078C0F3C200FFF773FD034638
:1028C0002146608851F8102B0197C2F34A22002A52
:1028D00001EB0204C0F30B1008BF00210022CDE978
:1028E0000408CDE90214009231462846FFF766FE3F
:1028F00006B0BDE8F0810023E2E700BF002A010036
:1029000073B542F20F738B4228BF0B4605680F4A1E
:102910000446052168460AF0C9FD63680C495B68F6
:1029200006460B2228460CF065FD63683246694670
:1029300028465B680CF05EFD636806495B681B22F5
:1029400028460CF057FD02B070BD00BF574601008D
:10295000D1370100B5370100074A00210123904219
:1029600006D8064A01B901231360054B1860704769
:1029700040085B000121F2E740420F00DC0E00201E
:10298000E00E0020014B01221A7070474B1C002002
:10299000014B002019607047F80E0020024B0348DD
:1029A00001221A700CF033BD4C1C0020702E010067
:1029B0000148FFF7A5BF00BF702E010010B5064B00
:1029C00018680C46FFF724FB21460346BDE810407B
:1029D00002480F22184700BFF80E0020702E010099
:1029E00010B9074B18707047064B1B781BB141F2AA
:1029F00088300EF0A6BEA420002109F05BBF00BF06
:102A00004B1C00204C1C00202DE9F843DFF874908B
:102A10001D4F80460E46042499F8005095B909F0E0
:102A2000E9F928463246414609F096F9054609F08B
:102A3000EBF9E5B101233B7099F8003073B93046EA
:102A4000BDE8F88332464146002009F085F9054685
:102A5000EFE72046FFF7C4FF651E2C46002009F073
:102A6000BFF90028EBD03B78002BF2D1E7E73B78A9
:102A7000002BE4D0013C2046FFF7B2FF3B78002B4F
:102A8000CAD1DCE74C1C00204B1C0020F8B5074FD6
:102A90000D4604464618B44201D12846F8BD14F844
:102AA000011BBB6801485B689847F4E72C270100CD
:102AB000014B036000207047B42E01002DE9F04760
:102AC000804600AF0C46002936D0E9468AB0D1E9ED
:102AD0000012A3686D461C482E464FF0050AC5E952
:102AE0000501C5E9072346F810AF18483246002310
:102AF0004FF42151FFF778FCCD46D4E90312636906
:102B0000AD461348C5F810A0C5E90501C5E907237E
:102B10000E48002332464FF42151FFF765FCCD46A5
:102B2000E3690C4A094801210CF04EFCA3690A4AEA
:102B3000064801210CF048FC2146404609F07AF98C
:102B4000BD46BDE8F08700BF23380100B02A010070
:102B500052380100813801009038010030BFFFF782
:102B6000FDBF00BF2DE9F0410B4EDFF8308006EBD2
:102B70000807CC1B05463246094920460FF05FFC8A
:102B8000A01942460021083C0FF067FC6C6707F172
:102B90000800BDE8F08100BF000000000400000054
:102BA000002B0100044B99685869884203D00349FF
:102BB0004FF080520A607047041C002004ED00E0D2
:102BC00070B5294C06460D46284829490CF0F7FCFB
:102BD000A36AD9043CD5254826490CF0F0FC1720FF
:102BE000A36A1A0504D5214823490CF0E8FC1820F3
:102BF0001D4CA36A9B0512D51C4820490CF0DFFC34
:102C0000A36BA26A100409D51D4A184801210CF0D3
:102C1000DBFB1EB1A36A23F40043A3621920124C0C
:102C2000A36A590504D5114816490CF0C8FC1A20AE
:102C3000A36ADA050ED50D4813490CF0C0FC1B2021
:102C4000094A936A43F47F43936200232B7070BD5B
:102C50001620C5E7A36A9B04F2D504480B490CF083
:102C6000AEFC1C20ECE700BF00ED00E0B02A010044
:102C7000BE380100D4380100E5380100F838010001
:102C8000113901002639010041390100593901008B
:102C900010B5204C204921480CF091FCA36A990101
:102CA00036D51E481E490CF08AFC1E20A36ADA01A4
:102CB00004D51A481B490CF082FC1F20154CA36A4E
:102CC0001B0304D5154818490CF079FC2120A36A90
:102CD000590304D5114815490CF071FC22200D4C04
:102CE000A36A9A0304D50D4811490CF068FC23200F
:102CF000A36ADB0304D509480E490CF060FC2420CC
:102D0000044A936A6FEA03436FEA1343936210BD68
:102D10001D20CBE700ED00E088390100B02A01005A
:102D2000A0390100B3390100CD390100EB390100B0
:102D3000103A01002A3A01002DE9F843364D804649
:102D400089463648364917460CF039FCAB6ADE0630
:102D500027D5344931480CF032FC1124AB6A1D07E9
:102D600004D531492D480CF02AFC12242A4DAB6AB7
:102D7000980718D52D4929480CF021FC6E6BAB6AD9
:102D8000190646D52A4A2548334601210CF01CFB7A
:102D9000B9F1000F03D0AB6A23F08003AB621324B8
:102DA00003E01024DAE76FF015061B4DAB6ADA0773
:102DB00004D5204919480CF002FC1424AB6A9B0688
:102DC00004D51D4915480CF0FAFB1524124B9A6ADC
:102DD000D50602D49A6A90070AD55B68190507D50B
:102DE0004146304600F036FA10B180F309880224DB
:102DF000094B9A6A920642BF5A6A22F400525A62FA
:102E00009A6A42F0FF029A6200233B702046BDE8B6
:102E1000F8836FF01506C2E700ED00E0B02A01006C
:102E2000553A01006B3A0100E53801009E3A010075
:102E3000B63A0100CC3A0100593901002DE9F041C0
:102E4000664B8AB0D3F8048000AF0446C8F3080587
:102E5000002686F31188BFF36F8F02F07F43B3F132
:102E60007F4F07D102F00C03082B12D15C495D485B
:102E70000CF0A5FB002634460023FB71EB1E092B4A
:102E800000F28A80DFE803F00A80837D88888888E2
:102E9000888610074CBF0C460126EDE75249514881
:102EA0004E4D0CF08CFB0023FB71EB6A9A0705D5A5
:102EB0004E494C480CF083FB002333E0EB6A002BB7
:102EC00001DA4B49F5E7EB6A5B00F5D5494945481E
:102ED0000CF075FB6B69A26943F480736B61BFF3FF
:102EE0004F8FBFF36F8F6B6932F8022C23F480731E
:102EF0006B61BFF34F8FBFF36F8F4DF602739A4232
:102F000009D0AB6ADBB27BB3FA1D01212046FFF783
:102F100013FF034606E02368374A324801210CF0CC
:102F200053FA2368FA79DAB907F1080504F1200C9D
:102F3000206861682A4603C2083464451546F7D103
:102F40007A6A002E44D0C2F3080121B96FEA5222F6
:102F50006FEA42227A6207F108011846FFF7AEFDD8
:102F60002837BD46BDE8F081AB6A13F47F4F04D02B
:102F7000F91D0120FFF724FECBE7AB6AB3F5803FD4
:102F80009AD3FFF785FEC4E7FA1D0021BEE7F91DBD
:102F90000020EFE719498CE7194A1A4B18F4F87F1B
:102FA000E8468AB018BF13466A461749C2E90513B6
:102FB0004FF400731384103D144BD56142F8103F59
:102FC000084800234FF41151FFF70EFAC54673E786
:102FD00022F4FF7222F00102BCE700BF00ED00E026
:102FE000193B0100B02A0100443B01005B3B01009A
:102FF0007C3B01008A3B0100A93B0100C53B01006D
:10300000003B0100EB3A0100E93B01000400000134
:10301000024A536943F010035361704700ED00E02A
:10302000EFF30880EFF3098101B57246FFF706FF61
:1030300001BD00BF00F04AFB202080F31188084842
:103040004FF40461401880F30988EFF314800221E3
:10305000084380F31488BFF36F8F00F0BBF80000C3
:1030600000400020084B9B6883420BD1EFF305839F
:1030700043B1064B5A6842F080525A605A6A22F4B1
:1030800000425A620EF0F1BC041C002000ED00E08A
:10309000094A93686FF00A01D967084998674B6835
:1030A00043F080534B60002383F31188BFF36F8F8D
:1030B0009368D86F704700BF041C002000ED00E04B
:1030C00015498A684FF030001044EFF3098C80E80E
:1030D000F01F202080F31288BFF36F8F0F4F4FF047
:1030E00000664A698A603E604FF0740414192068D3
:1030F0000B4C2060906F0023936780F3118804B518
:10310000104600F025F9BDE8044002F1300090E8D7
:10311000F01F8CF309887047041C002004ED00E0C8
:10312000280F00201EF0040F0CBFEFF30880EFF310
:103130000980816911F8021C0229FFD001B50CF049
:1031400033FA01BD40B2002807DB044A41090123DC
:1031500000F01F00834042F82130704700E100E09A
:1031600040B200280CDB4309064900F01F00203361
:103170000122824041F82320BFF34F8FBFF36F8FAE
:10318000704700BF00E100E0054B420900F01F005E
:1031900053F82220012303FA00F01040704700BFCB
:1031A00000E100E040B20028A8BF00F1604001F15A
:1031B0000101B8BF064B4FEA4111ACBF00F56140B9
:1031C00000F00F00C9B2B4BF195480F80013704763
:1031D00014ED00E00F4A08B50F4B22F07F029A6011
:1031E000BFF34F8FBFF36F8FD3F8882022F47002A4
:1031F000C3F88820EFF3148323F0040383F31488C7
:10320000BFF36F8F08F00EFF09F054FE00F074F862
:1032100008F05AFF0000000000ED00E042F8203CFA
:10322000009B42F81C3C0A49019B42F8183C029B57
:1032300042F8143C21F001014FF0807342F8043C45
:1032400042F8081C0023203A02658367704700BFDC
:10325000651C0000094A0346906870B113F1160F0F
:10326000406E05D0A0F140029A4205D8834203D2B5
:10327000814228BF0020704700207047041C0020B6
:1032800008B514460A4A0B4B9060426F1A600D460F
:1032900000F05EF8204685F30988002163B681F3CB
:1032A0001188BFF36F8F00220023FEF7DBFC00BF05
:1032B000041C0020280F0020014910220A607047DA
:1032C00010ED00E072B6404080F31188BFF36F8FBD
:1032D000BFF34F8F30BF62B6BFF36F8F704700BF31
:1032E00072B6494081F31188BFF34F8F20BF80F33E
:1032F000118862B6704700BF044800232021C2181D
:103300000133272B82F80013F9D1704700E100E068
:1033100001B5EFF30580A0F110004FEAC0000449A9
:10332000014409C99847BDE8014002490847000027
:1033300008280100A52B0000024B034A0348012185
:1033400000F08AB80000012000000020B42E010027
:10335000426E054B403A1A60044A4021C3E901120B
:103360001846012100F082B82C0F002000000B1538
:1033700008B503461048D0F89020C2F30722013A5E
:10338000934207D90D480E4A01210CF01DF86FF049
:10339000150008BDC0F898300A6822F01F021A43D1
:1033A00042F01002C0F89C208A6842F00102C0F886
:1033B000A0201846EDE700BF00ED00E0982A0100CC
:1033C000003C0100F0B50E4685B01F4604460025BE
:1033D000B5420DDA606810B397B1431E18420AD0A7
:1033E000104A11482B4601210BF0EEFF6FF0150239
:1033F000104605B0F0BD1F28F2D921680B42EFD16D
:10340000236801930CF0E3F8A36801A90343D0B249
:103410000393FFF7ADFF10F1160FE7D0421C013503
:103420000C34D5E7263C0100982A0100044B052204
:10343000C3F89420BFF34F8FBFF36F8F704700BF67
:1034400000ED00E0BFF35F8F024B0022C3F8942031
:10345000704700BF00ED00E010B5034C0123227857
:10346000FFF7B0FF207010BD5E1C002008B50B4AAE
:1034700000231278FFF7A6FF10F1160F07D0084AB5
:103480000021D2F89030C3F30723984200DB08BD37
:10349000C2F89800C2F8A0100130F2E75E1C0020CC
:1034A00000ED00E0F0B559485949D0F890300D686A
:1034B000C3F307239D4285B000F2A580FFF7C2FF4A
:1034C00049680022954201F10C0117D1514C524F2D
:1034D00025706846FFF7ECFA00250646AE4220D17B
:1034E00023784A490020D1F89020C2F30722934262
:1034F000C0F28380FFF79AFF00202DE0C0F89820EB
:1035000051F80C3C23F01F03134343F01003C0F8A1
:103510009C3051F8043C43F00103C0F8A030013264
:10352000D0E7009800EB05114FEA051CCB683B4043
:10353000B3F5000F4FD011D8B3F5001F35D0B3F558
:10354000800F3DD0B3F5801F17D0344A3448012195
:103550000BF031FF6FF0150005B0F0BDB3F1807FC7
:1035600042D0B3F1007FF0D150F80C3088684A683F
:103570000CF02DF840F4802009E050F80C308868F9
:103580004A680CF024F840F0885040F43020039052
:1035900001A92078CDE90123FFF7EAFE0028D9DB55
:1035A000237801332370013598E750F80C30886890
:1035B0004A680CF00CF840F0885040F40020E6E730
:1035C00050F80C3088684A680CF001F840F0E06070
:1035D00040F40030DBE750F80C3088684A680BF0A4
:1035E000F6FF40F08270D2E750F80C3088684A68E5
:1035F0000BF0EDFF40F08870C9E7C1F89830C1F8D2
:10360000A00001336FE74FF0FF30A5E700ED00E0C9
:10361000C02E01005E1C00200000F0FF493C0100AC
:10362000982A010008B5024B1B689847002008BD86
:10363000380F0020034B044A1860937843F00203CC
:1036400093707047380F002030010020F0B587B02C
:1036500007460E4614460021102268461D460EF00D
:10366000FCFE02238DF802302A46054B01932146C9
:103670006846CDE9047609F0E1FF07B0F0BD00BF70
:10368000EFF5000008B50649064821F00701C1F131
:10369000005202F580320BF0E1F9002008BD00BFB6
:1036A0000F5500203C0F0020024B0122C3F840259B
:1036B0000020704700E0014020B1034B800143F03F
:1036C00001031847704700BF602B010007F05EB987
:1036D00010B50E4C20460EF039F898B12269A16859
:1036E000136823F4806313600B684FF420220A21CF
:1036F00020469847002804DB2120002109F0DAF851
:10370000002010BD6FF01200FBE700BF9027010002
:1037100008B504480EF01AF800280CBF6FF012002C
:10372000002008BD042701000E4B402970B528BFBA
:1037300040210D4C46181D46B04203F1020304D14E
:10374000002305F81130074870BD02781209A25C09
:1037500003F8022C10F8012B02F00F02A25C03F810
:10376000012CE9E77D1C0020D63C010030B5037830
:103770008BB0044607AD032B21D8DFE803F0021A13
:103780001C1E12492846FDF75BFA059563780493E1
:10379000A3780393E37802932379019363790093E9
:1037A000A3790B4A0B481E2109F080FE09480BB093
:1037B00030BD0949E6E70949E4E70949E2E7094A72
:1037C0000A21284609F072FEDFE700BF913C0100A4
:1037D000B33C01005F1C0020983C01009F3C0100AD
:1037E000A93C0100813E010038B5054605480CF0B2
:1037F00032FF044620B100210C300CF044FF257646
:10380000204638BD5C04002010B531B109480CF0E9
:1038100022FF044630B9204610BDBDE8104001200B
:10382000FFF7E2BF00210C300CF02DFF01232376BF
:10383000F1E700BF0404002010B501210C300CF0AA
:103840003DFFBDE810400378024A034801210BF018
:10385000E8BE00BFEF3C0100482A0100B0B50B46AE
:103860000D8A00AF04462946D868FFF75DFF8AB08D
:103870006A46094BC2E9053440F202439384074B80
:10388000C2E9075042F8103F054800234FF4325177
:10389000FEF7AAFDBD46B0BD113D010005000001C7
:1038A000482A010037B502EBC303934204D103B0A9
:1038B000BDE83040FFF7D2BF144614F8085B8542DC
:1038C00011D10B8A54789C4207D9084A00900121F3
:1038D00007480BF083FD03B030BD5368084603B0C2
:1038E000BDE8304018472246DFE700BF333D010006
:1038F000482A010010B5012104460C300CF0DEFE10
:103900002146034A0078BDE810400023FFF7CABFF4
:10391000642F01002DE9F74FDFF854B1BFF35B8F3F
:1039200081460F4690464FF0000A5BE8004F4BE897
:1039300000A3002BF9D1BFF35B8F264644B94D4A53
:103940004D484B46012103B0BDE8F04F0BF069BE76
:10395000204604F0C1FE494D0C2303FB0050428871
:103960004A4520D0204604F0B7FE0C2303FB00504C
:103970004388434A009340484B4601210BF02EFDFB
:10398000BFF35B8F5BE8003F4BE80062002AF9D190
:10399000BFF35B8F002B67D01E46304603B0BDE8F7
:1039A000F04F04F035BFA04511D020460CF04EFE7C
:1039B00004F10C0901235146484623760CF063FEBE
:1039C000B8F81020D8F80C1048460CF066FE2046D7
:1039D00004F082FE4FF00C0808FB00504368EBB186
:1039E000E7B9204604F078FE08FB00500122406849
:1039F000D0E90031007A01F01F0C02FA0CF24909FB
:103A000028B3BFF35B8F03EB810353E8000F104330
:103A100043E800010029F8D1BFF35B8F204604F092
:103A20005BFE4FF00C0808FB00508368002BB4D0FD
:103A3000204604F051FE08FB00F02F54204604F00D
:103A40004BFE08FB0055A86809F054F8A5E7D243DF
:103A500003EB8103BFF35B8F53E8000F104043E893
:103A600000010029D8D0F7E703B0BDE8F08F00BF10
:103A700000010020553D0100482A0100480F0020A8
:103A80007D3D010038B5042104460C300CF016FED3
:103A9000034640885D7818B119782246FFF73AFF4F
:103AA00025B10348BDE8384009F024B838BD00BF4F
:103AB000E800002070B5032104460C300CF0FEFD38
:103AC0000578B0F80100E36840F6354290421B7873
:103AD00006D1BDE87040084A084802210BF0A1BD9C
:103AE00018B122461946FFF715FF25B10448BDE875
:103AF000704008F0FFBF70BDB03D0100482A0100D2
:103B0000E800002010B5C1E900239DF808300B72D1
:103B10000C4604F0E1FD034B0C2202FB00335C6019
:103B200010BD00BF480F00202DE9F0474FF0FF32D5
:103B30004FF0FF3306461748174D0F460CF08BFD2C
:103B4000044600F10C0A00214FF0000850460CF02A
:103B50009AFD84F81880204604F0BEFD4FF00C0951
:103B600009FB00504680204604F0B6FD09FB0050DA
:103B7000C0F80880204604F0AFFD09FB0055032182
:103B80005046C5F804800CF082FD06808770204600
:103B9000BDE8F08730040020480F00202DE9F041F7
:103BA000074688B016460C4621B9FFF7BDFF04460C
:103BB000002852D002AD0122002128460EF064F800
:103BC000204604F089FDDFF8A0800C2303FB008071
:103BD000856020460CF047FD014624480CF041FD6D
:103BE0004FF4A0222846002308F0AAFF054688B11A
:103BF00040F24B131E4A1F491F480AF0D3FF1F48CB
:103C00002A4639460AF0CEFF404080F311884FF033
:103C1000030002DF204604F05FFD0C23584318F830
:103C2000005095B1164A174800953B460221093DC0
:103C30000BF0D4FBEDB2204604F0EAFD092D0FD8BD
:103C4000114B585708B0BDE8F08116B13460002020
:103C5000F8E7204604F0DCFDF9E76FF06800F1E7D3
:103C60006FF00400EEE700BF480F002004010020C1
:103C7000E63D01001A3E0100233E0100403E0100E6
:103C80006C3E0100482A01004B4101002DE9F04142
:103C9000C54D82B0D5F81C31996811F0010100AF13
:103CA00021D13A1D40F60340FFF778FF0446002873
:103CB0006FD17868C3681B789BB9BFF35B8FD5F869
:103CC000D430BFF35B8F05F1D40203F00903BFF3D7
:103CD0005B8F52E8001F42E80034002CF9D1BFF39B
:103CE0005B8F04F095FD3A1D002141F20300FFF7C0
:103CF00055FF044600284CD17B68AC4EDA68D2F8F8
:103D00000100D2F8051003C6184604F081FD2146D3
:103D10003A1D41F20100FFF741FF0446002838D167
:103D20007868C3685A7885F870205A88A5F8722098
:103D30001A7985F87120B3F80720A5F87420B3F834
:103D40000530A5F8763004F063FD21463A1D41F2B6
:103D50000200FFF723FF0446D8B9D7F804C0DCF807
:103D60000C20531C413218685968344603C4083388
:103D700093422646F7D1604604F04AFD95F87C3020
:103D800058060BD48A4A8B4801210BF014FB6FF0C4
:103D9000120420460837BD46BDE8F0813A1D0021D7
:103DA00042F20300FFF7FAFE04460028F1D17A68D8
:103DB000814BD168D1F80100D1F8051003C310463A
:103DC00004F026FD95F87C30990617D4022140F6C0
:103DD0006D40FFF7A9FE064600284AD002210C30AC
:103DE0000CF055FC0123447003702246314640F626
:103DF0006D40FFF7D3FE04460028CAD195F89C30E9
:103E00001A0712D53A1D002142F21C00FFF7C6FE28
:103E100004460028BDD17868C368D3F80120D3F8E0
:103E20000530C5E9382304F0F3FC082142F2010013
:103E3000FFF77AFE0446E0B108210C300CF027FCB5
:103E400002260022067042708270C27002714271B6
:103E50008271C271214642F20100FFF79FFE0446C3
:103E6000002896D1082140F60140FFF75DFE80460C
:103E700010B96FF068048CE708210C300CF007FCD7
:103E80008023437020230470847004714471847112
:103E9000C670C3712246414640F60140FFF77EFEE0
:103EA000044600287FF475AF01463A1D4FF60140E5
:103EB000FFF774FE40B1414A3E4802210BF07BFA05
:103EC00000F0C0FD044664E77B68DC68B4F80130AC
:103ED000032B96BF3A4A3B4952F823106E468AB0EC
:103EE0006A463948D3614FF400731384374BC2E9F3
:103EF000050142F8103F00232E484FF41351FEF7FE
:103F000073FAB4F80120B4F80330022AB5466BD135
:103F1000052B69D82E4A52F823106E468AB06A469D
:103F20002C48D3614FF400731384284BC2E9050178
:103F300042F8103F4FF413511E480023FEF754FA85
:103F4000637994F806C0D4F80900032BB54698BFEE
:103F5000214AB4F8076094BF52F8231019496C46FF
:103F60008CB06A46DFF874E0C2E9073C4FF4007396
:103F700093851B4BC2E905E1C2E9096042F8103F95
:103F800000234FF473510B48FEF72EFAA5467868CC
:103F900004F03EFC3A1D00214FF60240FFF7FEFD03
:103FA000044618B30F4A87E700000020780000207D
:103FB000903E0100482A0100D8000020B43E0100D4
:103FC0002C2F0100883E0100D83E010004000001B2
:103FD000142F0100F13E0100042F0100093F0100F0
:103FE00007000001363F01000F4996E77868C36873
:103FF000B3F80130A5F8C13004F00AFC95F8C130DF
:104000005B077FF55DAF3A1D21464FF60340FFF792
:10401000C5FD08B1054A4FE77868C3685B7885F845
:10402000C03004F0F5FB4BE7883E01005F3F010024
:10403000F7B5144B93F99B30002B05460C461DDA5F
:1040400014B9204603B0F0BD082C01AA4FF00001BE
:1040500042F21800264628BF0826FFF79FFD0028D9
:10406000F0D1019FF9683246013128460EF0E7F998
:10407000384604F0CDFB3544A41BE1E76FF0850022
:10408000E0E700BF0000002070B50C4D06460FCDE4
:104090008EB06C460FC40FCD0FC40FCD0FC495E882
:1040A00003000D2E84E803009BBF0EAB03EB8606D6
:1040B000034856F8380C0EB070BD00BF142B010039
:1040C000883E0100024BD3F81C315B69184700BFE2
:1040D0000000002070B5404D404EEB686FF3943304
:1040E000EB603D484FF0FF324FF0FF33012109F004
:1040F000E7F860B13A4A3B493B4840F632330AF0B0
:1041000051FD404080F311884FF0030002DFEB685F
:10411000C3F38633022B06D9042B07D0334A344825
:1041200002210BF07EFA08F041FBD6E72B7B002B37
:10413000F9D13048002200230CF091FA04460028FF
:104140003BD04FF0FF332C484FF0FF3208F0F8FC23
:10415000D6F8003123BB20460CF085FAC6F80001E2
:104160002046FFF7AFFF03460028DCD0234A204853
:1041700001210BF056FA204808F0BCFC204604F060
:10418000ABFA1F4B0C2202FB0033588818B92046AB
:1041900004F03EFBC7E722461F21FFF7BBFBF6E713
:1041A000184A134801210BF006F9D6F8000104F073
:1041B0002FFB0023C6F80031CDE7094A12490A480F
:1041C00040F6C4230AF0EEFC404080F311884FF023
:1041D000030002DFB5E700BF40010020000000201F
:1041E000E63D01001A3E0100233E0100AA3F010006
:1041F000482A010004010020E8000020883F010057
:10420000480F0020CB3F0100404B01002DE9F04159
:10421000044600F10C0630460CF058FA278A012FAC
:1042200005460AD81D4A1E483B4601210BF0F9F904
:104230002046BDE8F04104F0EBBA304602210CF014
:104240003DFA0378052B064621D00E3B012B21D9E0
:10425000144A1549154840F6F2630AF0A3FC4040A1
:1042600080F311884FF0030002DF4FF00208104A7C
:10427000307802232146FFF715FB18F0020FD7D044
:104280006369278213FA85F5E560BDE8F0814FF098
:104290000308ECE74FF00108E9E700BFE63F010043
:1042A000482A0100E63D010002400100233E0100D2
:1042B0003C2F010038B5017E0129044628D1038A2C
:1042C000012B08D8184A19480BF0ABF9204604F026
:1042D0009FFA002038BD02210C300CF0EFF9037872
:1042E0000E3B012B05460CD8114A1249124840F6E4
:1042F000B5230AF057FC404080F311884FF00300CB
:1043000002DF0E4A287803232146FFF7CBFADDE7C8
:104310000B460B4A054801210BF083F9204604F0B7
:1043200077FA6FF01500D5E7E63F0100482A010053
:10433000E63D01001B400100233E01004C2F01001F
:104340004940010010B5037E012B04460CD0094AF8
:1043500009490A4840F645730AF024FC404080F3BE
:1043600011884FF0030002DF2046FFF74FFF0020C7
:1043700010BD00BFE63D01005D400100233E01008D
:10438000084A0346D2F81C0130B9D96839B15969D5
:1043900029B1C2F81C3170476FF0770070476FF099
:1043A00015007047000000202DE9F84F454BBFF382
:1043B0005B8F00AF53E8002F42F0040243E8002176
:1043C0000029F7D1BFF35B8FA3F1D40413F8CD2CF0
:1043D0003D4D3E4B2046012A88BF1D466E46FFF7E5
:1043E000C5F98AB06A463A4BD061C2E90535394B06
:1043F0001362394B42F8103F3848DFF8E480DFF8A9
:10440000E490DFF8D8A000234FF42351FDF7ECFF30
:104410000125B5462646E3799D4206F107063ADBBB
:1044200094F870502846FFF72FFE6E468CB0B4F813
:104430007210B4F876306A46DFF8ACC05362C2E955
:1044400007512A4B4FF40075C2E905C0158542F8A3
:10445000103F00234FF453512048FDF7C5FFB546E8
:1044600094F871603046FFF70FFE8AB0B4F87430EC
:104470006A461F499584C2E907631E4BC2E90510CD
:1044800042F8103F154800234FF43351FDF7ACFFBD
:10449000BD46BDE8F88F3046FFF768F9EB468AB0B5
:1044A0006A4640F20133C2E90585D061138442F8BF
:1044B000109F00234FF413515046FDF795FF01352F
:1044C000DD46A8E7D40000204D3401008040010003
:1044D000844001000002010304000002482A010098
:1044E0009340010004000001A44001000600000107
:1044F000E24001000500000110B5FFF7C7FB0446CC
:1045000008B9FFF751FF044B1B681BB12046BDE8FB
:104510001040184710BD00BF600F002070B5364D29
:10452000D5F81C3188B006464BB9344A34480121CD
:104530000AF041FF6FF01204204608B070BD05F18B
:10454000D403BFF35B8F53E8002F22F0020243E84D
:1045500000210029F7D1BFF35B8FBFF35B8F53E8D6
:10456000004F44F0010243E800210029F7D1BFF3D6
:104570005B8F14F001043CD1224B1E6001221146D6
:1045800005F1E8000DF080FB05F582700DF03BFBB6
:1045900000220023CDE906236FF00803CDE9024392
:1045A000CDE90044184B194904944FF4407218485F
:1045B00007F054FE174916480DF04EF9D5F81C3196
:1045C000DB689847044630B10346134A0C48012182
:1045D0000BF027F8B0E73EB9FFF758FB0446002878
:1045E000AAD1FFF7E1FEA7E705F1C40008F0F0FB50
:1045F000A2E76FF077049FE7000000200941010067
:10460000482A0100600F0020D5400000C03500207E
:10461000480B00202241010028410100044BBFF358
:104620005B8F1868BFF35B8FC0F38000704700BFDB
:10463000D40000200048704744410100F8B50A4DFD
:10464000EF7906460024E3B29F4202D86FF00100E2
:1046500007E0294630460BF01DF80735631C08B10A
:104660002046F8BD1C46EEE70000002070B5144E51
:104670000622314604460DF0A9FDD8B1062142F2CA
:104680000500FFF751FA0546B0B1062221460C306D
:104690000CF003F80022294642F20500FFF77EFAEB
:1046A00048B93346226843F86929A288B2800122BA
:1046B00083F86820002070BD6FF06800FBE700BF42
:1046C0006900002037B504460D4689B118492846CF
:1046D0000AF0E0FF60B9174A2968C4EBC404A318C4
:1046E0001151AA889A80AA799A71002003B030BD2E
:1046F00068460AF087FF0028F8D16846FFF79EFF5A
:104700000028F5DA0B4A00989DF80610C4EBC404A3
:10471000A3181051BDF8040098809971002DE4D0C1
:1047200012592A609A88AA809B79AB71DDE700BF95
:104730007E3C01000000002070B50446B1B9C0B154
:1047400020490AF0A7FFA0B92046FFF777FF00280D
:1047500031DA2378012B04D1A37903F0C003C02BF5
:1047600007D0194A194801210AF09CFF6FF0150083
:1047700070BD174DEB79012B20D0BFF35B8FD5F8BF
:10478000D430BFF35B8FDB0707D4002CEED00D498C
:1047900020460AF07FFF0028E8D1EE792146731CFD
:1047A0003046EB71FFF78EFF08B93046E0E7EB7952
:1047B000013BEB71DCE76FF07700D9E76FF00B009E
:1047C000D6E700BF7E3C010058420100502A01009C
:1047D000000000202DE9F341044640B91A4A1B4865
:1047E00002210AF05FFF002002B0BDE8F08101AABB
:1047F000002141F20900FFF7D1F9054608B1144A3A
:10480000EDE7019E1349D6F80C8008F10107062256
:1048100038460DF0DBFC28B10F49062238460DF072
:10482000D5FC18B9304603F0F3FFDCE7D8F80130C7
:10483000C4F80130BB88A4F805303046257003F079
:10484000E7FF0120D0E700BF86420100502A0100A7
:104850009F4201008B3C0100853C010007B5684682
:10486000FFF7B8FF044BD87118B169460020FFF775
:1048700029FF03B05DF804FB00000020F7B51F4BD3
:1048800093F8C230DB0705460E4608D41C4A1D4883
:1048900002210AF007FF0024204603B0F0BD01AA60
:1048A00000214FF60940FFF779F9034608B1164A8F
:1048B000EDE70198C2685478B44228BF344602320A
:1048C00016279C4209DC03F0A3FF002CE4D10F4A19
:1048D0000C4802210AF0E6FEDEE7114607FB03560C
:1048E00002F1140C51F804EB46F804EB6145F9D1E0
:1048F0000988318001331632E3E700BF0000002051
:10490000BD420100502A0100E942010009430100B3
:10491000F0B5164DEC7989B02CB9012102A8FFF74A
:10492000ADFFE871D0B90021084609B0BDE8F040FC
:10493000FFF702BF08AB06FB0033694653F8182C9B
:1049400033F8143CCDF80120ADF805308DF8007037
:10495000FFF7B8FE013418B109B0F0BD16260127E3
:10496000EB79E0B28342E5D80020F5E700000020B3
:104970002DE9F04190460E461D46024650B14BB11E
:104980003103047810D5730708D52B4A2B48012131
:104990000AF088FE6FF01500BDE8F0810AF08CFE89
:1049A0000028F9D1012341E0F70730D5244FB8F1B1
:1049B000000F13D0B0060AD4C4EBC403FB5C012B78
:1049C00013D02B70B20620D543F002030BE097F80A
:1049D000D8305906F0D46FF08500DDE7C4EBC4038E
:1049E000FB5C012B01D02B700FE0072101FB047150
:1049F000013110460AF058FE0028CDD1C4EBC404A2
:104A00003B5D2B70B8F1000FDCD10020C4E77307C9
:104A10000ED50B4EC4EBC407F35D012BE3D1072188
:104A200011FB043131440AF03FFEF35D2B70B3E714
:104A30000AF042FEB6E700BF32430100502A0100EF
:104A40000000002038B5104DEB7913B1002420464A
:104A500038BDFFF703FF044628B10C4A0C4801217A
:104A60000AF020FEF3E7EB79002BEFD1FFF750FFC0
:104A700004460028F1D1681CFFF7F8FD0446002821
:104A8000E5D0044AEAE700BF0000002051430100DE
:104A9000502A0100704301002DE9F74F0C462021F8
:104AA00000909246FFF740F80546002855D0202197
:104AB0000C300BF0ECFD2022002181460DF0CDFCE6
:104AC00009F1010B04EBCA0A0026D4F80080002388
:104AD000626893420CD30834A245F6D1009889F855
:104AE00000600022294603B0BDE8F04FFFF756B83A
:104AF00098F8012098F800C0B01C81181F2915D91A
:104B0000BCF1090FC0F11F0201D1002A0CDC144ACC
:104B1000144801210AF04FFC284603F079FE6FF09B
:104B2000150003B0BDE8F08F4FF0080CD7B2791C28
:104B30000BF80610711CC9B25BFA80F00BF801C0CB
:104B4000D8F80410019302370DF079FC019B37442B
:104B5000FEB2013308F10808BAE76FF06800E0E739
:104B600093430100202A0100F8B54568690506460F
:104B700035D4046914B115F0010330D0194F3078E1
:104B8000FB7983422BD9C0EBC00017490722384478
:104B90000DF01CFBA8B115F0010306D197F87020A9
:104BA000082A02D8B2689F2A19D915F0300F09D007
:104BB000ACB1EA060AD405F46035B5F5603018BF2B
:104BC0000120F8BDEB0601D4002CF4D1D6E9022374
:104BD0009A4204D81F2A02D9B3F5804FEBD900209E
:104BE000EFE700BF000000207E3C01002DE9F04F00
:104BF000D1F810A08BB0BAF10005064680480593A5
:104C000018BF01250AF082FD40070C46934640F18B
:104C1000EC800846FFF7A8FF28B96FF01505284675
:104C20000BB0BDE8F08F20460AF05DFD81460028FC
:104C3000F3D006F1100840460AF068FD0106C0F303
:104C4000C01300F1D580CDE90733CDF82330A36838
:104C50006068ADF81830E368ADF81A300AF047FD27
:104C60006FF400518DF8250065480AF055FD654A3E
:104C70002378337082F86F3061682A460DF11D0386
:104C80003046FFF775FE05460028C8D106F1090336
:104C9000BAF1000F18D022691168C6F8091091887E
:104CA000998092799A7120460AF0D3FD6368DA07F9
:104CB00007461BD4980503D4149B0BB9022F4ED181
:104CC00002238DF81C3023E04F4A1168C6F8091002
:104CD0009188927999809A7120460AF0BAFD6368AA
:104CE000DD070746E6D58DF81CA011E013F0100F84
:104CF0000CBF012304238DF81C3023691A68CDF8FA
:104D00001E209A88ADF822209B798DF82430A94680
:104D10000F2142F20600FEF707FF054600286AD081
:104D20000F2206A90C300BF0B8FC2946002242F2F3
:104D30000600FEF733FF054600287FF470AFBAF196
:104D4000000F12D0304601210AF093FD064620B331
:104D50002E4A2F4801210AF02EFB35465FE7032338
:104D6000DDF850908DF81C30D2E7159B0093CDE90B
:104D70000197149B059A594630460AF0F3FC002827
:104D80003CD1304601210AF074FD06460028DFD1EF
:104D9000666886F00206C6F3400606F00102404649
:104DA0000E210AF0C8FC7B1E5A425A414046082197
:104DB0000AF0C1FCB91E4A424A41404609210AF0A4
:104DC000BAFC6268404602F001020A210AF0B3FC14
:104DD0004A4640460B210AF0AEFC62680D21C2F340
:104DE000800240460AF0A7FC19E76FF00A0516E7B3
:104DF0006FF0770513E76FF0680510E705460EE7DB
:104E0000D4000020000000207E3C0100AC430100E3
:104E1000202A010073B51546069A0C46CDE90032EA
:104E20002B460A4601461148FFF7E0FE214606469A
:104E3000002340F201109D4202D1304602B070BD05
:104E40000A88824204D14A6812B11278D20702D489
:104E500001330831EFE7064906480CF0BDFF4FF477
:104E600070220023034808F01FF8E6E7180000202E
:104E7000B14E00003000002008B50B480AF01EFDBE
:104E80000A486FF480410AF047FC08480AF03EFCEB
:104E900003461B06C0F3C01005D5BDE80840024814
:104EA00000210AF0E6BC08BD180000202800002000
:104EB00010B5FFF7E1FF034630B1044A0448BDE8EE
:104EC000104002210AF080BA10BD00BFC7430100A4
:104ED000202A01002DE9F8430F4FDFF840804FF002
:104EE0000C0944463E460025221D21463046013528
:104EF0000AF03CFD042DA6F10806A4F10C04F3D140
:104F0000A9F1040919F1040FA7F12007A8F130084D
:104F1000E7D1BDE8F88300BFDC0F00209810002027
:104F200070B505460C461E46B2B173783078C01A8B
:104F300010F0030030D10133DBB233703022042390
:104F400012FB04320C2313FB05231C4A70681A441D
:104F500031460AF00EFD24E00BF062FB0028E4D09D
:104F60002146284603F0CAFA727813460028DDD09D
:104F700030210C20614300FB051110480144887A60
:104F8000C97A8842D2D133789B1A9B0711D1D6E9CE
:104F900002039847002070BD0128FCD00133DBB22A
:104FA0003370074B0122214628461A5503F0C6FAF2
:104FB000F0E70232D2B23270E9E700BFE40F00201E
:104FC000FE1C00202DE9F04FDFF82CA11AF800306C
:104FD00087B00546002B00F08780484C00EB40036B
:104FE000002704EB03143C22042312FB00330AF8CD
:104FF00000704FF0030800970293A3460023A16AB4
:105000005BF8240F059305AA0AF0BAFC0646002EA9
:1050100040D0059A92F800905378A9EB030909F063
:105020000309B9F1010F05D1013B5370059BD3E989
:1050300002029047059BA06A1A780393D1B20191AE
:105040005978521A02F00302012A16D0002259465A
:105050000AF09EFC039B5E60019A59785A701A7898
:10506000521A02F00302012A07D1244A5970029908
:1050700030460A4419460AF07CFCD4E9090105AA25
:105080000AF07EFCB9F1010F0646C0D1B8F1000F5D
:1050900023D110BB94F82E3094F82F209A4226D1B9
:1050A00094F82C3094F82D2008F1FF389A425FFADA
:1050B00088F81CBF84F82D300127B8F1FF0FA4F148
:1050C0000C049AD1009B7BB177B93A462946284611
:1050D00007B0BDE8F04F03F0EFB901232946284699
:1050E0000AF8053003F02AFA07B0BDE8F08F84F81B
:1050F0002F3001230093D3E7FE1C0020E40F002093
:10510000D0E908310B440849024608481944814255
:105110009FBFA3F1E873A3F5D433A3F5A5730120D2
:1051200088BF0020536270475A2B17FF592B177FF7
:105130002DE9F843224E044608462C2104FB016861
:10514000D8F8041001EBC00711F83010FC78651C8A
:10515000EDB2A94298BF00257978A9422ED079688E
:1051600004EB44044FEA041C01EB04144FF004095F
:1051700001F80C906360089BA360099BE3600A9BA5
:1051800023610C9BA361BDF82C30A382119B636249
:105190000D9BE3610E9B23620223A3700F9BA3620E
:1051A000109B6270E362FD70D8E90835984743466A
:1051B00000224946A847A078BDE8F8830120FBE714
:1051C000A41000202DE9F04F837E8FB00446002B01
:1051D00040F03F82437E01934BB1456A0346012272
:1051E00004210420AC460FB0BDE8F04F604743698E
:1051F000C17A0793837A0122994242765DD01344A3
:10520000DBB2022B08BF0023837200EB83030692FC
:10521000D3F80CB0079B5B4423F07F434361237EAC
:10522000039302F0EDFD2368657A089363680A939F
:105230000023013D0593FF230490EDB20093FF2D61
:105240003FD1237E039A9B1A18BF01230293069B2A
:10525000002B00F0D682049B079A0B959B1A23F033
:105260007F43089323680493D8464FF0000994F8CD
:1052700018A0BAF1FF0F0DD00AEB4A052B010A93D3
:10528000049B03EB0515AA68424540F22A81A2EB74
:105290000802AA60029A06990398237E834218BFE7
:1052A0000A460099029220460AF0E6FB2568002291
:1052B000237EFF2198460691AEE1019B06939B4613
:1052C000ADE70A9B03EBC509D9F80430029399F8BE
:1052D000030099F80280804500F0D680029B99F87F
:1052E000002008EB48074FEA071A03EB071708F1FD
:1052F0000103DBB29A4208BF002389F80230029B07
:10530000797813F80A20042AE3D901EB4106330126
:105310000B93089B03EB0616082A7378B078A3EB6F
:105320000003DBB203D83BB9062A00F081800121DB
:1053300038460AF097FBCAE7052A6FD17A684AB95E
:10534000BA683AB9FA682AB93A691AB97A6932F088
:105350007F42ECD0012B40F08D8020460AF038FBD4
:10536000B06063690993099A049B9B1A23F07F43F9
:105370005B4498429DBF72699B18181AA0EB030802
:1053800073689CBF70614FF000089BB1BB8A8BB102
:10539000013BBB82D6F804A0DFF850C2F18BBB8A78
:1053A000C24501D2994272D8F38BBA8A9342C0F0B7
:1053B0008380B2837B68B16A4344B360BA6873691F
:1053C0001344736129B10B681BB1D7E901329B1AF1
:1053D0004B60049A099930460AF026FBFA68B369D3
:1053E0001344B3613A6993428CBF9B1A0023B361A3
:1053F000BA7D1AB1F37862F30003F370FB7D13B149
:10540000013B86F82C30089A0B99009B53547B780B
:105410000093737801337370002189E7012B27D142
:10542000062A05D020460AF0D3FAB378B06073702C
:10543000E27E7B789A42EFD1029B13F80A30062B6A
:105440001CBFFF23E376029B13F80A30062B01D022
:10545000082B3BD179686369CA1A100238D422F04C
:105460007F4202EB0B03E2699A4288BFE361D3E714
:10547000062ADDD004212346666A01220846B04789
:10548000012389F802800593013DEDB2D7E6736AE6
:10549000574A58489A18824284BF63447362D6E9D7
:1054A00008238CBF012000209B1A504401397362ED
:1054B000A8EB0008F18371E730460C93FFF720FE5C
:1054C0000C9B504401338044F3836DE70499C2E799
:1054D0005B1A23F07F439B458CBFABEB0303002398
:1054E000C1E7A9786878089BEE8B401AE1699B1A9E
:1054F0008A42A8EB02089144089331BF8A1A00221D
:105500000B9BE376E261AA69C0B25AB1022809D1C5
:1055100046B9AA6A12B1127A012A03D084F81BA0F4
:10552000AA69E2610023AB600A9A049B9A5C227626
:10553000696829B9AA6A002A4DD0127A012A4AD18B
:10554000AA6AC2B1127A012A15D1AA78C5F80880D0
:105550006A70079B616903EB090228460AF064FA46
:10556000049A0A99009B53546A78CDF800A001323E
:10557000D2B26A707BE6EB8B0993BBB9AE8B324635
:1055800000272846CDE90C12FFF7BAFD0C990D9AB9
:105590000844013A0744F4D295F82C00A0B1002049
:1055A000099BAF601E443044E883D2E7AA786A7052
:1055B0000026E4E72846CDE90C12FFF7A1FD0C997F
:1055C0000D9A084407441046089BBB4200F10102B3
:1055D000F0D880B2E4E738B1012800D026B12B6AB8
:1055E00013B1696A01209847AA78C2E74AA9D10194
:1055F0005A2B17FF592B177F08EB48064FEA061A5C
:1056000005EB061615F80A10B76A17B1387A0128A3
:1056100022D0CDF818808846B8F1FF0FECD1002ACF
:1056200000F0F380059B002B00F0D180237EFF2B40
:1056300040F0688102F0C0FB0546002840F0BE81C2
:10564000E06102F0DDFB65766061A37E002B40F037
:10565000B0810FB0BDE8F08FE369D6F818900091E3
:105660009B4538BFA3EB0B0CD7E9003228BF4FF0A6
:10567000000C9A4235D29B1A04930498B9F1000F9A
:1056800008BF4FF004090023A0EB09001A469E460C
:1056900008900099FF2907D002EB090007900498B1
:1056A00002EB090188422FD27A68B168521A1A4473
:1056B0007A60B36015F80A20FF23FF2A68D002EB56
:1056C00042014FEA011E05EB0111D6F808C08868B7
:1056D00084455AD9ACEB0000B060134615F80E2093
:1056E000EBE7B9F1000F0DD163B9834A83498448D0
:1056F00040F66A1309F056FA404080F311884FF0E3
:10570000030002DF0023CFE7009901EB410108010C
:1057100005EB0111079088688644886A10B1007A09
:10572000012803D0886908B1496819B90799695CEB
:105730000091AEE7B3690093BEF1040F1CD9049940
:10574000131F73448B4228BF0B4602EB09018B42A7
:1057500012D90099002900F03681B3EB090301D07A
:105760009C45A1D9724413189C46089B0799695C13
:1057700000914FF0000E8CE70099724483180029C5
:10578000F2D19C46F2E763468EE7A0EB0C008860FE
:10579000FF2B15D0069A15F80A10FF2A17BFBDF97E
:1057A0001820217602EB420212011BB203EB4303E5
:1057B00018BFA9541B01EA5C05F80A2005F803800C
:1057C000F38B013BF38302233B72012270E501233B
:1057D000029363680893637A013B5FFA83FBBBF132
:1057E000FF0F1AD0089B03EBCB09D9F804300093C4
:1057F00099F8015099F80330AB4215D10BF1FF3302
:10580000EBE7009920460AF037F9237E039A93428A
:105810007FF408AF059B002BDBD0029B002B7FF4AD
:1058200005AF029B637610E705EB4505009A2B0157
:1058300002EB0515D35C012B23D0022B29D16B6819
:105840002A690493D5E902130792049A0593127802
:1058500005986B690693FF2AAB69D4F800A0D0F8CD
:105860000080666902D00868B0421ED0277E0E60B4
:105870004FF00008FF2F1ED1049B1F70059BC3F83B
:1058800000804FF00003AB70AB6A13B1E96A0020EF
:10589000984799F8013099F800200133DBB29A4219
:1058A00008BF002389F80130A2E702EB420212018F
:1058B0001AF80270DEE707EB4706320109920AEB9D
:1058C0000616069AB16962B1B268DDF818C00A938B
:1058D00042443846E0470A9B28B9B2689044099A86
:1058E000E6E70029F9D0079AB36812B10799726AFE
:1058F0000A609844C0E700BFED4301002C4401005A
:10590000233E0100039BFF2B06D102F079FA0546E6
:1059100002F044FA00B96561237E226803EB430379
:1059200002EB03129568002D42D002F069FADFF80D
:10593000AC90DFF8ACA080460A276169A8EB0102B1
:1059400022F07F42954207F1FF3739D90332AA424C
:105950002CBF01EB020B01EB050B2BF07F4BA26A76
:105960005846904702F04CFAA0EB080222F07F4222
:10597000ABEB080B03322BF07F4B5A45064607D89A
:1059800000236376A37E019A1A433FF462AE10E0CF
:1059900067B9144A40F6C1334946504609F002F946
:1059A000404080F311884FF0030002DFB046C4E7A7
:1059B0006576656A23460122032112E4002331E75C
:1059C00001230193DCE7BCF1000F04D0A3EB090332
:1059D0009C457FF6D8AE72441318D2E60147010009
:1059E000233E0100ED430100F8B5089F1C46069BCD
:1059F00010B101263046F8BD134D9DF81C60297288
:105A00002A606C726B60013CE4B2FF2C0FD1002E57
:105A1000EFD1099B2B620A9B6B620B9BAB622C76CE
:105A200002F0EEF96E816861EC76EE61E2E703EB7D
:105A3000C402576013F8341001EB410207EB021760
:105A4000721AD6B2DFE700BFA410002010B4074BD3
:105A50002C2202FB00314C6A34B10B46A4460122D1
:105A600010BC03210220604710BC7047A410002026
:105A70002DE9F041224E04469C462C2304FB03688A
:105A80000846D8F8043003EBC00713F83030FC7830
:105A9000651CEDB2AB4298BF00257B78AB42114646
:105AA0002CD07A6804EB440423014FF0050E02EB7E
:105AB000041402F803E0069BA360079BE360089BC5
:105AC0002361BDF82430A3829DF82830A3759DF88A
:105AD0003430E3750223A3700B9BA3620C9B6170AF
