:10000000C0390020DD22000041CF0000C9220000DD
:10001000C9220000C9220000C9220000000000001F
:10002000000000000000000000000000CD230000E0
:10003000C92200000000000069230000C92200005E
:10004000B925000045DC0000B9250000B9250000F5
:10005000B9250000B9250000B9250000B925000028
:10006000B9250000B9250000B9250000B925000018
:10007000B9250000B9250000B9250000B925000008
:10008000B9250000B9250000B9250000B9250000F8
:10009000B9250000B9250000B9250000B9250000E8
:1000A000B9250000B9250000B9250000B9250000D8
:1000B000B9250000B9250000B9250000B9250000C8
:1000C000B9250000B9250000B9250000B9250000B8
:0C00D000B9250000B9250000B92500008A
:0400DC00FFFFFFFF24
:1000E00053B94AB9002908BF00281CBF4FF0FF319F
:1000F0004FF0FF3000F00CB8ADF1080C6DE904CE04
:1001000000F008F8DDF804E0DDE9022304B07047F0
:10011000704700BF2DE9F04786468C460846089E8A
:10012000154674461946002B40F0C2808542B2FA4B
:1001300082F245D94AB1C2F1200300FA02FC2EFA3C
:1001400003F3954043EA0C0C94404FEA154EA8B2D5
:10015000BCFBFEF8230C0EFB18CC08FB00F943EAAD
:100160000C43994528D9EB1808F1FF3704D299457B
:1001700002D9A8F102072B44A3EB0903A4B2B3FBF5
:10018000FEFC0EFB1C330CFB00F044EA0344A042CF
:1001900014D92C190CF1FF3304D2A04202D9ACF1CE
:1001A00002032C44241A43EA07401EB1D440002322
:1001B00034607360BDE8F0874746DDE76346F1E7EA
:1001C00092BB431B01214FEA154EAFB2B3FBFEFCBD
:1001D000200C0EFB1C330CFB07F840EA0343984548
:1001E00062D9EB180CF1FF3004D2984502D9ACF17A
:1001F00002002B44A3EB0803A4B2B3FBFEFC0EFBEE
:100200001C330CFB07F744EA0344A7424ED92C19D0
:100210000CF1FF3304D2A74202D9ACF102032C4403
:10022000E41B43EA0040C0E7C2F1200320FA03F1D7
:10023000954090402EFA03F303434FEA154EAFB2B8
:10024000B1FBFEFC0EFB1C10190C0CFB07F841EA7D
:100250000041884504FA02F422D969180CF1FF30F4
:1002600004D2884502D9ACF102002944A1EB08016F
:100270009BB2B1FBFEFC0EFB1C110CFB07F743EA23
:1002800001439F420ED9EB180CF1FF3104D29F427B
:1002900002D9ACF102012B44DB1B41EA004192E799
:1002A0006046E3E76146F7E76046A3E76346B7E7E2
:1002B000834206D916B9002108467BE7C6E900E06B
:1002C000F9E7B3FA83F78FB9834201D3724508D8AF
:1002D000BEEB020460EB030301209C461EB9002123
:1002E00068E73846FAE7C6E9004CF8E7C7F1200CA2
:1002F000BB4022FA0CF41C432EFA0CF120FA0CF34A
:10030000B84001434FEA14490EFA07F5B3FBF9F878
:100310001FFA84FE09FB18300B0C08FB0EFA43EAA7
:1003200000439A4502FA07F240D9E31808F1FF307A
:1003300004D29A4502D9A8F102002344A3EB0A0390
:1003400089B2B3FBF9F809FB183308FB0EFE41EA4A
:1003500003418E452CD9611808F1FF3304D28E4534
:1003600002D9A8F10203214443EA0040A0FB02980D
:10037000A1EB0E014145CE46434602D306D14D4581
:1003800004D2B9EB020E68EB04030138002EA6D0AC
:10039000B5EB0E0261EB030101FA0CFC22FA07F344
:1003A0004CEA0303F940C6E9003198E74046C5E747
:1003B0004346D9E7034611F8012B03F8012B002A25
:1003C000F9D17047034613F8012B002AFBD1181A04
:1003D00001387047000000002DE9F0438DB020B9CE
:1003E0000DB0BDE8F04305F0BBBE4D4C94F83E3077
:1003F000DA0700F18C8094F8253004EB83039D6AC2
:1004000094F8313004EB83035F6B95B12E4616F8F8
:10041000020BC0F3801004F0FFFC0368C5F8023043
:100420008388B3802B785B0614D43D4839460DF0A1
:100430002AFB94F820300121C3F302030DF12B00B5
:100440008DF82B300CF07BFF024658B90C200DB014
:10045000BDE8F083062130460CF045FF0028E4D1CA
:100460001220F4E7797828460DF0C7FA00253123E9
:100470002C492570C4E902352B4B6560A0FB0101B6
:10048000C01841F1070124A3D3E90023C4E90555AD
:10049000FFF726FEA68F20610DF027FA2369234A75
:1004A00003F2471111600992214A00F10907CDE9D1
:1004B00006422048204A4FF0910CCDE90432A6FBB9
:1004C00000014FF6FF73CDE902534FF0020912A36A
:1004D000D3E900230DF12C080CFB0611CDF82C906C
:1004E000CDF82080FFF7FCFD0321CDE900503B460D
:1004F0004A4628460DF0BFF9414604F0B7FD0028F2
:10050000A4D194F83E3043F0010384F83E3000203B
:100510009DE700BFAFF300808D49FD1A0700000082
:10052000C015002000CA9A3B8C49FD1AB415002062
:10053000954E0000002AE784495F0000000000009B
:1005400070B590F820308AB0C3F302030D4604461C
:1005500001210DF1230016468DF823300CF0EFFE3B
:100560007178024628460DF048FA1D49A0FB01317A
:100570001C48181841F1070117A3D3E90023FFF71E
:10058000AFFD216905468D421ED2481B0021164A47
:10059000A21A0223920909931A44144B059309AE37
:1005A0000023CDE90110CDE9033303210696009322
:1005B000D2B218460DF081F9314604F057FD38B932
:1005C000256100200AB070BDFBD9691A0020DEE762
:1005D0000C20F7E7AFF300808D49FD1A07000000FB
:1005E00000CA9A3B8C49FD1AC0150020954E0000A8
:1005F000F7B50546C46806F0B7FD002006F004FE16
:100600000021084606F0F2FD00222521082006F010
:1006100031FE354B019301A806F014FE334940F238
:100620005B6006F0A5FE2379C3F3020262F3C50303
:100630002371204606F09EFB27682E6838460DF091
:1006400024FB06446A6806F10901012006F0CAFF8E
:1006500007F058F8204605F06DFD811C3246C9B2FE
:1006600038460DF020FB054630B3214A2149224887
:1006700040F214430BF0CDFF20480726A5FB0001F4
:1006800017A3D3E9002306FB0511FFF729FD1C4939
:1006900002461C480BF0BDFF404080F311884FF02C
:1006A000030002DF1848214606F03EFD06F01EFE5C
:1006B0006FF08B0003B0F0BD20460DF0E4FA08B9EE
:1006C0000020F7E70A4A11490B4840F22C430BF08F
:1006D000A0FF404080F311884FF0030002DFEFE7F6
:1006E00000CA9A3B00000000D6BE898E55555500C1
:1006F000FB110100CD130100BA0601008D49FD1A5E
:10070000991201006F12010005DD0000D70D0100F4
:1007100070B5064688B030B10146104808B0BDE853
:1007200070400BF069BF0E4D0E480BF065FF0FCD0A
:1007300003AC0FC42B6823600B490096334602229A
:1007400003A803F09BFC014620B108480BF054FFBE
:1007500008B070BD06480BF04FFFF9E770FE0000CF
:1007600010FA000090FE000078FA0000A7FE0000DA
:10077000CDFE000008B506480BF03EFF054803F02B
:1007800001F8014610B104480BF036FF002008BD07
:10079000DEFE00001107000070FE00002DE9F04FA2
:1007A00091B08407009302F004030293C2F3C203E2
:1007B00003F10103DDF86890039205460E460593A8
:1007C00040F0BA81041D30B1072909D86FF01B0031
:1007D00011B0BDE8F08F01F00706341DC6F1080620
:1007E000009B4FF00008591E4FF0040A4FF0FF33F2
:1007F0000193CDF810804746C34653460DB1009A89
:1008000022600598002800F3E8809848009A824208
:1008100003D397488242C0F0E080039AA4EB050E10
:1008200092074FEA9E0000F103810F2F00F2B18082
:10083000002D00F0058107F140020DEB020C019A3A
:100840000CF8200C0CF8102C049801300490E7E010
:100850007A285DD84B280ED8472859D829282DD872
:10086000252852D054D820287AD02338D0F1000B34
:100870004BEB000B74E04C382E2849D8DFE800F031
:100880007048484848484848484848484B484848BD
:10089000484848484859484B4B595959704B6D483E
:1008A0007048184B184848827F4B48484B487F0097
:1008B00000204FF0000B4FF0040A38E02A38C0B295
:1008C000012202FA00F010EA0E0F49D110F0625C2A
:1008D0002FD110EA020B43D06046013C5444B4FBD4
:1008E000FAF40AFB04F4002D61D0A3EB050CA44438
:1008F000B4453FF66BAF002868D1042B47D159F8B7
:10090000043B2360043404232AE0019A013A019253
:100910004FF0000B24E011F8010C6C2834D111F8D1
:10092000023C00206C2B8346C5D14FF0080A534689
:10093000D3E709F1070929F007090734F9E802AB01
:1009400024F0070435B106982044B0423FF63EAF8C
:10095000C4E900AB08344FF0000B4FF0080A5346CF
:1009600011F8010F002878D0BBF1000F7FF470AFB1
:100970002528F5D1019B013301934FF0010B4FF076
:10098000040AECE7584694E700208346A5E7082BC5
:1009900002D06FF015001BE709F1070929F00709DC
:1009A000F9E80223C4E9002308340823D8E768B92A
:1009B000042B02D109F10409A4E7082BE9D109F1BC
:1009C000070929F0070909F10809EDE7059A013A35
:1009D000059259F8042B009210E7039A900720D54E
:1009E000A4EB050E4FEA9E004FF0010CBEF5007F10
:1009F000CFD20F2FCDD8F5B107F140020DEB020E8B
:100A0000C0B2019A0EF8200C0EF8102CBCF1000FA9
:100A10003FF41AAF60F07F000EF8200C08F10108D7
:100A20000137C5F10802043406924FF6DA7E97E7E3
:100A30004FF0000CDAE7BCF1000F01D00136EFE710
:100A4000029802360028EBD10098CDE90631FFF775
:100A5000B9FCDDE906310644E2E7631BB3F5806FBC
:100A600097D23DB9A6F10804E018B1E6A0F600005F
:100A7000E4170100029A28609B082B709DF8103043
:100A8000C2B1EB7085F80280B8F1000F05D008A85C
:100A90000022C5F1010C97420ED1C5F101030DF101
:100AA00020094FF0000A01930DF1300B574512D188
:100AB000601B8DE66B70E5E710F8013B190608D561
:100AC00004EB0C0EB64503F07F033FF67FAE04F84F
:100AD000013B0132DFE7B8F1000F03D099F90020A4
:100AE000002A17DB029BD3B11AF80B2004F8012B64
:100AF0000022019B98182044B0423FF667AE99F857
:100B0000000004F8010B0099039220460EF0A0FDAE
:100B1000039A14440AF1010A09F10109C6E799F898
:100B2000002055F822300093029B45F822300098AF
:100B3000FFF748FC421CDCE76FF00D0048E600BF01
:100B40002DE9F04F97B000AF90F802A0D7F880B031
:100B50003B62CBF3C0030446FA62BB61894641B9EC
:100B6000457800780AEB800020444D4517D8A0EB6B
:100B70000409E378FB61BAF1000F02D01BF0010F0A
:100B800016D1FB6953BBFB6A1BB13A6A4946204642
:100B900098474D4628465C37BD46BDE8F08F461C59
:100BA0003046FFF70FFC0130304409F10109DCE762
:100BB000237862687A62FA6A9900796104EB8301AA
:100BC000002A40F000814D460E4601EB0A094FF025
:100BD00000084E454CD101EB0A0610E01BF0020F55
:100BE000D1D023789A007A6162687A62FA6A04EB5B
:100BF0008301002A77D14D4601EB0A0690461BF08F
:100C0000050F0CBF02230123FB62FB6906EB430ABD
:100C10000BF00203BB625645BCD016F8021B16F857
:100C2000013C54F82390AF4B994502D3AE4B994504
:100C300036D3BB69002B40D0786A0BF0B4FC002897
:100C40003BD0E9468AB06A46A84B53617B6AC2E949
:100C500006314FF400731384A54B42F8103FA548AA
:100C600000234FF4125100F013FD023DCD46D2E7B0
:100C700016F8013BF96254F82300FFF7A3FBD7F8FD
:100C80008430F96A01304BB1D7F8883098453EBFBF
:100C9000D7F8843023F8180008F10108054498E7D4
:100CA000BB6923B1786A0BF07EFC0028C9D11BF028
:100CB000010F05D1FB6AED1AADE7BB6A002BAAD084
:100CC0004846FFF77FFBD7F8843053B1D7F8883018
:100CD00098453FBFD7F88420431C22F8183008F10C
:100CE0000108054497E7BAF1000F72D01BF0040623
:100CF00072D0D046002607F1480052463B61B962E7
:100D00000EF0A6FCB96A3B6901EB0A02BA62FA6905
:100D1000F9695200FA60BA6A02EB41023A610BF0DB
:100D20000202BA603A69B96A8A4257D162787A6235
:100D30001BF0020F32440CBF4FEA580100211BF098
:100D4000010FD2B240F09F801BF0040F14BF404649
:100D50000020BB616270A070E1703A6A7969FB6A39
:100D600020469847051EFFF615AFBB6923707B6AC6
:100D70006370FB69E37041463A6AFB6A84F802A03B
:100D800007F148009847B0F10008C0F2B5807B69D0
:100D90003A6AA9EB0A01C91AFB68C91AD7E90A031A
:100DA00098470028C0F2AA80A84408EB00054FF03D
:100DB000000B07F1380AB34567D300213A6AFB6A92
:100DC00008469847E6E656464FF0000807F1380017
:100DD00093E75646D04697E7B04695E7BA6A12F8C9
:100DE000021BBA6212F8015C3E4A54F82500904298
:100DF00002D33D4A90421ED3BA6932B1786A7B6011
:100E00000BF0D1FB7B6800288CD1BA6802BB08F1DB
:100E1000280207F1300C08F10100944407F1580250
:100E200052FA80F008F102080CF8101C5FFA88F8FA
:100E300000F8105C76E7BA693AB1786A7B600BF02B
:100E4000B2FB7B6800287FF46DAF1BF0010F09D067
:100E500006F1280207F13000711C161806F8205C14
:100E6000CEB25FE71BF0040F3FF45CAF08F128023D
:100E700007F1300008F1010102EB000808F8105CEE
:100E80005FFA81F84EE7002063E71BF80A3087F825
:100E9000373054F82390D7F88430FBB133F81B80F7
:100EA0003A6AFB6A012107F137009847002825DBE1
:100EB0000544B8F1000F06D14846FFF783FA00F168
:100EC00001081FFA88F83A6AFB6A41464846984783
:100ED000002813DB05440BF1010B6CE7D7F8848085
:100EE000DEE700BFA0F60000E4170100F5FE0000F9
:100EF0000400000178F9000045464BE6054649E646
:100F0000014B1860704700BF2001002080B50546E6
:100F10000E46174698460AF015F903460EF0B6FB42
:100F2000DFF81890044649F800304246304639460A
:100F3000A84754F8090001F0E9F900BF08000000D3
:100F40002DE9F047058B04462807904611D4022965
:100F500005F0070540F0CD8020460BF0BBFD78B1D1
:100F60000138218B042811D8DFE800F0C3106D850B
:100F7000950001290CBF45F0100545F0200525839B
:100F800088F31188BFF36F8FBDE8F08701F0070A7F
:100F9000AA4500F0A6800027B9463E46A368002B6C
:100FA00000F0BD8041F00801218388F31188BFF370
:100FB0006F8FA168002900F0BB800D68002900F048
:100FC000B780D1F80480334652462046C047002DF2
:100FD00076D02B6829461D46F0E701F007035A1F1B
:100FE000012A1BD8002221F00701062B276889B2AD
:100FF000C4E9002209D13B4603E0628B01326283DF
:101000001B68002BF9D141F00201218320460BF02F
:1010100061FD00287BD041F0200177E0042B0AD14C
:1010200021F0070189B2218320460BF053FD10B156
:1010300041F020012183218B01F0070AAA4550D0FD
:101040000027B946AAE7236921F0070141F006010C
:10105000062DD3F8009021832DD1B9F1000F40D097
:1010600041F00801218388F31188BFF36F8F3A495B
:101070002046C84729E021F00701236941F0040117
:1010800089B2042DD3F804902183E6D000273E4690
:101090004FF0040A82E721F00701236941F00501BE
:1010A00089B2052DD3F808902183D6D000273E467B
:1010B0004FF0050A72E700273E464FF0060A6DE73B
:1010C0002B4687E7B9F1000FD1D14FF02003EFF3A2
:1010D000118883F31288BFF36F8F238B23F00803EB
:1010E0002383258BEA062ED525F01003238305F0F4
:1010F00007056669218B002EBFF66FAF00232768B6
:10110000C4E9003321F0070141F001012183218B63
:1011100001F0070AAA454FF000097FF43FAF002F06
:101120009BD041F00801218388F31188BFF36F8FB2
:10113000002FC7D03D6839463346524620460BF053
:10114000F5FC2F46F4E7AB067FF51AAF25F0200338
:10115000238305F00705FFE659CB00002DE9F04792
:10116000DFF85880044607464FF0010914B93846A5
:10117000BDE8F08794FAA4F5B5FA85F509FA05F308
:101180002E0108EB05156FEA030A24EA03042B7B02
:10119000002BEBD058F806301B694BB946440422AB
:1011A00073682846196807EA0A0700F05DFADDE768
:1011B000284698470028D9D1F0E700BFF0F9000091
:1011C00030B51049104889B000220EF058F80F4D84
:1011D0000F4900220023CDE9062300240E23CDE988
:1011E0000334CDE901440B4B00944FF44072284680
:1011F00009F05EFC084928460DF000FD204609B0C4
:1012000030BD00BF1D120000F8080020700400204F
:10121000801E00200D150000A9FF000001480AF003
:1012200093B800BFD40300202DE9F04780461F4843
:101230000F460BF071FD0646002830D000252846E9
:10124000BDE8F087237B73B12368DB680BB12046D0
:10125000984723681B69D3B963680422196820463C
:1012600000F002FA013610344C45EBD3B8F1000F10
:10127000E5D0002DE2D02846FFF770FF0546002F8D
:10128000F7D000214FF4A47009F03EFFF1E72046AB
:1012900098470028E0D00AFA06F31D43E2E7044C21
:1012A000DFF8109005464FF0010ADDE7A00C0020A2
:1012B000F0F9000010FA0000014B53F820007047CD
:1012C0009CFA000008B5034608462BB1044A136097
:1012D00000F096FC002008BD6FF01500FBE700BF92
:1012E0002401002010B5044C237813B903480AF0F8
:1012F0002BF80123237010BD7A190020D40300209D
:1013000010B5044608480BF007FD5CB1BFF35B8FD6
:10131000064B53E8001F013943E80012002AF8D1B8
:10132000BFF35B8F10BD00BF980C00209C0C002009
:101330000020064BBFF35B8F014653E8000F43E8E4
:101340000012002AF9D1BFF35B8F7047980C002080
:1013500070B5FFF7EDFF084C084E0546B44200D3C8
:1013600070BD63685B792BB123685B6813B1294654
:10137000204698471034F1E7F0F9000010FA000019
:1013800010B5044C044920460BF04AFA034B1C608C
:1013900010BD00BF7C03002088FA0000900C0020E4
:1013A000084A094808B500231370084A1360084A20
:1013B0004FF400411360FFF785FFBDE80840FFF7D9
:1013C000DFBF00BF7B19002015CD0000980C002066
:1013D0009C0C002001460022014800230BF041BA7A
:1013E0007C03002001480BF0DABA00BF7C03002028
:1013F000024B014618680BF024BB00BF900C002084
:1014000001480BF05ABB00BF7C03002070B5284B8D
:10141000187800284BD0FFF7E5FF054690B1BFF3E1
:101420005B8F244B53E8001F013943E80012002A68
:10143000F8D1BFF35B8F204C204EB4422DD3284609
:10144000FFF7D6FF1E4B1F4C1B68002B19DD0DF05C
:10145000CFFE4FF47A72A0FB020302FB0131C30BF3
:10146000D4E9002043EA41439B1A4FEAD13140F2CC
:10147000E93261EB0001934271F1000101D3FFF702
:1014800067FFD4E9003213F57A7342F10002C4E930
:101490000032BDE87040FFF7B3BF63685B7923B1EA
:1014A000236829461B68204698471034C5E770BD5D
:1014B0007A1900209C0C0020F0F9000010FA0000BE
:1014C000980C0020F008002070B50D4D297861B906
:1014D0000120FFF7A9FE0B4C0B4EB44206D3FFF7D9
:1014E00095FF0028FBD101232B7070BD63685B79E9
:1014F0001BB1236820469B6898471034EDE700BF76
:101500007B190020F0F9000010FA000000212DE9FD
:10151000F0470846FFF788FE044658B340F2676874
:101520004FF000090EF0B2F81B4B1C4A1B58136019
:1015300033B11B4B1B68092B02DD1A4809F004FF6D
:10154000194FDFF860A0002544B12046FFF706FEE2
:10155000044618B94FF0FF384FF0FF39FFF756FF38
:10156000064628B9B5B942464B46504609F012FF27
:101570003546E9E74FF0FF384FF0FF39D2E72B68E7
:101580009B691BB100221146284698471035BD4281
:10159000F5D3E8E7054DFAE708000000940C0020B9
:1015A0009C0C0020D403002010FA0000F0F9000089
:1015B00013B518480BF0B0FB174B1B787BB14FF0FD
:1015C0002003EFF3118483F31288BFF36F8FFFF7CB
:1015D0001DFF84F31188BFF36F8F02B010BD0F4B56
:1015E0001B68002BF9D050B900220023CDE900235D
:1015F0000B484FF4004200230AF052FAEDE70928A5
:10160000EBD107480DF047FE064802B0BDE8104098
:1016100009F09ABE9C0C00207B190020940C00203D
:10162000F8080020D403002010B5064B1B680446C0
:1016300098472146A06004480BF091F9BDE810409E
:10164000FFF7B6BF240100207C030020044A054BAD
:101650009B1AB1EBD30F34BF52F831000020704712
:1016600040F90000F0F90000084BC31A10B41B1138
:1016700044680133237143689A7143681960436871
:1016800001225A7110BCFFF72DBE00BFF0F9000017
:101690002DE9F04F8FB004AFC1F34A28B8600D4672
:1016A00091467B600C0DB8F1000F63D0002607F166
:1016B00014034FF0040B4FF00A0AC7F80C80C7E977
:1016C00007667E620193CDF808B0CDF800A007F15F
:1016D0001C03F96832464846FFF732FAB0F5006F4E
:1016E00003461CD36C468AB0D9F8041004AB2648D4
:1016F000C3E9050140F2FF71D9611A464FF4007148
:101700001984224B42F8103F214833464FF41251BE
:10171000FFF7BEFFA5462C37BD46BDE8F08FC0F3EE
:101720000A0804F11700184420F0070080083B6005
:10173000FFF750FE68F35325044690B13B68154A05
:10174000C7E9083600F1100107F11403F961CDE98A
:1017500000A3CDF808B0F96807F11C034846FFF76D
:10176000EFF968F353257B68B9682A4620460BF0E9
:1017700009FBD0E704F1170020F007008008FFF70D
:1017800029FE0446EDE700BFBEFF00000400000193
:1017900098F9000059CD00002DE9F04F87B0DDE940
:1017A0001269DDE9105A04460F4693469846A6B3DF
:1017B0001021CDF80090334652460020CDF8149009
:1017C000FEF7ECFF014605F117000844144B0391A6
:1017D00004F007040BF0070BE40020F0070003EA15
:1017E000412344EA8B1480081C43FFF7F3FD44EACD
:1017F0000554054640B13EB10399CDF800903346FB
:1018000052461030FEF7CAFF434622463946284664
:1018100007B0BDE8F04F0BF0B5BA3146D3E700BFD3
:1018200000FE0F000EB403B503AB014653F8042BC2
:101830000448019301F05EF802B05DF804EB03B0D8
:10184000704700BF97CE0000CA0605D48B064CBF78
:1018500002490349FFF7E6BF704700BFFEFF0000E3
:10186000FDFF00002DE9F04F89B09B46149B0693C5
:101870009DF84CA0159B0593169B179E0493044658
:101880000D469046BAF1000F00F09D8006F480737B
:1018900007930BF05FFA06F00209024600283ED0DB
:1018A00091492046FFF7BEFF0746B9F1000F08D067
:1018B00016F0440F35D18D492A462046FFF7B2FF76
:1018C000074406F0010353B1894B8A4953F82A2093
:1018D000894B2046002A08BF1A46FFF7A3FF06F4EB
:1018E0008073002B49D006F00803002B63D1B8F1B8
:1018F000000F66D0814942462046FFF793FF054618
:10190000069B3D44002B6DD1049B002B73D1F30744
:1019100000F1E48031462046FFF796FFD8E0074605
:10192000C3E7774B18680028CAD0764B4FF47A7912
:101930001B68B5FBF3F54FF46161B5FBF0F300FBF9
:10194000135509FB05F54FF03C0CB3FBF1F201FB1D
:101950001231B5FBF0FEB1FBFCF300FB1E550CFB96
:10196000131109FB05F50091B5FBF0F56649CDE9CA
:1019700001E52046FFF756FFA2E706F00803EBB1AA
:10198000624B634953F82A202046FFF74BFF054678
:10199000B8F1000F05D0594942462046FFF742FFF3
:1019A0000544BBF1000FABD05A495A462046FFF719
:1019B00039FF0544A4E74FF0000BE1E706F0080506
:1019C000E6E745469CE7BBF1010F069B06D1002BDD
:1019D00064D1049B002B7BD000250CE0002BF8D0B9
:1019E0004D485CE04D48069B4D4922460AF0AAFD51
:1019F000049B002B68D0DFF82C81DFF82C91049F2A
:101A00003146102F204628BF1027FFF71DFF4FF04B
:101A1000000B5D4545DC059B49461A782046FFF7DB
:101A200001FF4FF0010B1BF0070F03D14146204689
:101A3000FFF7F8FE5F453BD9059B494613F80B209D
:101A40002046FFF7EFFE0BF1010BBBF1100FEAD1BF
:101A5000364920464FF0000BFFF7E4FE5A46059B3F
:101A60009A5CA2F120015F2928BF2E22304920462E
:101A7000FFF7D8FE0BF1010BBBF1100F1DD01BF0CF
:101A8000070F03D141462046FFF7CCFE5F455A467B
:101A9000E5D841462046FFF7C5FEEBE71F4855460F
:101AA000A1E741462046FFF7BDFE0BF1010BB0E771
:101AB00020492046FFF7B6FEC5E7059B3B4405934A
:101AC000049BDB1B04939AD1BAF1000F7FF41FAF84
:101AD000204609B0BDE8F04F0BF0D0B9064A0549E1
:101AE0002046FFF79FFE15E70500010009000100F1
:101AF000ACFA000038090100000001002E000100CE
:101B0000A80C0020A40C002012000100C0FA000064
:101B10003200010038000100CDCE000097CE000059
:101B2000F5280000450001003D00010047000100CC
:101B300049000100430001002DE9F0410F884B6886
:101B40008E6886B005460C469046C7F382175BB197
:101B5000144A9B1A43F3CF01002920DB2078C0F3FD
:101B6000C200FFF773FD03462146608851F8102B31
:101B70000197C2F34A22002A01EB0204C0F30B10C2
:101B800008BF00210022CDE90408CDE9021400922B
:101B900031462846FFF766FE06B0BDE8F081002317
:101BA000E2E700BF40F9000073B542F20F738B42C9
:101BB00028BF0B4605680F4A0446052168460AF00F
:101BC0006DF863680C495B6806460B2228460BF0EB
:101BD00048F963683246694628465B680BF041F96C
:101BE000636806495B681B2228460BF03AF902B08D
:101BF00070BD00BFEE0E0100680001004C00010046
:101C0000074A00210123904206D8064A01B9012360
:101C10001360054B1860704740085B000121F2E734
:101C200040420F00A40C0020A80C0020014B012210
:101C30001A7070477C190020014B00201960704712
:101C4000C00C0020024B034801221A700BF016B999
:101C50007D190020F0FA00000148FFF7A5BF00BF82
:101C6000F0FA000010B5064B18680C46FFF724FB8D
:101C700021460346BDE8104002480F22184700BF26
:101C8000C00C0020F0FA000010B9074B1870704724
:101C9000064B1B781BB141F288300CF024BFA42006
:101CA000002109F031BA00BF7C1900207D19002005
:101CB0002DE9F843DFF874901D4F80460E4604244A
:101CC00099F8005095B908F0BFFC284632464146C5
:101CD00008F06CFC054608F0C1FCE5B101233B703F
:101CE00099F8003073B93046BDE8F8833246414672
:101CF000002008F05BFC0546EFE72046FFF7C4FF35
:101D0000651E2C46002008F095FC0028EBD03B789F
:101D1000002BF2D1E7E73B78002BE4D0013C2046D2
:101D2000FFF7B2FF3B78002BCAD1DCE77D1900201A
:101D30007C190020F8B5074F0D4604464618B442FA
:101D400001D12846F8BD14F8011BBB6801485B6847
:101D50009847F4E790F70000014B036000207047BC
:101D600034FB00002DE9F047804600AF0C46002907
:101D700036D0E9468AB0D1E90012A3686D461C4806
:101D80002E464FF0050AC5E90501C5E9072346F8C7
:101D900010AF1848324600234FF42151FFF778FC6A
:101DA000CD46D4E903126369AD461348C5F810A0C7
:101DB000C5E90501C5E907230E48002332464FF463
:101DC0002151FFF765FCCD46E3690C4A0948012122
:101DD0000BF031F8A3690A4A064801210BF02BF8F1
:101DE0002146404608F050FCBD46BDE8F08700BFE4
:101DF000BA000100C8F90000E90001001801010063
:101E00002701010030BFFFF7FDBF00BF2DE9F04102
:101E10000B4EDFF8308006EB0807CC1B0546324638
:101E2000094920460DF014FCA01942460021083C47
:101E30000DF01CFC6C6707F10800BDE8F08100BFE5
:101E4000000000000400000010FA0000044B996834
:101E50005869884203D003494FF080520A607047A6
:101E60004019002004ED00E070B5294C06460D46EF
:101E7000284829490BF06BF8A36AD9043CD52548BA
:101E800026490BF064F81720A36A1A0504D52148E7
:101E900023490BF05CF818201D4CA36A9B0512D552
:101EA0001C4820490BF053F8A36BA26A100409D513
:101EB0001D4A184801210AF0BEFF1EB1A36A23F48F
:101EC0000043A3621920124CA36A590504D5114896
:101ED00016490BF03CF81A20A36ADA050ED50D4816
:101EE00013490BF034F81B20094A936A43F47F43EB
:101EF000936200232B7070BD1620C5E7A36A9B0474
:101F0000F2D504480B490BF022F81C20ECE700BF87
:101F100000ED00E0C8F90000550101006B0101006F
:101F20007C0101008F010100A8010100BD01010039
:101F3000D8010100F001010010B5204C20492148D2
:101F40000BF005F8A36A990136D51E481E490AF020
:101F5000FEFF1E20A36ADA0104D51A481B490AF0C5
:101F6000F6FF1F20154CA36A1B0304D5154818491A
:101F70000AF0EDFF2120A36A590304D51148154941
:101F80000AF0E5FF22200D4CA36A9A0304D50D4800
:101F900011490AF0DCFF2320A36ADB0304D50948BA
:101FA0000E490AF0D4FF2420044A936A6FEA0343DF
:101FB0006FEA1343936210BD1D20CBE700ED00E0F4
:101FC0001F020100C8F90000370201004A020100A7
:101FD0006402010082020100A7020100C1020100A7
:101FE0002DE9F843364D804689463648364917462E
:101FF0000AF0ADFFAB6ADE0627D5344931480AF056
:10200000A6FF1124AB6A1D0704D531492D480AF0FB
:102010009EFF12242A4DAB6A980718D52D492948EE
:102020000AF095FF6E6BAB6A190646D52A4A254819
:10203000334601210AF0FFFEB9F1000F03D0AB6A6D
:1020400023F08003AB62132403E01024DAE76FF07F
:1020500015061B4DAB6ADA0704D5204919480AF06A
:1020600076FF1424AB6A9B0604D51D4915480AF077
:102070006EFF1524124B9A6AD50602D49A6A90070D
:102080000AD55B68190507D54146304600F036FA97
:1020900010B180F309880224094B9A6A920642BF64
:1020A0005A6A22F400525A629A6A42F0FF029A6215
:1020B00000233B702046BDE8F8836FF01506C2E7A9
:1020C00000ED00E0C8F90000EC020100020301008D
:1020D0007C010100350301004D0301006303010091
:1020E000F00101002DE9F041664B8AB0D3F804807D
:1020F00000AF0446C8F30805002686F31188BFF335
:102100006F8F02F07F43B3F17F4F07D102F00C03D2
:10211000082B12D15C495D480AF019FF00263446AD
:102120000023FB71EB1E092B00F28A80DFE803F02D
:102130000A80837D88888888888610074CBF0C4673
:102140000126EDE7524951484E4D0AF000FF0023A9
:10215000FB71EB6A9A0705D54E494C480AF0F7FE29
:10216000002333E0EB6A002B01DA4B49F5E7EB6A19
:102170005B00F5D5494945480AF0E9FE6B69A2695B
:1021800043F480736B61BFF34F8FBFF36F8F6B6945
:1021900032F8022C23F480736B61BFF34F8FBFF3CF
:1021A0006F8F4DF602739A4209D0AB6ADBB27BB3F4
:1021B000FA1D01212046FFF713FF034606E02368BE
:1021C000374A324801210AF036FE2368FA79DAB933
:1021D00007F1080504F1200C206861682A4603C253
:1021E000083464451546F7D17A6A002E44D0C2F30C
:1021F000080121B96FEA52226FEA42227A6207F19E
:1022000008011846FFF7AEFD2837BD46BDE8F0814E
:10221000AB6A13F47F4F04D0F91D0120FFF724FEB1
:10222000CBE7AB6AB3F5803F9AD3FFF785FEC4E7EF
:10223000FA1D0021BEE7F91D0020EFE719498CE7E0
:10224000194A1A4B18F4F87FE8468AB018BF1346AB
:102250006A461749C2E905134FF400731384103D11
:10226000144BD56142F8103F084800234FF4115138
:10227000FFF70EFAC54673E722F4FF7222F001025F
:10228000BCE700BF00ED00E0B0030100C8F90000AA
:10229000DB030100F203010013040100210401002B
:1022A000400401005C040100970301008203010067
:1022B0008004010004000001024A536943F0100346
:1022C0005361704700ED00E0EFF30880EFF3098100
:1022D00001B57246FFF706FF01BD00BF00F04AFBE3
:1022E000202080F3118808484FF40461401880F3DF
:1022F0000988EFF314800221084380F31488BFF3A8
:102300006F8F00F0BBF80000002C0020084B9B688A
:1023100083420BD1EFF3058343B1064B5A6842F079
:1023200080525A605A6A22F400425A620CF06FBD21
:102330004019002000ED00E0094A93686FF00A019F
:10234000D967084998674B6843F080534B60002376
:1023500083F31188BFF36F8F9368D86F704700BF06
:102360004019002000ED00E015498A684FF0300068
:102370001044EFF3098C80E8F01F202080F31288CE
:10238000BFF36F8F0F4F4FF000664A698A603E605F
:102390004FF07404141920680B4C2060906F0023D8
:1023A000936780F3118804B5104600F025F9BDE865
:1023B000044002F1300090E8F01F8CF30988704768
:1023C0004019002004ED00E0F00C00201EF0040F86
:1023D0000CBFEFF30880EFF30980816911F8021C4C
:1023E0000229FFD001B50AF0A7FD01BD40B20028C7
:1023F00007DB044A4109012300F01F00834042F833
:102400002130704700E100E040B200280CDB4309B6
:10241000064900F01F0020330122824041F82320AA
:10242000BFF34F8FBFF36F8F704700BF00E100E035
:10243000054B420900F01F0053F82220012303FA44
:1024400000F01040704700BF00E100E040B20028FB
:10245000A8BF00F1604001F10101B8BF064B4FEA8F
:102460004111ACBF00F5614000F00F00C9B2B4BF2C
:10247000195480F80013704714ED00E00F4A08B5B6
:102480000F4B22F07F029A60BFF34F8FBFF36F8F25
:10249000D3F8882022F47002C3F88820EFF3148365
:1024A00023F0040383F31488BFF36F8F08F0E4F97B
:1024B00009F02AF900F074F808F030FA0000000082
:1024C00000ED00E042F8203C009B42F81C3C0A4929
:1024D000019B42F8183C029B42F8143C21F0010198
:1024E0004FF0807342F8043C42F8081C0023203A65
:1024F00002658367704700BF0D0F0000094A03465D
:10250000906870B113F1160F406E05D0A0F1400233
:102510009A4205D8834203D2814228BF00207047E7
:10252000002070474019002008B514460A4A0B4B9A
:102530009060426F1A600D4600F05EF8204685F309
:102540000988002163B681F31188BFF36F8F0022E1
:102550000023FEF7DBFC00BF40190020F00C002038
:10256000014910220A60704710ED00E072B6404049
:1025700080F31188BFF36F8FBFF34F8F30BF62B608
:10258000BFF36F8F704700BF72B6494081F3118867
:10259000BFF34F8F20BF80F3118862B6704700BF32
:1025A000044800232021C2180133272B82F800138E
:1025B000F9D1704700E100E001B5EFF30580A0F12B
:1025C00010004FEAC0000449014409C99847BDE81A
:1025D000014002490847000008F800004D1E0000B5
:1025E000024B034A0348012100F08AB80000012091
:1025F0000000002034FB0000426E054B403A1A6098
:10260000044A4021C3E901121846012100F082B8B2
:10261000F40C002000000B1508B503461048D0F854
:102620009020C2F30722013A934207D90D480E4A7F
:1026300001210AF000FC6FF0150008BDC0F89830C9
:102640000A6822F01F021A4342F01002C0F89C20D0
:102650008A6842F00102C0F8A0201846EDE700BFEA
:1026600000ED00E0B0F9000097040100F0B50E465F
:1026700085B01F4604460025B5420DDA606810B3E8
:1026800097B1431E18420AD0104A11482B46012127
:102690000AF0D1FB6FF01502104605B0F0BD1F28FF
:1026A000F2D921680B42EFD1236801930AF057FC5D
:1026B000A36801A90343D0B20393FFF7ADFF10F164
:1026C000160FE7D0421C01350C34D5E7BD040100DC
:1026D000B0F90000044B0522C3F89420BFF34F8FDC
:1026E000BFF36F8F704700BF00ED00E0BFF35F8F57
:1026F000024B0022C3F89420704700BF00ED00E0B9
:1027000010B5034C01232278FFF7B0FF207010BDF5
:102710008F19002008B50B4A00231278FFF7A6FF97
:1027200010F1160F07D0084A0021D2F89030C3F3F9
:102730000723984200DB08BDC2F89800C2F8A01039
:102740000130F2E78F19002000ED00E0F0B55948A4
:102750005949D0F890300D68C3F307239D4285B0E6
:1027600000F2A580FFF7C2FF49680022954201F1FF
:102770000C0117D1514C524F25706846FFF7ECFA07
:1027800000250646AE4220D123784A490020D1F8E0
:102790009020C2F307229342C0F28380FFF79AFF92
:1027A00000202DE0C0F8982051F80C3C23F01F03C6
:1027B000134343F01003C0F89C3051F8043C43F03D
:1027C0000103C0F8A0300132D0E7009800EB0511FA
:1027D0004FEA051CCB683B40B3F5000F4FD011D832
:1027E000B3F5001F35D0B3F5800F3DD0B3F5801F92
:1027F00017D0344A344801210AF014FB6FF0150059
:1028000005B0F0BDB3F1807F42D0B3F1007FF0D1CD
:1028100050F80C3088684A680AF0A1FB40F4802028
:1028200009E050F80C3088684A680AF098FB40F0DC
:10283000885040F43020039001A92078CDE901238D
:10284000FFF7EAFE0028D9DB237801332370013536
:1028500098E750F80C3088684A680AF080FB40F02E
:10286000885040F40020E6E750F80C3088684A6849
:102870000AF075FB40F0E06040F40030DBE750F810
:102880000C3088684A680AF06AFB40F08270D2E730
:1028900050F80C3088684A680AF061FB40F0887094
:1028A000C9E7C1F89830C1F8A00001336FE74FF0D5
:1028B000FF30A5E700ED00E040FB00008F1900208D
:1028C0000000F0FFE0040100B0F9000008B5024B81
:1028D0001B689847002008BD000D0020034B044AE8
:1028E0001860937843F0020393707047000D002046
:1028F00030010020F0B587B007460E46144600218F
:10290000102268461D460CF0B1FE02238DF80230FD
:102910002A46054B019321466846CDE9047609F025
:10292000E9F907B0F0BD00BF7FCF000008B5064948
:10293000064821F00701C1F1005202F5803209F08A
:10294000C4FD002008BD00BF0F410020040D002081
:10295000024B0122C3F840250020704700E00140EF
:1029600020B1034B800143F001031847704700BFBB
:1029700070FA000006F034BC08B504480CF0B8F852
:1029800000280CBF6FF01200002008BD68F700009F
:102990000E4B402970B528BF40210D4C46181D46EE
:1029A000B04203F1020304D1002305F811300748B7
:1029B00070BD02781209A25C03F8022C10F8012BFA
:1029C00002F00F02A25C03F8012CE9E7AE19002027
:1029D0006D05010030B503788BB0044607AD032BBD
:1029E00021D8DFE803F0021A1C1E12492846FDF721
:1029F000E1FC059563780493A3780393E37802934D
:102A00002379019363790093A3790B4A0B481E2124
:102A100009F044F909480BB030BD0949E6E7094916
:102A2000E4E70949E2E7094A0A21284609F036F9AC
:102A3000DFE700BF280501004A05010090190020CA
:102A40002F050100360501004005010018070100AF
:102A500038B5054605480BF0C6FA044620B10021FA
:102A60000C300BF0D8FA2576204638BD44040020FF
:102A700010B531B109480BF0B6FA044630B920461A
:102A800010BDBDE810400120FFF7E2BF00210C306F
:102A90000BF0C1FA01232376F1E700BFEC0300201D
:102AA00010B501210C300BF0D1FABDE810400378CD
:102AB000024A034801210AF07CBA00BF86050100E2
:102AC00068F90000B0B50B460D8A00AF04462946F0
:102AD000D868FFF75DFF8AB06A46094BC2E9053442
:102AE00040F202439384074BC2E9075042F8103F7B
:102AF000054800234FF43251FEF7CAFDBD46B0BD74
:102B0000A80501000500000168F9000037B502EBD7
:102B1000C303934204D103B0BDE83040FFF7D2BFF6
:102B2000144614F8085B854211D10B8A54789C42F4
:102B300007D9084A0090012107480AF086F903B036
:102B400030BD5368084603B0BDE830401847224600
:102B5000DFE700BFCA05010068F9000010B50121D8
:102B600004460C300BF072FA2146034A0078BDE8A7
:102B700010400023FFF7CABFE0FB00002DE9F74F2C
:102B8000DFF854B1BFF35B8F81460F4690464FF09C
:102B9000000A5BE8004F4BE800A3002BF9D1BFF31C
:102BA0005B8F264644B94D4A4D484B46012103B040
:102BB000BDE8F04F0AF0FDB9204604F0C1FE494DD2
:102BC0000C2303FB005042884A4520D0204604F0E5
:102BD000B7FE0C2303FB00504388434A0093404850
:102BE0004B4601210AF031F9BFF35B8F5BE8003FF0
:102BF0004BE80062002AF9D1BFF35B8F002B67D04E
:102C00001E46304603B0BDE8F04F04F035BFA04586
:102C100011D020460BF0E2F904F10C0901235146D2
:102C2000484623760BF0F7F9B8F81020D8F80C10C6
:102C300048460BF0FAF9204604F082FE4FF00C08EB
:102C400008FB00504368EBB1E7B9204604F078FE7A
:102C500008FB005001224068D0E90031007A01F001
:102C60001F0C02FA0CF2490928B3BFF35B8F03EB88
:102C7000810353E8000F104343E800010029F8D115
:102C8000BFF35B8F204604F05BFE4FF00C0808FB9F
:102C900000508368002BB4D0204604F051FE08FB9E
:102CA00000F02F54204604F04BFE08FB0055A868A6
:102CB00008F04AFBA5E7D24303EB8103BFF35B8F28
:102CC00053E8000F104043E800010029D8D0F7E78F
:102CD00003B0BDE8F08F00BF00010020EC0501004B
:102CE00068F90000100D00201406010038B5042119
:102CF00004460C300BF0AAF9034640885D7818B101
:102D000019782246FFF73AFF25B10348BDE838405D
:102D100008F01ABB38BD00BFE800002070B50321E1
:102D200004460C300BF092F90578B0F80100E36826
:102D300040F6354290421B7806D1BDE87040084A03
:102D4000084802210AF035B918B122461946FFF7A2
:102D500015FF25B10448BDE8704008F0F5BA70BD14
:102D60004706010068F90000E800002010B5C1E93D
:102D700000239DF808300B720C4604F0E1FD034B74
:102D80000C2202FB00335C6010BD00BF100D002060
:102D90002DE9F0474FF0FF324FF0FF33064617485A
:102DA000174D0F460BF01FF9044600F10C0A0021E5
:102DB0004FF0000850460BF02EF984F8188020469A
:102DC00004F0BEFD4FF00C0909FB00504680204680
:102DD00004F0B6FD09FB0050C0F80880204604F05E
:102DE000AFFD09FB005503215046C5F804800BF0E8
:102DF00016F9068087702046BDE8F0871804002089
:102E0000100D00202DE9F041074688B016460C460B
:102E100021B9FFF7BDFF0446002852D002AD0122C0
:102E2000002128460CF002F9204604F089FDDFF865
:102E3000A0800C2303FB0080856020460BF0DBF8AC
:102E4000014624480BF0D5F84FF4A0222846002371
:102E500008F0A0FA054688B140F24B131E4A1F49FC
:102E60001F4809F0D6FB1F482A46394609F0D1FB16
:102E7000404080F311884FF0030002DF204604F049
:102E80005FFD0C23584318F8005095B1164A1748B7
:102E900000953B460221093D09F0D7FFEDB22046DF
:102EA00004F0EAFD092D0FD8114B585708B0BDE8C2
:102EB000F08116B134600020F8E7204604F0DCFD14
:102EC000F9E76FF06800F1E76FF00400EEE700BF8C
:102ED000100D0020040100207D060100B106010054
:102EE000BA060100D70601000307010068F90000D7
:102EF000E20901002DE9F041C54D82B0D5F81C3141
:102F0000996811F0010100AF21D13A1D40F603404C
:102F1000FFF778FF044600286FD17868C3681B78F4
:102F20009BB9BFF35B8FD5F8D430BFF35B8F05F14E
:102F3000D40203F00903BFF35B8F52E8001F42E89D
:102F40000034002CF9D1BFF35B8F04F095FD3A1DDE
:102F5000002141F20300FFF755FF044600284CD141
:102F60007B68AC4EDA68D2F80100D2F8051003C6CF
:102F7000184604F081FD21463A1D41F20100FFF799
:102F800041FF0446002838D17868C3685A7885F82C
:102F900070205A88A5F872201A7985F87120B3F844
:102FA0000720A5F87420B3F80530A5F8763004F0B2
:102FB00063FD21463A1D41F20200FFF723FF04465C
:102FC000D8B9D7F804C0DCF80C20531C413218687B
:102FD0005968344603C4083393422646F7D1604605
:102FE00004F04AFD95F87C3058060BD48A4A8B4889
:102FF000012109F017FF6FF0120420460837BD4683
:10300000BDE8F0813A1D002142F20300FFF7FAFE0D
:1030100004460028F1D17A68814BD168D1F80100CB
:10302000D1F8051003C3104604F026FD95F87C3056
:10303000990617D4022140F66D40FFF7A9FE064617
:1030400000284AD002210C300AF0E9FF0123447025
:1030500003702246314640F66D40FFF7D3FE04462A
:103060000028CAD195F89C301A0712D53A1D0021C4
:1030700042F21C00FFF7C6FE04460028BDD1786866
:10308000C368D3F80120D3F80530C5E9382304F02C
:10309000F3FC082142F20100FFF77AFE0446E0B19A
:1030A00008210C300AF0BBFF022600220670427095
:1030B0008270C270027142718271C271214642F205
:1030C0000100FFF79FFE0446002896D1082140F634
:1030D0000140FFF75DFE804610B96FF068048CE791
:1030E00008210C300AF09BFF8023437020230470DA
:1030F0008470047144718471C670C3712246414664
:1031000040F60140FFF77EFE044600287FF475AFCD
:1031100001463A1D4FF60140FFF774FE40B1414AA7
:103120003E48022109F07EFE00F0C0FD044664E73F
:103130007B68DC68B4F80130032B96BF3A4A3B4900
:1031400052F823106E468AB06A463948D3614FF46C
:1031500000731384374BC2E9050142F8103F002386
:103160002E484FF41351FEF793FAB4F80120B4F847
:103170000330022AB5466BD1052B69D82E4A52F886
:1031800023106E468AB06A462C48D3614FF4007310
:103190001384284BC2E9050142F8103F4FF4135144
:1031A0001E480023FEF774FA637994F806C0D4F839
:1031B0000900032BB54698BF214AB4F8076094BFB5
:1031C00052F8231019496C468CB06A46DFF874E057
:1031D000C2E9073C4FF4007393851B4BC2E905E13C
:1031E000C2E9096042F8103F00234FF473510B48C5
:1031F000FEF74EFAA546786804F03EFC3A1D002121
:103200004FF60240FFF7FEFD044618B30F4A87E76A
:1032100000000020780000202707010068F9000066
:10322000D80000204B070100A8FB00001F07010089
:103230006F0701000400000190FB000088070100F7
:1032400080FB0000A007010007000001CD0701007E
:103250000F4996E77868C368B3F80130A5F8C13024
:1032600004F00AFC95F8C1305B077FF55DAF3A1DAD
:1032700021464FF60340FFF7C5FD08B1054A4FE769
:103280007868C3685B7885F8C03004F0F5FB4BE7DD
:103290001F070100F6070100F7B5144B93F99B30A7
:1032A000002B05460C461DDA14B9204603B0F0BDCC
:1032B000082C01AA4FF0000142F21800264628BF50
:1032C0000826FFF79FFD0028F0D1019FF9683246DC
:1032D000013128460CF0BCF9384604F0CDFB3544EA
:1032E000A41BE1E76FF08500E0E700BF00000020CD
:1032F00070B50C4D06460FCD8EB06C460FC40FCD89
:103300000FC40FCD0FC495E803000D2E84E8030011
:103310009BBF0EAB03EB8606034856F8380C0EB085
:1033200070BD00BF24FA00001F070100024BD3F854
:103330001C315B69184700BF0000002070B5404D8C
:10334000404EEB686FF39433EB603D484FF0FF3233
:103350004FF0FF33012108F0DDFB60B13A4A3B49F1
:103360003B4840F6323309F054F9404080F311886D
:103370004FF0030002DFEB68C3F38633022B06D95C
:10338000042B07D0334A3448022109F012FE07F01B
:1033900037FED6E72B7B002BF9D1304800220023E3
:1033A0000AF025FE044600283BD04FF0FF332C489E
:1033B0004FF0FF3207F0EEFFD6F8003123BB204676
:1033C0000AF019FEC6F800012046FFF7AFFF0346DA
:1033D0000028DCD0234A2048012109F0EAFD2048DA
:1033E00007F0B2FF204604F0ABFA1F4B0C2202FBA1
:1033F0000033588818B9204604F03EFBC7E7224640
:103400001F21FFF7BBFBF6E7184A1348012109F01B
:1034100009FDD6F8000104F02FFB0023C6F80031A7
:10342000CDE7094A12490A4840F6C42309F0F1F8E9
:10343000404080F311884FF0030002DFB5E700BF82
:1034400040010020000000207D060100B1060100BF
:10345000BA0601004108010068F9000004010020DB
:10346000E80000201F080100100D00206208010084
:10347000D71301002DE9F041044600F10C06304657
:103480000AF0ECFD278A012F05460AD81D4A1E487E
:103490003B46012109F08DFD2046BDE8F04104F0D6
:1034A000EBBA304602210AF0D1FD0378052B06461F
:1034B00021D00E3B012B21D9144A1549154840F65D
:1034C000F26309F0A6F8404080F311884FF0030042
:1034D00002DF4FF00208104A307802232146FFF73E
:1034E00015FB18F0020FD7D06369278213FA85F510
:1034F000E560BDE8F0814FF00308ECE74FF001080C
:10350000E9E700BF7D08010068F900007D060100C1
:1035100099080100BA060100B8FB000038B5017E29
:103520000129044628D1038A012B08D8184A1948D2
:1035300009F03FFD204604F09FFA002038BD02212B
:103540000C300AF083FD03780E3B012B05460CD8A6
:10355000114A1249124840F6B52309F05AF8404082
:1035600080F311884FF0030002DF0E4A287803230E
:103570002146FFF7CBFADDE70B460B4A0548012150
:1035800009F017FD204604F077FA6FF01500D5E733
:103590007D08010068F900007D060100B208010005
:1035A000BA060100C8FB0000E008010010B5037E68
:1035B000012B04460CD0094A09490A4840F64573D4
:1035C00009F027F8404080F311884FF0030002DF34
:1035D0002046FFF74FFF002010BD00BF7D06010011
:1035E000F4080100BA060100084A0346D2F81C019B
:1035F00030B9D96839B1596929B1C2F81C3170475D
:103600006FF0770070476FF01500704700000020E2
:103610002DE9F84F454BBFF35B8F00AF53E8002F08
:1036200042F0040243E800210029F7D1BFF35B8F89
:10363000A3F1D40413F8CD2C3D4D3E4B2046012A76
:1036400088BF1D466E46FFF7C5F98AB06A463A4BF9
:10365000D061C2E90535394B1362394B42F8103F4E
:103660003848DFF8E480DFF8E490DFF8D8A00023E2
:103670004FF42351FEF70CF80125B5462646E379B1
:103680009D4206F107063ADB94F870502846FFF792
:103690002FFE6E468CB0B4F87210B4F876306A46DD
:1036A000DFF8ACC05362C2E907512A4B4FF40075F2
:1036B000C2E905C0158542F8103F00234FF453516D
:1036C0002048FDF7E5FFB54694F871603046FFF7F6
:1036D0000FFE8AB0B4F874306A461F499584C2E977
:1036E00007631E4BC2E9051042F8103F154800233E
:1036F0004FF43351FDF7CCFFBD46BDE8F88F30469F
:10370000FFF768F9EB468AB06A4640F20133C2E936
:103710000585D061138442F8109F00234FF41351A4
:103720005046FDF7B5FF0135DD46A8E7D40000207F
:10373000FFFF0000170901001B090100000201033F
:103740000400000268F900002A09010004000001D9
:103750003B09010006000001790901000500000194
:1037600010B5FFF7C7FB044608B9FFF751FF044B3C
:103770001B681BB12046BDE81040184710BD00BFB4
:10378000280D002070B5364DD5F81C3188B006469E
:103790004BB9344A3448012109F044FB6FF012045C
:1037A000204608B070BD05F1D403BFF35B8F53E82A
:1037B000002F22F0020243E800210029F7D1BFF3D5
:1037C0005B8FBFF35B8F53E8004F44F0010243E887
:1037D00000210029F7D1BFF35B8F14F001043CD125
:1037E000224B1E600122114605F1E8000BF01EFC81
:1037F00005F582700BF0D9FB00220023CDE90623EA
:103800006FF00803CDE90243CDE90044184B194994
:1038100004944FF44072184807F04AF917491648C3
:103820000BF0ECF9D5F81C31DB689847044630B151
:103830000346134A0C48012109F0BBFBB0E73EB92F
:10384000FFF758FB04460028AAD1FFF7E1FEA7E7DF
:1038500005F1C40007F0E6FEA2E76FF077049FE7EA
:1038600000000020A009010068F90000280D0020D8
:103870003D330000C021002030090020B9090100BB
:10388000BF090100044BBFF35B8F1868BFF35B8F68
:10389000C0F38000704700BFD4000020004870478C
:1038A000DB090100F8B50A4DEF7906460024E3B2C2
:1038B0009F4202D86FF0010007E02946304609F028
:1038C000B1FB0735631C08B12046F8BD1C46EEE786
:1038D0000000002070B5144E0622314604460BF05D
:1038E00044FED8B1062142F20500FFF751FA054621
:1038F000B0B1062221460C300AF097FB002229467F
:1039000042F20500FFF77EFA48B93346226843F8D1
:103910006929A288B280012283F86820002070BD46
:103920006FF06800FBE700BF6900002037B5044670
:103930000D4689B11849284609F074FB60B9174A49
:103940002968C4EBC404A3181151AA889A80AA79E3
:103950009A71002003B030BD684609F01BFB0028B7
:10396000F8D16846FFF79EFF0028F5DA0B4A009869
:103970009DF80610C4EBC404A3181051BDF8040050
:1039800098809971002DE4D012592A609A88AA80F3
:103990009B79AB71DDE700BF150501000000002039
:1039A00070B50446B1B9C0B1204909F03BFBA0B9DC
:1039B0002046FFF777FF002831DA2378012B04D166
:1039C000A37903F0C003C02B07D0194A194801217D
:1039D00009F030FB6FF0150070BD174DEB79012B2E
:1039E00020D0BFF35B8FD5F8D430BFF35B8FDB07FC
:1039F00007D4002CEED00D49204609F013FB002817
:103A0000E8D1EE792146731C3046EB71FFF78EFF4B
:103A100008B93046E0E7EB79013BEB71DCE76FF08A
:103A20007700D9E76FF00B00D6E700BF150501005E
:103A3000EF0A010070F90000000000202DE9F341B9
:103A4000044640B91A4A1B48022109F0F3FA002043
:103A500002B0BDE8F08101AA002141F20900FFF7A0
:103A6000D1F9054608B1144AEDE7019E1349D6F88D
:103A70000C8008F10107062238460BF076FD28B1CC
:103A80000F49062238460BF070FD18B9304603F096
:103A9000F3FFDCE7D8F80130C4F80130BB88A4F8A4
:103AA00005303046257003F0E7FF0120D0E700BF66
:103AB0001D0B010070F90000360B0100220501000A
:103AC0001C05010007B56846FFF7B8FF044BD87125
:103AD00018B169460020FFF729FF03B05DF804FB29
:103AE00000000020F7B51F4B93F8C230DB070546F6
:103AF0000E4608D41C4A1D48022109F09BFA0024F6
:103B0000204603B0F0BD01AA00214FF60940FFF79F
:103B100079F9034608B1164AEDE70198C26854786E
:103B2000B44228BF3446023216279C4209DC03F017
:103B3000A3FF002CE4D10F4A0C48022109F07AFAC5
:103B4000DEE7114607FB035602F1140C51F804EBB3
:103B500046F804EB6145F9D109883180013316320A
:103B6000E3E700BF00000020540B010070F90000E3
:103B7000800B0100A00B0100F0B5164DEC7989B067
:103B80002CB9012102A8FFF7ADFFE871D0B90021DF
:103B9000084609B0BDE8F040FFF702BF08AB06FBDE
:103BA0000033694653F8182C33F8143CCDF8012043
:103BB000ADF805308DF80070FFF7B8FE013418B18C
:103BC00009B0F0BD16260127EB79E0B28342E5D8B3
:103BD0000020F5E7000000202DE9F04190460E4658
:103BE0001D46024650B14BB13103047810D573071E
:103BF00008D52B4A2B48012109F01CFA6FF015005B
:103C0000BDE8F08109F020FA0028F9D1012341E054
:103C1000F70730D5244FB8F1000F13D0B0060AD4FF
:103C2000C4EBC403FB5C012B13D02B70B20620D570
:103C300043F002030BE097F8D8305906F0D46FF048
:103C40008500DDE7C4EBC403FB5C012B01D02B70C6
:103C50000FE0072101FB04710131104609F0ECF976
:103C60000028CDD1C4EBC4043B5D2B70B8F1000F2C
:103C7000DCD10020C4E773070ED50B4EC4EBC4079C
:103C8000F35D012BE3D1072111FB0431314409F02D
:103C9000D3F9F35D2B70B3E709F0D6F9B6E700BFAF
:103CA000C90B010070F900000000002038B5104D6C
:103CB000EB7913B10024204638BDFFF703FF04461B
:103CC00028B10C4A0C48012109F0B4F9F3E7EB796B
:103CD000002BEFD1FFF750FF04460028F1D1681CFC
:103CE000FFF7F8FD04460028E5D0044AEAE700BFE4
:103CF00000000020E80B010070F90000070C010033
:103D00002DE9F74F0C46202100909246FFF740F82E
:103D10000546002855D020210C300AF080F92022D9
:103D2000002181460BF0A2FC09F1010B04EBCA0A49
:103D30000026D4F800800023626893420CD3083434
:103D4000A245F6D1009889F800600022294603B008
:103D5000BDE8F04FFFF756B898F8012098F800C07A
:103D6000B01C81181F2915D9BCF1090FC0F11F0221
:103D700001D1002A0CDC144A1448012109F052F840
:103D8000284603F079FE6FF0150003B0BDE8F08F10
:103D90004FF0080CD7B2791C0BF80610711CC9B291
:103DA0005BFA80F00BF801C0D8F8041001930237D9
:103DB0000BF04EFC019B3744FEB2013308F10808BA
:103DC000BAE76FF06800E0E72A0C010040F9000054
:103DD000F8B545686905064635D4046914B115F08F
:103DE000010330D0194F3078FB7983422BD9C0EBD7
:103DF000C0001749072238440BF0B7FBA8B115F0F3
:103E0000010306D197F87020082A02D8B2689F2AC9
:103E100019D915F0300F09D0ACB1EA060AD405F46F
:103E20006035B5F5603018BF0120F8BDEB0601D450
:103E3000002CF4D1D6E902239A4204D81F2A02D9D1
:103E4000B3F5804FEBD90020EFE700BF0000002062
:103E5000150501002DE9F04FD1F810A08BB0BAF193
:103E6000000506468048059318BF012509F016F99C
:103E700040070C46934640F1EC800846FFF7A8FF48
:103E800028B96FF0150528460BB0BDE8F08F204625
:103E900009F0F1F881460028F3D006F110084046F9
:103EA00009F0FCF80106C0F3C01300F1D580CDE99C
:103EB0000733CDF82330A3686068ADF81830E368A5
:103EC000ADF81A3009F0DBF86FF400518DF82500D9
:103ED000654809F0E9F8654A2378337082F86F3055
:103EE00061682A460DF11D033046FFF775FE054651
:103EF0000028C8D106F10903BAF1000F18D02269D1
:103F00001168C6F809109188998092799A712046B3
:103F100009F067F96368DA0707461BD4980503D4EC
:103F2000149B0BB9022F4ED102238DF81C3023E0D5
:103F30004F4A1168C6F809109188927999809A7150
:103F4000204609F04EF96368DD070746E6D58DF88F
:103F50001CA011E013F0100F0CBF012304238DF8F7
:103F60001C3023691A68CDF81E209A88ADF82220EB
:103F70009B798DF82430A9460F2142F20600FEF706
:103F800007FF054600286AD00F2206A90C300AF068
:103F90004CF82946002242F20600FEF733FF0546A0
:103FA00000287FF470AFBAF1000F12D03046012123
:103FB00009F027F9064620B32E4A2F48012108F0C0
:103FC00031FF35465FE70323DDF850908DF81C3054
:103FD000D2E7159B0093CDE90197149B059A5946AA
:103FE000304609F087F800283CD13046012109F01D
:103FF00008F906460028DFD1666886F00206C6F397
:10400000400606F0010240460E2109F05CF87B1ED6
:104010005A425A414046082109F055F8B91E4A4211
:104020004A414046092109F04EF86268404602F0D4
:1040300001020A2109F047F84A4640460B2109F0DF
:1040400042F862680D21C2F38002404609F03BF855
:1040500019E76FF00A0516E76FF0770513E76FF0C1
:10406000680510E705460EE7D40000200000002098
:1040700015050100430C010040F9000073B5154619
:10408000069A0C46CDE900322B460A4601461148F5
:10409000FFF7E0FE21460646002340F201109D4254
:1040A00002D1304602B070BD0A88824204D14A680B
:1040B00012B11278D20702D401330831EFE7064972
:1040C00006480BF05BF84FF470220023034807F01A
:1040D00015FBE6E718000020194100003000002021
:1040E00008B50B4809F0B2F80A486FF4804108F0AF
:1040F000DBFF084808F0D2FF03461B06C0F3C010E0
:1041000005D5BDE808400248002109F07AB808BD8D
:10411000180000202800002010B5FFF7E1FF03463B
:1041200030B1044A0448BDE81040022108F083BEC3
:1041300010BD00BF5E0C010040F900002DE9F843FE
:104140000F4FDFF840804FF00C0944463E460025F3
:10415000221D21463046013509F0D0F8042DA6F184
:104160000806A4F10C04F3D1A9F1040919F1040F14
:10417000A7F12007A8F13008E7D1BDE8F88300BF18
:10418000A40D0020600E002070B505460C461E46AA
:10419000B2B173783078C01A10F0030030D1013317
:1041A000DBB233703022042312FB04320C2313FBE6
:1041B00005231C4A70681A44314609F0A2F824E02D
:1041C00009F0F6FE0028E4D02146284603F0CAFA9A
:1041D000727813460028DDD030210C20614300FBAB
:1041E000051110480144887AC97A8842D2D13378BF
:1041F0009B1A9B0711D1D6E902039847002070BD96
:104200000128FCD00133DBB23370074B0122214679
:1042100028461A5503F0C6FAF0E70232D2B23270DD
:10422000E9E700BFAC0D00202F1A00202DE9F04F68
:10423000DFF82CA11AF8003087B00546002B00F0FB
:104240008780484C00EB4003002704EB03143C221A
:10425000042312FB00330AF800704FF003080097A4
:104260000293A3460023A16A5BF8240F059305AAD5
:1042700009F04EF80646002E40D0059A92F80090BC
:104280005378A9EB030909F00309B9F1010F05D12E
:10429000013B5370059BD3E902029047059BA06A3E
:1042A0001A780393D1B201915978521A02F003029D
:1042B000012A16D00022594609F032F8039B5E60AD
:1042C000019A59785A701A78521A02F00302012A98
:1042D00007D1244A5970029930460A44194609F018
:1042E00010F8D4E9090105AA09F012F8B9F1010F93
:1042F0000646C0D1B8F1000F23D110BB94F82E3080
:1043000094F82F209A4226D194F82C3094F82D203E
:1043100008F1FF389A425FFA88F81CBF84F82D3004
:104320000127B8F1FF0FA4F10C049AD1009B7BB1D7
:1043300077B93A462946284607B0BDE8F04F03F062
:10434000EFB90123294628460AF8053003F02AFA76
:1043500007B0BDE8F08F84F82F3001230093D3E736
:104360002F1A0020AC0D0020D0E908310B44084979
:1043700002460848194481429FBFA3F1E873A3F5A0
:10438000D433A3F5A573012088BF00205362704782
:104390005A2B17FF592B177F2DE9F843224E04465D
:1043A00008462C2104FB0168D8F8041001EBC00773
:1043B00011F83010FC78651CEDB2A94298BF0025B9
:1043C0007978A9422ED0796804EB44044FEA041CA2
:1043D00001EB04144FF0040901F80C906360089B92
:1043E000A360099BE3600A9B23610C9BA361BDF85A
:1043F0002C30A382119B63620D9BE3610E9B2362B1
:104400000223A3700F9BA362109B6270E362FD7096
:10441000D8E908359847434600224946A847A0787E
:10442000BDE8F8830120FBE76C0E00202DE9F04F7A
:10443000837E8FB00446002B40F03F82437E019381
:104440004BB1456A0346012204210420AC460FB05B
:10445000BDE8F04F60474369C17A0793837A012230
:10446000994242765DD01344DBB2022B08BF002391
:10447000837200EB83030692D3F80CB0079B5B4476
:1044800023F07F434361237E039302F0EDFD236815
:10449000657A089363680A930023013D0593FF231F
:1044A0000490EDB20093FF2D3FD1237E039A9B1A17
:1044B00018BF01230293069B002B00F0D682049BB9
:1044C000079A0B959B1A23F07F4308932368049364
:1044D000D8464FF0000994F818A0BAF1FF0F0DD09C
:1044E0000AEB4A052B010A93049B03EB0515AA6806
:1044F000424540F22A81A2EB0802AA60029A06997C
:104500000398237E834218BF0A46009902922046F0
:1045100008F07AFF25680022237EFF219846069145
:10452000AEE1019B06939B46ADE70A9B03EBC509F1
:10453000D9F80430029399F8030099F80280804575
:1045400000F0D680029B99F8002008EB48074FEA5C
:10455000071A03EB071708F10103DBB29A4208BF01
:10456000002389F80230029B797813F80A20042A84
:10457000E3D901EB410633010B93089B03EB0616CD
:10458000082A7378B078A3EB0003DBB203D83BB9F9
:10459000062A00F081800121384608F02BFFCAE787
:1045A000052A6FD17A684AB9BA683AB9FA682AB95D
:1045B0003A691AB97A6932F07F42ECD0012B40F0A7
:1045C0008D80204608F0CCFEB06063690993099A9B
:1045D000049B9B1A23F07F435B4498429DBF726902
:1045E0009B18181AA0EB030873689CBF70614FF00A
:1045F00000089BB1BB8A8BB1013BBB82D6F804A0FB
:10460000DFF850C2F18BBB8AC24501D2994272D801
:10461000F38BBA8A9342C0F08380B2837B68B16A1D
:104620004344B360BA6873691344736129B10B687A
:104630001BB1D7E901329B1A4B60049A09993046A5
:1046400008F0BAFEFA68B3691344B3613A69934259
:104650008CBF9B1A0023B361BA7D1AB1F37862F361
:104660000003F370FB7D13B1013B86F82C30089AF0
:104670000B99009B53547B780093737801337370CC
:10468000002189E7012B27D1062A05D0204608F012
:1046900067FEB378B0607370E27E7B789A42EFD1A8
:1046A000029B13F80A30062B1CBFFF23E376029B04
:1046B00013F80A30062B01D0082B3BD179686369C7
:1046C000CA1A100238D422F07F4202EB0B03E269CF
:1046D0009A4288BFE361D3E7062ADDD0042123464E
:1046E000666A01220846B047012389F802800593D3
:1046F000013DEDB2D7E6736A574A58489A1882428C
:1047000084BF63447362D6E908238CBF0120002074
:104710009B1A504401397362A8EB0008F18371E7DA
:1047200030460C93FFF720FE0C9B5044013380442D
:10473000F3836DE70499C2E75B1A23F07F439B453F
:104740008CBFABEB03030023C1E7A9786878089B13
:10475000EE8B401AE1699B1A8A42A8EB0208914449
:10476000089331BF8A1A00220B9BE376E261AA69A3
:10477000C0B25AB1022809D146B9AA6A12B1127A56
:10478000012A03D084F81BA0AA69E2610023AB6070
:104790000A9A049B9A5C2276696829B9AA6A002A57
:1047A0004DD0127A012A4AD1AA6AC2B1127A012ADC
:1047B00015D1AA78C5F808806A70079B616903EB78
:1047C0000902284608F0F8FD049A0A99009B535400
:1047D0006A78CDF800A00132D2B26A707BE6EB8B2A
:1047E0000993BBB9AE8B324600272846CDE90C129F
:1047F000FFF7BAFD0C990D9A0844013A0744F4D228
:1048000095F82C00A0B10020099BAF601E443044F5
:10481000E883D2E7AA786A700026E4E72846CDE963
:104820000C12FFF7A1FD0C990D9A0844074410469D
:10483000089BBB4200F10102F0D880B2E4E738B136
:10484000012800D026B12B6A13B1696A012098476C
:10485000AA78C2E74AA9D1015A2B17FF592B177F13
:1048600008EB48064FEA061A05EB061615F80A107B
:10487000B76A17B1387A012822D0CDF81880884657
:10488000B8F1FF0FECD1002A00F0F380059B002B5C
:1048900000F0D180237EFF2B40F0688102F0C0FB46
:1048A0000546002840F0BE81E06102F0DDFB657640
:1048B0006061A37E002B40F0B0810FB0BDE8F08FA7
:1048C000E369D6F8189000919B4538BFA3EB0B0C19
:1048D000D7E9003228BF4FF0000C9A4235D29B1A1C
:1048E00004930498B9F1000F08BF4FF004090023A6
:1048F000A0EB09001A469E4608900099FF2907D0B0
:1049000002EB09000790049802EB090188422FD2BC
:104910007A68B168521A1A447A60B36015F80A20AE
:10492000FF23FF2A68D002EB42014FEA011E05EB8C
:104930000111D6F808C0886884455AD9ACEB00004C
:10494000B060134615F80E20EBE7B9F1000F0DD15A
:1049500063B9834A8349844840F66A1307F059FED5
:10496000404080F311884FF0030002DF0023CFE7BF
:10497000009901EB4101080105EB011107908868DE
:104980008644886A10B1007A012803D0886908B18A
:10499000496819B90799695C0091AEE7B36900935A
:1049A000BEF1040F1CD90499131F73448B4228BF16
:1049B0000B4602EB09018B4212D90099002900F045
:1049C0003681B3EB090301D09C45A1D97244131879
:1049D0009C46089B0799695C00914FF0000E8CE79C
:1049E0000099724483180029F2D19C46F2E763468D
:1049F0008EE7A0EB0C008860FF2B15D0069A15F807
:104A00000A10FF2A17BFBDF91820217602EB4202D7
:104A100012011BB203EB430318BFA9541B01EA5C4C
:104A200005F80A2005F80380F38B013BF38302238A
:104A30003B72012270E50123029363680893637A55
:104A4000013B5FFA83FBBBF1FF0F1AD0089B03EB1E
:104A5000CB09D9F80430009399F8015099F8033044
:104A6000AB4215D10BF1FF33EBE70099204608F07C
:104A7000CBFC237E039A93427FF408AF059B002B67
:104A8000DBD0029B002B7FF405AF029B637610E71F
:104A900005EB4505009A2B0102EB0515D35C012BB4
:104AA00023D0022B29D16B682A690493D5E902131C
:104AB0000792049A0593127805986B690693FF2A6A
:104AC000AB69D4F800A0D0F80080666902D008680D
:104AD000B0421ED0277E0E604FF00008FF2F1ED17F
:104AE000049B1F70059BC3F800804FF00003AB7060
:104AF000AB6A13B1E96A0020984799F8013099F838
:104B000000200133DBB29A4208BF002389F801304C
:104B1000A2E702EB420212011AF80270DEE707EB8D
:104B20004706320109920AEB0616069AB16962B18C
:104B3000B268DDF818C00A9342443846E0470A9B41
:104B400028B9B2689044099AE6E70029F9D0079A93
:104B5000B36812B10799726A0A609844C0E700BF4F
:104B6000840C0100C30C0100BA060100039BFF2B5B
:104B700006D102F079FA054602F044FA00B96561FF
:104B8000237E226803EB430302EB03129568002D9A
:104B900042D002F069FADFF8AC90DFF8ACA08046B2
:104BA0000A276169A8EB010222F07F42954207F1D2
:104BB000FF3739D90332AA422CBF01EB020B01EBBC
:104BC000050B2BF07F4BA26A5846904702F04CFA37
:104BD000A0EB080222F07F42ABEB080B03322BF074
:104BE0007F4B5A45064607D800236376A37E019A79
:104BF0001A433FF462AE10E067B9144A40F6C1337D
:104C00004946504607F005FD404080F311884FF0BB
:104C1000030002DFB046C4E76576656A23460122D9
:104C2000032112E4002331E701230193DCE7BCF107
:104C3000000F04D0A3EB09039C457FF6D8AE724465
:104C40001318D2E6980F0100BA060100840C010087
:104C5000F8B5089F1C46069B10B101263046F8BDEA
:104C6000134D9DF81C6029722A606C726B60013CC8
:104C7000E4B2FF2C0FD1002EEFD1099B2B620A9BCF
:104C80006B620B9BAB622C7602F0EEF96E81686171
:104C9000EC76EE61E2E703EBC402576013F83410E0
:104CA00001EB410207EB0217721AD6B2DFE700BF31
:104CB0006C0E002010B4074B2C2202FB00314C6A12
:104CC00034B10B46A446012210BC032102206047E8
:104CD00010BC70476C0E00202DE9F041224E0446B6
:104CE0009C462C2304FB03680846D8F8043003EBE9
:104CF000C00713F83030FC78651CEDB2AB4298BFAA
:104D000000257B78AB4211462CD07A6804EB440432
:104D100023014FF0050E02EB041402F803E0069B9A
:104D2000A360079BE360089B2361BDF82430A38246
:104D30009DF82830A3759DF83430E3750223A370E5
:104D40000B9BA3620C9B6170C4F804C0E362FD700E
:104D5000D8E908359847434600220421A847A0789F
:104D6000BDE8F0810120FBE76C0E00202DE9F04149
:104D70001A4E04469C462C2304FB03680846D8F8C8
:104D8000043003EBC00713F83030FC78651CEDB23B
:104D9000AB4298BF00257B78AB4211461BD07A68A6
:104DA00004EB440423014FF0070E02EB041402F855
:104DB00003E00223A370069B6170C4F828C0E3627D
:104DC000FD70D8E908359847434600220421A847DA
:104DD000A078BDE8F0810120FBE700BF6C0E002049
:104DE00038B5054600200C4608F046FE68B955B1B6
:104DF000074B24B122681A60A2889A8001E01C60E7
:104E00009C80002038BD034BF3E70C20FAE700BF7D
:104E1000331A0020391A00200128024605D8044B15
:104E20000448002A18BF184670470020704700BF8A
:104E3000331A0020391A002010B5044608F021FF6B
:104E400060B1114A1149124840F6081307F0E1FB1E
:104E5000404080F311884FF0030002DF08F071FF3B
:104E600060B1094A09490A4840F60D1307F0D1FB21
:104E7000404080F311884FF0030002DF2046BDE878
:104E8000104006F061BA00BF190D0100540D010079
:104E9000BA0601000860014806F056BA6412002004
:104EA00013B500230360064B044601AAD3E90001B1
:104EB00008F02EFA08B1019B2360002002B010BD5B
:104EC000BC0E0020014908F0EEB900BFD00E002052
:104ED00013B5184900234868019301AA08F020FA85
:104EE000044660B9144A1549154840F20F4307F0CB
:104EF00090FB404080F311884FF0030002DF204612
:104F0000FFF7E0FF019B1B7973B90B4A0D4940F293
:104F100041530B4807F07DFB404080F311884FF070
:104F2000030002DF02B010BD034A074940F24553B7
:104F3000EFE700BFBC0E0020190D0100590D010064
:104F4000BA0601005E0D0100CD1301002DE9F84302
:104F5000DFF86090184FC84638F8045BFF2D28BF73
:104F6000FF25EDB26DB17C7D3B7D0134E4B2052CB3
:104F700008BF00249C4204D0404608F083F906464E
:104F800008B9BDE8F8830D4808F07CF920B930462F
:104F9000BDE8F843FFF796BF06607B7D47F8230026
:104FA000B9F800307C75013B013DA9F80030EDB245
:104FB000D8E700BFCC0E0020641000200C0F0020AA
:104FC000014908F070B900BF0C0F00202DE9F04135
:104FD000204E0468204F054624B92C60BDE8F041FE
:104FE000FFF7B4BF2379D4F8008023BB1B491C48CA
:104FF00040F2FF53324607F00CFB404080F311882B
:105000004FF0030002DF3B88032B0CD915491448ED
:1050100040F28D63324607F0FCFA404080F311887D
:105020004FF0030002DF3B88204601333B80FFF74F
:10503000C7FF4446D0E70C49094840F28163324635
:1050400007F0E7FA404080F311884FF0030002DFD9
:10505000EFE700BF190D0100CC0E00207C0D010010
:10506000BA0601009F0D0100CD130100022810B502
:105070000C4602D00B68022B07D004484FF0FF32D9
:105080004FF0FF3306F086F9206810BD641200204F
:10509000024B1A6802B9186018687047B80E0020F1
:1050A000054A0346106830B183424FF0000301D136
:1050B0001360704718467047B80E0020014B1868FF
:1050C000704700BFB80E002030B505682B7887B058
:1050D00004461BB96FF0770007B030BD01220021F4
:1050E000684609F0A3FF114B6B612B78C5F818D007
:1050F000002BEFD00E4B0022114603209C60FFF7DF
:1051000043F860B10B4A0C490C4840F2BB7307F0FE
:1051100080FA404080F311884FF0030002DF4FF423
:1051200000420023684606F035F9D5E717D900009C
:1051300074010020190D0100D70D0100BA0601000D
:1051400010B50B490A7D4B7D9A4205D89C1AE4B2F2
:10515000A04209D9002006E005339B1ADBB2984231
:10516000F8D851F8220010BD9A42FAD1F2E700BFF8
:1051700064100020014A08F0C4B800BFC80E002027
:105180000122024B11460020FEF7FEBF6401002001
:105190002DE9F043174E96F80141651CEDB2082D3C
:1051A0008C4696F8001108BF0025A94286461ED0FD
:1051B00006EB4414A04602F11009106851684746F6
:1051C00003C708324A45B846F7D1C4E9043E9DF802
:1051D0001C20237FC4F818C002F0010223F003034F
:1051E0001343237786F801512046BDE8F08300245D
:1051F000FAE700BF5C110020054890F8003190F8F4
:1052000001219A4214BF00EB43100020704700BFF9
:105210005C110020024600780B4B072888BF93F8EA
:10522000000193F8011188BF10701078814208D0F6
:10523000411CC9B2082908BF002103EB40101170BE
:1052400070470020704700BF5C1100202DE9F74F28
:105250000190FFF7D1FF98B903B0BDE8F08FB9F125
:10526000000F05D0002C08BF344648E0B04646E0A9
:10527000B14644E04DB9C3684B45EDD0A34247E089
:105280000024244FA1462546A046037FC6689907FF
:10529000C3F3400A03F0010B14D41F4B524698602D
:1052A00051460198FEF770FF60B11C4A1C491D4829
:1052B00040F62F0307F0ADF9404080F311884FF01E
:1052C000030002DF97F8003197F801219A4206D0D7
:1052D0000133DBB2082B08BF002387F80031FFF74A
:1052E0008BFF0028B8D0BAF1000FCED1BBF1000F70
:1052F000B5D1B8F1000FB9D0002D08BF3546037FF6
:105300009A07C2D4DB07B5D4C3684345A4D0AB42E7
:10531000BBD1A1E75C11002054010020190D010050
:10532000D70D0100BA06010010B50E4A0146137DE3
:10533000507D984208D052F823400133DBB2052B50
:1053400008BF0023137514B90024204610BD0023A4
:10535000206823600223E1612371214608F0DDFA11
:10536000F3E700BF441100207FB52F4C2F4D304E86
:1053700004220023A382A8182B46282107F069FFE6
:105380000422B0183346082107F063FF0420CDE95A
:105390000260CDE9004504F11503227D052108F0E6
:1053A000C3FA244B0522181D442107F052FF224B5B
:1053B0000722181D082107F04CFF1F4807F062FF65
:1053C000044660B91D4A1E491E4840F6E30307F033
:1053D00020F9404080F311884FF0030002DF1A4AA1
:1053E0002046111F07F08AFF134807F04BFF0446C1
:1053F00060B9124A1249134840F6EA0307F009F966
:10540000404080F311884FF0030002DF0F4A20462E
:10541000111F07F073FF0E4B04221A80FFF796FD51
:10542000002004B070BD00BF44110020A010002077
:105430007C1000200C0F0020D00E0020190D010060
:10544000590D0100BA060100C80E0020C00E002050
:10545000CC0E002010B5234B234C186086B001F011
:10546000C3FD23781BB9FEF769FE012323701F4A91
:1054700002211174117604231D49137013720591D2
:105480001C4904911C4903911C4902910C21CDE94E
:10549000002100201A4A0321FFF7DAFB60B1194A04
:1054A00019491A4840F25B2307F0B3F8404080F3F3
:1054B00011884FF0030002DF01220021144809F097
:1054C000B5FD01F019F950B9FFF74EFF38B908F0F2
:1054D00036FC20B906B0BDE8104008F0C1BA06B0ED
:1054E00010BD00BF601200203F1A0020BC14002035
:1054F000D3DF000049780000F17700007C12002023
:10550000DC140020190D0100540D0100BA06010041
:105510006412002010B586B008F0A9FA60B12E4AD6
:105520002E492F4840F2013307F073F8404080F3D2
:1055300011884FF0030002DF2A4B0024A3F800413A
:10554000294B9C8201222146684609F06FFD274BBA
:10555000224621460320C3F808D0FEF715FE60B1AD
:105560001D4A23491E4840F2623307F052F840407A
:1055700080F311884FF0030002DF4FF0FF324FF04D
:10558000FF33684605F006FF00F0C4FD60B1124A23
:105590001249134840F26F3307F03BF8404080F364
:1055A00011884FF0030002DFFFF7DEFE60B10A4A08
:1055B0000A490B484FF45F7307F02BF8404080F323
:1055C00011884FF0030002DF0021012006B0BDE882
:1055D0001040FFF705BC00BF190D0100540D01007C
:1055E000BA0601005C110020641000208401002034
:1055F000DC0D01002DE9F041404EDFF8048186B05A
:10560000D6E9000105AA07F083FE0746002872D0FC
:10561000059B63B93B493C4840F6B513424606F04A
:10562000F8FF404080F311884FF0030002DF059D32
:105630002B79022B51D170680022314607F070FEA1
:10564000EC6994B1237863B92D4A30492E4840F66D
:105650005E3306F0DEFF404080F311884FF0030018
:1056600002DF2378013BDBB2237095F8203063B171
:10567000234A2749244840F6B53306F0CAFF404084
:1056800080F311884FF0030002DF002385F82030FB
:10569000CDE901751F4A009202F115030521127D23
:1056A000042008F086F985420CD01B49164840F6C4
:1056B000BC33424606F0ADFF404080F311884FF006
:1056C000030002DF002C9BD02378002B98D1636964
:1056D000002B95D0A069984792E70D490A4840F6FB
:1056E0004D33424606F095FF404080F311884FF05D
:1056F000030002DF84E706B0BDE8F081C40E00209D
:10570000190D01004A120100BA060100E40D010062
:10571000CD13010044110020F90D010007B501224D
:105720000192027F02F00102009202690346D0E971
:10573000050101F019F968B177300BD0074A084923
:1057400008484E2306F065FF404080F311884FF073
:10575000030002DF03B05DF804FB00BF090E010087
:105760004B0E0100BA06010008B50248FDF73CFFE8
:10577000002008BDF0FB000037B5038A04463BB9A2
:10578000134A1448012107F04DFB6FF0150016E095
:10579000037EB3B901A9019300F0E2F958B1FDF716
:1057A00005FF019D3DB1284608F023F90199687174
:1057B000094809F026FC204602F05EF9002003B0FB
:1057C00030BD064A0348012107F035FBDDE700BF85
:1057D0005F0E010058F900006C150020700E0100EA
:1057E0002DE9F341294E2A4FDFF8A8804FF0FF3210
:1057F0004FF0FF33304605F073FD0028F6D090F9E6
:10580000053001905A1E032A2ED8022B24D10022E3
:10581000002301210020FDF72BF9044618B10146B1
:10582000019800F035FB019B00221A6001A8FFF7E8
:10583000CDFB002CDAD0204608F0DDFB21460546E2
:10584000002008F0DCFB2B8A04462846DBB1FDF77C
:1058500065FE05F0D5FBECE74FF0FF324FF0FF336C
:105860000120FDF7F5F8D8E70B4840F2E3133A467C
:10587000414606F0CEFE404080F311884FF0030011
:1058800002DF0024CFE702F0F7F8E2E76C15002012
:10589000840E0100CD130100BA06010073B5104D4E
:1058A000104E0DF1020101A8FFF7FAFA0028F8D115
:1058B000019B6BB1FFF70CFB019C204608F099F8A7
:1058C00001996071304609F09CFB019B002BE8D1E7
:1058D0004FF0FF324FF0FF33284605F05BFDE0E765
:1058E000841500206C15002008B508F05BF804480A
:1058F000FCF70CFD0348FCF709FD002008BD00BFC4
:10590000300A0020B0090020F0B5002089B008F06E
:1059100072F800260027174D174900246FF009037D
:10592000CDE90334CDE90667CDE90144134B00947A
:105930004FF4E072284605F0BBF81149284609F0FB
:105940005DF9104D104904946FF00703CDE902434F
:10595000CDE90667CDE900440C4B4FF4966228462A
:1059600005F0A6F80A49284609F048F9204609B08A
:10597000F0BD00BF300A0020002A00209D58000022
:10598000C40E0100B009002000250020E1570000EE
:10599000CE0E010010B50D4809F007FB4FF0FF32A5
:1059A00000210B4809F042FB0948FFF753FD04466C
:1059B00018B9BDE81040FFF7A7BF064A034601210A
:1059C000054807F038FA204610BD00BF6C150020CE
:1059D00084150020D40E010058F9000010B505F020
:1059E000D7FA054C204609F0ECFA204609F0DDFA1A
:1059F000BDE8104005F0E0BA6C15002038B5074B43
:105A000005460121188807F0E9FA012104460C3007
:105A100008F005FB0570204638BD00BF781900204E
:105A200038B5064B054618880C4607F0D7FA2860AB
:105A300021460C30BDE8384008F0F1BA7819002052
:105A4000F0B5013887B01446092800F28380DFE8FA
:105A500000F0051E2E81815F813A687510460D2188
:105A6000FFF7DEFF02224270C2700322827106221B
:105A70000023C27163220370837003714371037248
:105A800042728372C3720373002007B0F0BD4121DC
:105A90001046FFF7C5FF002104463E2200F8031B15
:105AA00009F0E4FDA72363700323A370ECE710461D
:105AB0000921FFF7B5FF0346002203F8012BC0F8C8
:105AC00001205A60E0E7254B01AA03F110071546B3
:105AD00018685968164603C60833BB423246F7D1E8
