:10000000C0590020215C0000271601000D5C000093
:100010000D5C00000D5C00000D5C000000000000A5
:10002000000000000000000000000000255D00004E
:100030000D5C000000000000BD5C00000D5C0000D5
:10004000155F00002F210100155F0000155F000003
:10005000155F0000155F0000155F0000155F0000D0
:10006000155F0000155F0000155F0000155F0000C0
:10007000155F0000155F0000155F0000155F0000B0
:10008000155F0000155F0000155F0000155F0000A0
:10009000155F0000155F0000155F0000155F000090
:1000A000155F0000155F0000155F0000155F000080
:1000B000155F0000155F0000155F0000155F000070
:1000C000155F0000155F0000155F0000155F000060
:1000D000155F0000155F0000155F0000155F000050
:1000E000155F0000155F0000155F0000155F000040
:1000F000155F0000155F0000155F0000155F000030
:100100007BB972B90029BEBF00204FF0004106E064
:1001100008BF00281CBF6FF000414FF0FF3000F017
:1001200057B8ADF1080C6DE904CE002909DB002BAE
:100130001ADB00F04FF8DDF804E0DDE9022304B03B
:100140007047404261EB4101002B1BDB00F042F89D
:10015000DDF804E0DDE9022304B0404261EB410137
:10016000524263EB43037047524263EB430300F098
:1001700031F8DDF804E0DDE9022304B0404261EB30
:1001800041017047524263EB430300F023F8DDF86E
:1001900004E0DDE9022304B0524263EB43037047FD
:1001A00053B94AB9002908BF00281CBF4FF0FF31DE
:1001B0004FF0FF3000F00CB8ADF1080C6DE904CE43
:1001C00000F008F8DDF804E0DDE9022304B0704730
:1001D000704700BF2DE9F04786468C460846089ECA
:1001E000154674461946002B40F0C2808542B2FA8B
:1001F00082F245D94AB1C2F1200300FA02FC2EFA7C
:1002000003F3954043EA0C0C94404FEA154EA8B214
:10021000BCFBFEF8230C0EFB18CC08FB00F943EAEC
:100220000C43994528D9EB1808F1FF3704D29945BA
:1002300002D9A8F102072B44A3EB0903A4B2B3FB34
:10024000FEFC0EFB1C330CFB00F044EA0344A0420E
:1002500014D92C190CF1FF3304D2A04202D9ACF10D
:1002600002032C44241A43EA07401EB1D440002361
:1002700034607360BDE8F0874746DDE76346F1E729
:1002800092BB431B01214FEA154EAFB2B3FBFEFCFC
:10029000200C0EFB1C330CFB07F840EA0343984587
:1002A00062D9EB180CF1FF3004D2984502D9ACF1B9
:1002B00002002B44A3EB0803A4B2B3FBFEFC0EFB2D
:1002C0001C330CFB07F744EA0344A7424ED92C1910
:1002D0000CF1FF3304D2A74202D9ACF102032C4443
:1002E000E41B43EA0040C0E7C2F1200320FA03F117
:1002F000954090402EFA03F303434FEA154EAFB2F8
:10030000B1FBFEFC0EFB1C10190C0CFB07F841EABC
:100310000041884504FA02F422D969180CF1FF3033
:1003200004D2884502D9ACF102002944A1EB0801AE
:100330009BB2B1FBFEFC0EFB1C110CFB07F743EA62
:1003400001439F420ED9EB180CF1FF3104D29F42BA
:1003500002D9ACF102012B44DB1B41EA004192E7D8
:100360006046E3E76146F7E76046A3E76346B7E721
:10037000834206D916B9002108467BE7C6E900E0AA
:10038000F9E7B3FA83F78FB9834201D3724508D8EE
:10039000BEEB020460EB030301209C461EB9002162
:1003A00068E73846FAE7C6E9004CF8E7C7F1200CE1
:1003B000BB4022FA0CF41C432EFA0CF120FA0CF389
:1003C000B84001434FEA14490EFA07F5B3FBF9F8B8
:1003D0001FFA84FE09FB18300B0C08FB0EFA43EAE7
:1003E00000439A4502FA07F240D9E31808F1FF30BA
:1003F00004D29A4502D9A8F102002344A3EB0A03D0
:1004000089B2B3FBF9F809FB183308FB0EFE41EA89
:1004100003418E452CD9611808F1FF3304D28E4573
:1004200002D9A8F10203214443EA0040A0FB02984C
:10043000A1EB0E014145CE46434602D306D14D45C0
:1004400004D2B9EB020E68EB04030138002EA6D0EB
:10045000B5EB0E0261EB030101FA0CFC22FA07F383
:100460004CEA0303F940C6E9003198E74046C5E786
:100470004346D9E710F8012B11F8013B012A28BFA8
:100480009A42F7D0D01A7047034611F8012B03F8AF
:10049000012B002AF9D17047034613F8012B002ADB
:1004A000FBD1181A01387047F0B5012987B004460E
:1004B0000D4627D10EF0E8FA0E4605460EF0E4FA96
:1004C000314AC0F30E03A3FB0231E80B40EA464079
:1004D000DB0B43EA4143F60BA0FB0201181802FBB9
:1004E000061141F1000126A3D3E90023FFF758FECE
:1004F000264ACDE900010221204610F065F90020CE
:1005000007B0F0BD0229FAD121495068FFF7B2FFC8
:100510000028F4D10EF0B8FA06460F460EF0B4FAF1
:10052000194AC0F30E03A3FB0231F00B40EA474027
:10053000DB0B43EA4143FF0BA0FB0201181802FB4F
:10054000071141F100010EA3D3E90023FFF728FEB4
:100550003C220023FFF7D4FD17461E463C22002311
:10056000FFF7CEFDCDE90476CDE90001CDE9022308
:100570002946084A204610F027F9C0E7AFF300806B
:1005800000CA9A3B0000000000CA9A3B1A480100CA
:100590000F560100294801002DE9F04706468AB0B0
:1005A0000F46904612F074FE4FF47A73A0FB034599
:1005B00003FB0155E40B012F44EA45444FEAD535CE
:1005C00008D1CDE900452A4A0821304610F0FCF850
:1005D000002013E0D8F8047026483946FFF74AFF98
:1005E00078B125483946FFF745FF50B13046234AD8
:1005F0003B46012110F0E8F86FF004000AB0BDE8B6
:10060000F0872046294618A3D3E90023FFF778FD99
:1006100005460C4610461946194A0023FFF770FD9F
:1006200080460F46104619464EF660220023FFF71B
:1006300067FD82468946104619464FF47A720023B8
:10064000FFF75EFDCDE904A9CDE90601CDE9082358
:10065000CDE90287CDE900540A4A0821304610F05E
:10066000B3F8B5E7AFF30080005C2605000000009A
:100670008F5C010031490100A05C0100A95C010010
:1006800080EE3600C05C01002DE9F047044690F88A
:10069000340094F82030404FC0F3400060F38613DC
:1006A0008CB084F8203004F1210111F045FC258D37
:1006B00094F82030E4614FF00008A5FB070103F037
:1006C0007903912606FB0511C4E9058884F82030DA
:1006D00084F800802EA3D3E90023304DFFF760FD9E
:1006E0003123C4E90238651B3823B5FBF3F5236BCE
:1006F000E362093398428EBF2361C4F82C802061E5
:10070000C4F804800646EDB211F009FC02230B93F5
:100710001D44234BCDE906430DF12C0A214BCDF8A6
:1007200020A00593236904934FF00009CDF80C90A5
:10073000B4F828C000F10908ACFB0701912707FBBA
:100740000C1113A3D3E90023FFF72AFD1046194625
:100750004FF47A720023FFF723FDEDB2CDE901607B
:100760000321CDF8009043462A46484611F0BCFBD1
:10077000514608F0BBF840B994F8343043F0010317
:1007800084F834300CB0BDE8F0870C20FAE700BFE5
:100790008D49FD1A07000000002AE7843C20002054
:1007A000F58600004D9A0000F8B504460020164674
:1007B0001F4609F0C7F9054628B390F83430018583
:1007C00067F3420380F834309DF818306401DB0091
:1007D00003F0180304F020041C4390F8203023F0A9
:1007E00038031C4380F820400B489124A6FB0001ED
:1007F00007A3D3E9002304FB0611FFF7D1FCC5E9E9
:100800000B000020F8BD0C20FCE700BFAFF3008018
:100810008D49FD1A07000000002AE784000000004F
:100820002DE9F041C46823796FF300038CB0237184
:100830000D4606460AF008F900200AF029F90021C1
:1008400008460AF017F90022252108200AF056F977
:10085000012008F0E7F8074660B95B4A5B495C484D
:100860004FF4C5730FF082F8404080F311884FF0C9
:10087000030002DF07F11C000AF06AF9554B0B93E5
:100880000BA80AF023F9544940F25B600AF0B4F96E
:100890002079C0F34100253009F07EFC4F48214605
:1008A0000AF0B2F823799B064CD596200AF0E6FAB6
:1008B00000231A46194618460AF066FAD4F8008052
:1008C0003768404611F054FC0744726807F109018B
:1008D00000200AF0DFFA0AF09DFB0AF077FA2046C2
:1008E00009F018F9811C3A46C9B2404611F04EFC95
:1008F000064650B3344A3A49354840F2E5130FF002
:1009000035F838480725A6FB00012DA3D3E90023BD
:1009100005FB0611FFF744FC3349024633480FF04C
:1009200025F8404080F311884FF0030002DF304883
:1009300021460AF069F80AF01DF96FF08B000CB03F
:10094000BDE8F08111F0A7FDB8E71DBB23690BB32B
:1009500040F2F3120892274ACDE90642264ACDE931
:100960000035CDE90452CDE902553B460122294626
:1009700011F0BAFA10F0FD0F0CD0134A1F491448B9
:100980004FF4FA730EF0F2FF404080F311884FF0FD
:10099000030002DF204611F0E9FB08B90020CEE792
:1009A000094A17490A4840F20B230EF0DFFF404086
:1009B00080F311884FF0030002DFEFE7AFF3008010
:1009C00000CA9A3B000000002B7A0100767A0100F1
:1009D000CD6F0100D6BE898E5555550029A6000061
:1009E000EB7B01008D49FD1ABA7A01007E7A010085
:1009F000EB2101000DA5000099A500007E79010002
:100A0000577601002DE9FF474FF0013301935D4810
:100A100012F02EF9002800F0B0805A4812F028F9A0
:100A2000002800F0AA80574812F022F9002800F0B0
:100A3000A480544812F01CF9002800F09E8052480F
:100A40000EF011FD0028C0F2988050480EF00BFD0A
:100A50000028C0F292804E480EF005FD0028C0F23A
:100A60008C804C480EF0FFFC0028C0F286804A4B78
:100A70004A4F18684A4D1B79DFF8288102908DF89B
:100A80000C306FF00B024FF0FF3302A938460DF027
:100A9000A7FB064610B10DF093FAF2E79DF8083077
:100AA000312B40D1404E0DF1080A01AC4FF0040942
:100AB0001AF8012F14F8013B312A1FD1012B16D04F
:100AC000012130460EF0E9FC012304F8013C2B68BB
:100AD00003F00703022B04D9344A032128460FF000
:100AE00051FCB9F1010906F10806E1D1D3E72B6801
:100AF00013F0060FF5D02E4A0221EFE76BB100216B
:100B000030460EF0CAFC002304F8013C2B6803F0C9
:100B10000703022BE5D9274ADFE72B6813F0060FFE
:100B2000DFD0254AE8E7DFF880A00DF1080901AC25
:100B300019F8013F312B06F1010617D19AF804305C
:100B4000DAF800000121994083685B6998472378AF
:100B5000013303F0010323702B6803F00703022B1A
:100B600004D90321424628460FF00CFC042E0AF15A
:100B7000080A04F10104DBD18DE7002004B0BDE8D0
:100B8000F08700BFFC380100503D0100483D0100E6
:100B9000403D0100383D0100117C010008040020A7
:100BA000000400202F470100183D0100E446010029
:100BB000EC46010007470100134701002DE9F3410E
:100BC0001E4D28688368DB6B33BB28688368DB6A4B
:100BD00043BB1B4C1B4E1C4F286883681B69F3B139
:100BE00001220DF107019847012818D19DF807202F
:100BF0000A2A01D00D2A19D12368002B16DD4FF0E7
:100C0000000806F803800F490022002338460DF043
:100C100091FAC4F80080DFE798470028D5D102B0E8
:100C2000BDE8F08198470028D3D1F8E723680E2B60
:100C30009EBF591CF2542160CEE700BF3001002056
:100C400038140020B62300209804002070B5064E0A
:100C5000451E00F10F04306815F8011F83685B68BA
:100C60009847A542F7D170BD300100201FB5114C47
:100C7000206811F0FDFF28B90F480EF06AFE002031
:100C800004B010BD2068836893B11B6C83B10B491D
:100C90000B4C0022984740F6CD420023694620467F
:100CA0000DF09EFA0028F6D16846FFF7CFFFF2E775
:100CB0000448E2E73001002073470100BD0B00004B
:100CC000980400208A47010038B55468054620463C
:100CD000FFF7E2FB042806D0104A082128460FF04F
:100CE00073FD002038BD631EE11C13F8012F303A5C
:100CF000012AF1D88B42F8D109490A4831230B70F7
:100D000023784B7063788B70A378CB70E3780B718A
:100D100040F2676200230EF0F3FBE2E7BD470100FB
:100D20005C0300200804002038B5546805462046BE
:100D3000FFF7B2FB042806D0104A082128460FF01E
:100D400043FD002038BD631EE11C13F8012F303A2B
:100D5000012AF1D88B42F8D109490A4830230B7097
:100D600023784B7063788B70A378CB70E3780B712A
:100D700040F2676200230EF0C3FBE2E7BD470100CB
:100D80005C0300200804002070B504298AB01446D2
:100D900068D14D495068FFF76DFBE0B94B4D2B68AA
:100DA00003F00703022B04D9494A032128460EF019
:100DB000A9FBA06812F048FCC0B28DF8030005380A
:100DC00003280BD92B6813F0060F04D0414A0221E7
:100DD0003E480EF097FB00200AB070BDE468204644
:100DE000FFF75AFB092802D163792E2B05D02B6817
:100DF00013F0060FEFD0384AE9E740F60533012635
:100E00002046ADF810308DF80460FFF745FB214611
:100E100082190DF1050012F0D3FC01AB04A8059373
:100E20000EF04FFB2D4840F21F52002306A90EF092
:100E300067FB38B12B68590704D0294A234831464B
:100E40000EF060FB274840F21F5200230DF1030112
:100E50000EF056FB0028BED02B685A07BBD0224AA2
:100E60000121B5E702292AD120495068FFF702FB8A
:100E70000028B0D1154C236803F00703022B04D9D6
:100E80001B4A032120460EF03DFB40F20523ADF83E
:100E900010300023ADF8043004A801AB05930EF028
:100EA00010FB0E4840F21F52002306A90EF028FB4B
:100EB000002890D023685B078DD0094AD0E70D4AFF
:100EC00008210FF081FC86E73A4801000004002069
:100ED0003D48010058480100C24801009804002024
:100EE0000A49010068040020FE4801003149010060
:100EF000344901004E49010001297FB506D16846F9
:100F00000EF0DFFA002007B05DF804FB024A08216A
:100F10000FF05AFCF6E700BF6E49010030B50446F9
:100F200089B0406812F090FBC5B2A0681D4C12F069
:100F30008BFB212D02D8C0B221280BD9236813F0D6
:100F4000060F28D0184A1748022109B0BDE83040E2
:100F50000EF0D8BA40F20533ADF8083000238DF812
:100F600005008DF8063002A801AB03938DF80450FC
:100F70000EF0A7FA00230D48002204A90EF0C0FAD3
:100F8000236850B903F00703022B04D9084A032150
:100F900020460EF0B7FA09B030BD5B07FBD0054A1A
:100FA0000121F5E7000400208B490100980400208E
:100FB000BA490100D3490100032908B504D11046FC
:100FC000FFF7ACFF002008BD024A08210FF0FCFB30
:100FD000F8E700BFF949010030B5044689B0406820
:100FE00012F032FBC5B2A0681D4C12F02DFB212D72
:100FF00002D8C0B221280BD9236813F0060F28D0DD
:10100000184A1748022109B0BDE830400EF07ABAFC
:1010100040F20633ADF8083000238DF805008DF856
:10102000063002A801AB03938DF804500EF049FA84
:1010300000230D48002204A90EF062FA236850B97B
:1010400003F00703022B04D9084A032120460EF0BF
:1010500059FA09B030BD5B07FBD0054A0121F5E71D
:10106000000400208B49010098040020184A010068
:10107000374A0100032908B504D11046FFF7ACFF39
:10108000002008BD024A08210FF09EFBF8E700BFD0
:10109000F949010070B5054688B0406812F0D4FAED
:1010A000C6B2A86812F0D0FA0446E868204D12F0E3
:1010B000CBFA212E05D8E2B2212A02D8C3B2212BC5
:1010C0000BD92B6813F0060F2AD01A4A18480221B0
:1010D00008B0BDE870400EF015BA8DF80630002358
:1010E00040F204418DF8073002A801ABADF80810BA
:1010F0008DF8052003938DF804600EF0E2F90023CB
:101100000D48002204A90EF0FBF92B6850B903F03A
:101110000703022B04D9094A032128460EF0F2F9ED
:1011200008B070BD5B07FBD0054A0121F5E700BFA1
:10113000000400208B490100980400201D4A010092
:101140003C4A0100042908B504D11046FFF7A2FF6C
:10115000002008BD024A08210FF036FBF8E700BF67
:10116000634A010070B504468EB0406812F06CFA14
:10117000C6B2A068304C12F067FA212E02D8C5B270
:10118000212D0BD9236813F0060F4AD02B4A2A4889
:1011900002210EB0BDE870400EF0B4B940F2023347
:1011A000ADF8083001238DF8003002A800238DF837
:1011B00002308DF80160CDF80CD00EF082F90023DA
:1011C0001F484FF4A47204A90EF09AF9236803F0A3
:1011D000070340BB022B04D91A4A032120460EF014
:1011E00091F902238DF8043000238DF8063040F287
:1011F0000233ADF8203001AB099311488DF805504A
:1012000000234FF4A4720AA90EF07AF9236803F0C0
:10121000070360B9022B04D90A4A074803210EF0DC
:1012200071F90EB070BD022BDBD9074AD5E7022B4E
:10123000F7D9054AF1E700BF000400208B490100FF
:1012400098040020834A01009A4A0100032908B546
:10125000104603D1FFF786FF002008BD044803684D
:1012600013F0060FF8D0034A02210EF04BF9F3E712
:1012700000040020BE4A010030B589B04068274C08
:1012800012F0E2F9C0B28DF80300053803280AD93C
:10129000236813F0060F04D0214A022120460EF0E5
:1012A00031F909B030BD40F20223ADF8083002A890
:1012B00001AB01250393ADF804500EF002F90023B1
:1012C000184840F21F5204A90EF01AF92368D0B949
:1012D00003F00703022B04D9134A032120460EF022
:1012E00011F90023114840F21F520DF103010EF0D5
:1012F00007F9236860B903F00703022BD1D90C4A20
:1013000003210648CBE75A07EBD00A4A2946E5E70E
:101310005B07C6D0084A0121F3E700BF00040020A4
:101320005848010098040020E64A010068040020A3
:10133000DA4A01000E4B0100024B0100022908B5F8
:1013400004D11046FFF798FF002008BD024A08218B
:101350000FF03AFAF8E700BF374B010030B589B01B
:101360004068274C12F070F9C0B28DF803000538C0
:1013700003280AD9236813F0060F04D0214A02215A
:1013800020460EF0BFF809B030BD40F20323ADF89F
:10139000083002A801AB01250393ADF804500EF00C
:1013A00090F80023184840F21F5204A90EF0A8F844
:1013B0002368D0B903F00703022B04D9134A032191
:1013C00020460EF09FF80023114840F21F520DF105
:1013D00003010EF095F8236860B903F00703022BB0
:1013E000D1D90C4A03210648CBE75A07EBD00A4A69
:1013F0002946E5E75B07C6D0084A0121F3E700BFAD
:10140000000400205848010098040020654B0100AA
:1014100068040020594B01008D4B0100814B0100F5
:10142000022908B504D11046FFF798FF002008BD37
:10143000024A08210FF0C8F9F8E700BFB64B0100D7
:1014400030B589B04068274C12F0FEF8C0B28DF874
:101450000300053803280AD9236813F0060F04D0C7
:10146000214A022120460EF04DF809B030BD4FF45C
:101470000173ADF8083002A801AB01250393ADF864
:1014800004500EF01EF80023184840F21F5204A921
:101490000EF036F82368D0B903F00703022B04D905
:1014A000134A032120460EF02DF80023114840F284
:1014B0001F520DF103010EF023F8236860B903F009
:1014C0000703022BD1D90C4A03210648CBE75A0760
:1014D000EBD00A4A2946E5E75B07C6D0084A012156
:1014E000F3E700BF000400205848010098040020E2
:1014F000E44B010068040020D84B01000E4C0100B1
:10150000024C0100022908B504D11046FFF798FFEC
:10151000002008BD024A08210FF056F9F8E700BF85
:10152000394C01002DE9F04FDFF8F8A0DFF8F8B0F2
:1015300089B0064600AF88460025012458F824905B
:1015400051464846FEF796FF38B359464846FEF7DF
:1015500091FF00285DD03548036803F00703022B94
:1015600012D96D468AB06A46314BD461C2E9053959
:101570004FF4007313842F4B42F8103F00234FF4B5
:10158000135101F0F7FCAD462B4A082130460FF00D
:101590001BF92437BD46BDE8F08F022C05D0032C83
:1015A00007D045F004050224C8E745F002050324EE
:1015B000C4E745F001051D4C236803F00703022B27
:1015C00005D91E4A2B46032120460EF0E4FE0123D6
:1015D0003B710023BB7140F201333B8107F10800EE
:1015E0003B1DFB607D710DF06CFF0023144840F241
:1015F0001F5207F110010DF083FF236803F007036A
:1016000058B9022BC5D90F4A084803210DF07AFFBB
:10161000BFE70134042C91D1CDE7022BB9D90A4A96
:10162000F2E700BFD6500100EB7B01000004002070
:101630005D4C0100040000016A4C0100A24C010055
:1016400098040020AC4C0100C44C0100042908B5EA
:1016500004D11146FFF766FF002008BD024A0821A9
:101660000FF0B2F8F8E700BFE94C01002DE9F04FA8
:101670008BB0814602AF8068494D11F0E5FF5FFAFB
:1016800080F8D9F80C0011F0DFFF0646D9F81000F9
:1016900011F0DAFFB8F1210F044605D8F6B2212E79
:1016A00002D8B0F5803F07D92B6813F0060F18D089
:1016B0003C4A02213A4812E0D9F804A03A4950467F
:1016C000FEF7D8FE88B139495046FEF7D3FE60B127
:1016D0002B6813F0060F04D0354A022128460DF07E
:1016E00011FF2437BD46BDE8F08F40F2036350463A
:1016F0002D493B81FEF7BEFE2B68002803F007034F
:1017000014BF4FF0020A4FF0010A022B1FFA84F9AE
:1017100013D9EB468AB002AA264BC2F82490C2E93C
:10172000053A0623C2E9078642F8103F1C48002309
:101730004FF4435101F01EFCDD462A6802F0070217
:101740004FEA1923022A9946E4B205D91A4A1448E5
:10175000009403210EF029FE002307F108007B719D
:1017600087F800A087F80180BE7087F803903C716D
:10177000FF600DF0A6FE002310484FF4A47207F19D
:1017800010010DF0BDFE2B6803F0070320B9022BFA
:10179000A7D90B4A03218DE7022BA2D9094AF9E701
:1017A000000400208B490100E36A0100C47D0100B0
:1017B0000A4D0100504D0100774D010098040020B2
:1017C0008C4D0100A24D0100052908B504D1104639
:1017D000FFF74CFF002008BD024A08210EF0F4FF7D
:1017E000F8E700BFC54D010070B503788AB0044624
:1017F0000E4607AD032B20D8DFE803F002191B1DAE
:1018000011492846FEF740FE059563780493A378B6
:101810000393E37802932379019363790093A37987
:101820000A4A1E2130460DF0B9FA0AB070BD0849C7
:10183000E7E70849E5E70849E3E7084A0A212846B7
:101840000DF0ACFAE0E700BFF95301001B540100B2
:101850000054010007540100115401002B700100D5
:1018600030B58BB0044602A91D46FFF7BDFF1B49EA
:101870000722204611F0ECFE68BB02A92046FFF7C4
:10188000B3FF2B685A794C2A25D19A791ABBDA7999
:10189000022A20D11A7A152A1DD15A7E8DF80420E9
:1018A0009A7E8DF80520DA7E1B7F8DF806208DF854
:1018B00007300B484FF4A472002301A90CF03AFC46
:1018C00048B10848036803F00703022B03D9064A0E
:1018D00003210EF057FD0BB030BD00BFC623002022
:1018E00038040020000400203E540100F0B589B007
:1018F00000AF0D4639461E461446FFF775FF0F48E8
:10190000036803F00703022B15D9B3886E468CB029
:101910006A460B4953624FF400731385094BC2E9C1
:101920000517C2E9075442F8103F00234FF4535102
:1019300001F020FBB5462437BD46F0BD0004002071
:1019400062540100060000012DE9F04188B000AFAB
:1019500080460D4639461E461446FFF745FF13499B
:101960000722404611F074FE0346D8B910480268B9
:1019700002F00702022A15D9B1886E468CB06A4679
:10198000DFF830C051624FF4007111850A49C2E995
:1019900005C7C2E9075442F8101F4FF4535101F034
:1019A000E9FAB5462037BD46BDE8F081CD230020D9
:1019B00000040020625401000600000110B5002060
:1019C00005F076FC044608480FF0C2FF54B1074802
:1019D00003685B0706D0064A23460121BDE8104094
:1019E0000EF0D9BC10BD00BF9754010000040020C8
:1019F000AB54010010B505F0E1FC034648B10548C1
:101A00000268520705D0044ABDE8104001210EF0DB
:101A1000C2BC10BD00040020D554010030B503291C
:101A200087B00546144626D128495068FEF722FDA6
:101A3000014680B9142201A811F0EAFE244B254A80
:101A40002549A068039304F0D7FC30B123486FF018
:101A500015010DF07EFF07B030BD214901A806F049
:101A600047F8014608B11F48F3E71F4A08212846F6
:101A70000EF0AAFEEFE702291CD11C495068FEF7C0
:101A8000F9FC0028E7D106F0F9F8034650B11848F0
:101A900002685207DFD0174A012107B0BDE8304085
:101AA0000EF079BC144A0821284607B0BDE8304042
:101AB0000EF08ABE0E48036813F0060FCBD00F4A13
:101AC000022107B0BDE830400EF05CBC3A4801008E
:101AD00060003000C623002000540100F9540100CA
:101AE000611800001355010035550100314901000E
:101AF000000400204E55010070550100855501007D
:101B000070B5022986B00D4614464CD15668484936
:101B1000484C3046FEF7AEFCE8B9236803F00703F3
:101B2000022B04D9444A032120460EF02BFC142238
:101B3000002101A811F06CFE404B4149039301A81C
:101B400005F0D6FF014608B13E4856E03E480DF08C
:101B500000FF06B070BD3D493046FEF78BFCD8B99A
:101B600006F08CF8034650B122685107F1D0384A8C
:101B70000121204606B0BDE870400EF00CBC236881
:101B800003F00703022BE4D9324A0321204606B0B2
:101B9000BDE870400EF0F6BB236813F0060FD8D0F6
:101BA0002D4A2946F2E704293AD121495068FEF727
:101BB00061FC0028CDD12949A068FEF75BFC002814
:101BC000C7D11C48036803F00703022B03D9244A3A
:101BD00003210EF0D7FB1422002101A811F018FEFA
:101BE000204B2149E0680122CDE902231F4A04F07D
:101BF00003FC28B11E486FF015010DF0AAFEA8E7FE
:101C00001C4901A805F074FF014600289CD10E482C
:101C10000DF09FFE154A1449E06804F0EDFB98E7CB
:101C20000448036813F0060F93D00B4A0221AEE775
:101C30003A48010000040020A155010000083000CE
:101C4000ED180000B0550100D055010031490100E8
:101C5000E555010000560100855501000E560100B2
:101C6000115601006000300000540100CD23002017
:101C7000F9540100491900002DE9F0418AB000240F
:101C8000274F284EDFF8A0808DF8034025469DF8A9
:101C900003302BB38DF8083080238DF809308DF890
:101CA0000B30002340F601028DF80D3004A802AB82
:101CB000ADF810208DF80A508DF80C4005930DF00A
:101CC00000FC0022002306A938460CF033FA38B194
:101CD00033685B0704D00121424630460EF052FBC8
:101CE00040F6CD4200230DF1030110480CF078FAC4
:101CF0000F484FF4A472002301A90CF071FA48B9FF
:101D00009DF804209DF803309A4204BF9DF80650C8
:101D10009DF80740002140F267600CF0D5F9B6E766
:101D200098040020000400202C56010068040020C4
:101D3000380400202DE9F04107460E46154600F014
:101D40008FF8C36804461BB943691A78002A41D149
:101D50000023E3606368BB4256F8232008DB324B64
:101D60006361204600F062F84FF0FF30BDE8F0817B
:101D7000511C616192F80080B8F12D0FEFD1911CD8
:101D800061615178A1602D2904D192786AB901333B
:101D90006360E4E749B9244B63614146284611F08A
:101DA00067FC0028DDD0C4F80880D4F808802846F5
:101DB000414611F05DFCB8F13A0F636900D070B98B
:101DC0001B7813B9636801336360204600F02EF876
:101DD0003F20CBE75A1C42611B788360E5E74278DD
:101DE0003A2A0BD0002222611B7813B963680133B1
:101DF0006360204600F01AF8A068B7E718786268B8
:101E0000094928B901329742626004DD56F8223050
:101E1000C4E90431EAE761612D783A2D2046D5D135
:101E200000F004F82846A1E7A14C0100074B026826
:101E30001A60074B42681A60064B82681A60064BAC
:101E4000C2681A60054B02691A6070475001002091
:101E50004C01002044140020401400203C140020B9
:101E600000487047340100202DE9F04F91B08407FD
:101E7000009302F004030293C2F3C20303F10103CF
:101E8000DDF86890039205460E46059340F0BA814E
:101E9000041D30B1072909D86FF01B0011B0BDE84F
:101EA000F08F01F00706341DC6F10806009B4FF0C5
:101EB0000008591E4FF0040A4FF0FF330193CDF88C
:101EC00010804746C34653460DB1009A22600598DC
:101ED000002800F3E8809848009A824203D397488C
:101EE0008242C0F0E080039AA4EB050E92074FEA0D
:101EF0009E0000F103810F2F00F2B180002D00F051
:101F0000058107F140020DEB020C019A0CF8200C40
:101F10000CF8102C049801300490E7E07A285DD882
:101F20004B280ED8472859D829282DD8252852D0F3
:101F300054D820287AD02338D0F1000B4BEB000B7B
:101F400074E04C382E2849D8DFE800F07048484843
:101F500048484848484848484B48484848484848FE
:101F60004859484B4B595959704B6D487048184B5C
:101F7000184848827F4B48484B487F0000204FF06C
:101F8000000B4FF0040A38E02A38C0B2012202FAEE
:101F900000F010EA0E0F49D110F0625C2FD110EA68
:101FA000020B43D06046013C5444B4FBFAF40AFBF4
:101FB00004F4002D61D0A3EB050CA444B4453FF616
:101FC0006BAF002868D1042B47D159F8043B23603C
:101FD000043404232AE0019A013A01924FF0000BE5
:101FE00024E011F8010C6C2834D111F8023C0020D7
:101FF0006C2B8346C5D14FF0080A5346D3E709F14D
:10200000070929F007090734F9E802AB24F00704AF
:1020100035B106982044B0423FF63EAFC4E900AB6C
:1020200008344FF0000B4FF0080A534611F8010F27
:10203000002878D0BBF1000F7FF470AF2528F5D1D0
:10204000019B013301934FF0010B4FF0040AECE7C1
:10205000584694E700208346A5E7082B02D06FF08E
:1020600015001BE709F1070929F00709F9E8022320
:10207000C4E9002308340823D8E768B9042B02D147
:1020800009F10409A4E7082BE9D109F1070929F0AE
:10209000070909F10809EDE7059A013A059259F88F
:1020A000042B009210E7039A900720D5A4EB050EAD
:1020B0004FEA9E004FF0010CBEF5007FCFD20F2FEC
:1020C000CDD8F5B107F140020DEB020EC0B2019A76
:1020D0000EF8200C0EF8102CBCF1000F3FF41AAFD4
:1020E00060F07F000EF8200C08F101080137C5F1FF
:1020F0000802043406924FF6DA7E97E74FF0000CA0
:10210000DAE7BCF1000F01D00136EFE702980236A2
:102110000028EBD10098CDE90631FEF7BDF9DDE9E5
:1021200006310644E2E7631BB3F5806F97D23DB9F1
:10213000A6F10804E018B1E644380100587E010019
:10214000029A28609B082B709DF81030C2B1EB708A
:1021500085F80280B8F1000F05D008A80022C5F16B
:10216000010C97420ED1C5F101030DF120094FF08A
:10217000000A01930DF1300B574512D1601B8DE61B
:102180006B70E5E710F8013B190608D504EB0C0E5F
:10219000B64503F07F033FF67FAE04F8013B013202
:1021A000DFE7B8F1000F03D099F90020002A17DB10
:1021B000029BD3B11AF80B2004F8012B0022019BDB
:1021C00098182044B0423FF667AE99F8000004F832
:1021D000010B00990392204611F0F2FA039A14447D
:1021E0000AF1010A09F10109C6E799F8002055F83A
:1021F00022300093029B45F822300098FEF74CF9FC
:10220000421CDCE76FF00D0048E600BF2DE9F04FFF
:1022100097B000AF90F802A0D7F880B03B62CBF344
:10222000C0030446FA62BB61894641B9457800782B
:102230000AEB800020444D4517D8A0EB0409E37851
:10224000FB61BAF1000F02D01BF0010F16D1FB6940
:1022500053BBFB6A1BB13A6A4946204698474D4634
:1022600028465C37BD46BDE8F08F461C3046FEF779
:1022700013F90130304409F10109DCE72378626881
:102280007A62FA6A9900796104EB8301002A40F0CE
:1022900004814D460E4601EB0A094FF000084E45F9
:1022A00050D101EB0A0610E01BF0020FD1D02378C9
:1022B0009A007A6162687A62FA6A04EB8301002A02
:1022C0007BD14D4601EB0A0690461BF0050F0CBF73
:1022D00002230123FB62FB6906EB430A0BF00203B6
:1022E000BB625645BCD016F8021B16F8013C54F8E8
:1022F00023909B4B994502D39A4B99453AD3BB699E
:10230000002B44D0786A0DF0FBFA00283FD09648A5
:10231000036813F0060F13D0E9468AB06A46934B60
:1023200053617B6AC2E906314FF400731384904B0A
:1023300042F8103F00234FF4125100F01BFECD462F
:10234000023DCEE716F8013BF96254F82300FEF790
:10235000A3F8D7F88430F96A01304BB1D7F8883048
:1023600098453EBFD7F8843023F8180008F10108DB
:10237000054494E7BB6923B1786A0DF0C1FA0028DF
:10238000C5D11BF0010F05D1FB6AED1AA9E7BB6AA5
:10239000002BA6D04846FEF77FF8D7F8843053B11B
:1023A000D7F8883098453FBFD7F88420431C22F8DF
:1023B000183008F10108054493E7BAF1000F72D014
:1023C0001BF0040672D0D046002607F148005246A2
:1023D0003B61B96211F0F4F9B96A3B6901EB0A0299
:1023E000BA62FA69F9695200FA60BA6A02EB41020C
:1023F0003A610BF00202BA603A69B96A8A4257D16F
:1024000062787A621BF0020F32440CBF4FEA580127
:1024100000211BF0010FD2B240F09F801BF0040F8F
:1024200014BF40460020BB616270A070E1703A6A40
:102430007969FB6A20469847051EFFF611AFBB6914
:1024400023707B6A6370FB69E37041463A6AFB6AFA
:1024500084F802A007F148009847B0F10008C0F2E4
:10246000B5807B693A6AA9EB0A01C91AFB68C91AE7
:10247000D7E90A0398470028C0F2AA80A84408EBCD
:1024800000054FF0000B07F1380AB34572D3002165
:102490003A6AFB6A08469847E2E656464FF000085B
:1024A00007F1380093E75646D04697E7B04695E7E0
:1024B000BA6A12F8021BBA6212F8015C284A54F890
:1024C0002500904202D3274A90421ED3BA6932B106
:1024D000786A7B600DF014FA7B6800288CD1BA68AA
:1024E00002BB08F1280207F1300C08F10100944406
:1024F00007F1580252FA80F008F102080CF8101C9B
:102500005FFA88F800F8105C76E7BA693AB1786A41
:102510007B600DF0F5F97B6800287FF46DAF1BF050
:10252000010F09D006F1280207F13000711C1618BE
:1025300006F8205CCEB25FE71BF0040F3FF45CAFFF
:1025400008F1280207F1300008F1010102EB000850
:1025500008F8105C5FFA81F84EE7002063E700BFDF
:1025600044380100587E0100D003002022570100AA
:10257000040000011BF80A3087F8373054F8239024
:10258000D7F88430FBB133F81B803A6AFB6A01212B
:1025900007F13700984700281ADB0544B8F1000F0F
:1025A00006D14846FDF778FF00F101081FFA88F8C8
:1025B0003A6AFB6A414648469847002808DB0544CA
:1025C0000BF1010B61E7D7F88480DEE7454647E66B
:1025D000054645E6014B1860704700BF54010020D6
:1025E00080B505460E46174698460BF08BFD034610
:1025F00011F01EF9DFF81890044649F80030424601
:1026000030463946A84754F8090003F027FB00BFBD
:10261000080000002DE9F047058B04462807904686
:1026200011D4022905F0070540F0CD8020460DF0B9
:1026300064FC78B10138218B042811D8DFE800F060
:10264000C3106D85950001290CBF45F0100545F0BC
:102650002005258388F31188BFF36F8FBDE8F087CD
:1026600001F0070AAA4500F0A6800027B9463E46B9
:10267000A368002B00F0BD8041F00801218388F39E
:102680001188BFF36F8FA168002900F0BB800D682F
:10269000002900F0B780D1F8048033465246204626
:1026A000C047002D76D02B6829461D46F0E701F083
:1026B00007035A1F012A1BD8002221F00701062B0D
:1026C000276889B2C4E9002209D13B4603E0628B46
:1026D000013262831B68002BF9D141F00201218392
:1026E00020460DF00AFC00287BD041F0200177E065
:1026F000042B0AD121F0070189B2218320460DF075
:10270000FCFB10B141F020012183218B01F0070A6D
:10271000AA4550D00027B946AAE7236921F007014E
:1027200041F00601062DD3F8009021832DD1B9F197
:10273000000F40D041F00801218388F31188BFF3D6
:102740006F8F3A492046C84729E021F007012369E5
:1027500041F0040189B2042DD3F804902183E6D01E
:1027600000273E464FF0040A82E721F00701236963
:1027700041F0050189B2052DD3F808902183D6D008
:1027800000273E464FF0050A72E700273E464FF00D
:10279000060A6DE72B4687E7B9F1000FD1D14FF05C
:1027A0002003EFF3118883F31288BFF36F8F238B1D
:1027B00023F008032383258BEA062ED525F010038A
:1027C000238305F007056669218B002EBFF66FAFE6
:1027D00000232768C4E9003321F0070141F001011B
:1027E0002183218B01F0070AAA454FF000097FF4ED
:1027F0003FAF002F9BD041F00801218388F311885F
:10280000BFF36F8F002FC7D03D683946334652461D
:1028100020460DF09EFB2F46F4E7AB067FF51AAF7E
:1028200025F02003238305F00705FFE67FFF000066
:102830002DE9F047DFF85880044607464FF00109BC
:1028400014B93846BDE8F08794FAA4F5B5FA85F5D1
:1028500009FA05F32E0108EB05156FEA030A24EACD
:1028600003042B7B002BEBD058F806301B694BB9C7
:102870004644042273682846196807EA0A0700F0EC
:1028800039FBDDE7284698470028D9D1F0E700BF9B
:10289000083C010030B51049104889B0002210F002
:1028A0003EFD0F4D0F4900220023CDE906230024F1
:1028B0000E23CDE90334CDE901440B4B00944FF4D2
:1028C000407228460BF0CEF8084928460AF0FAFF75
:1028D000204609B030BD00BFF1280000500C002098
:1028E0009007002040360020112C0000165C0100EB
:1028F00001480BF0BBBD00BFC80400202DE9F04724
:1029000080461F480F460DF0A3FC0646002830D035
:1029100000252846BDE8F087237B73B12368DB6878
:102920000BB12046984723681B69D3B9636804221A
:102930001968204600F0DEFA013610344C45EBD31E
:10294000B8F1000FE5D0002DE2D02846FFF770FF68
:102950000546002FF7D000214FF4A4700BF0B4FB14
:10296000F1E7204698470028E0D00AFA06F31D4315
:10297000E2E7044CDFF8109005464FF0010ADDE76E
:1029800058140020083C0100183C010008B503461B
:1029900008462BB1044A136000F0A8FD002008BDD2
:1029A0006FF01500FBE700BF5801002010B5044C84
:1029B000237813B903480BF059FD0123237010BD90
:1029C000D4230020C804002010B5044608480DF0A8
:1029D0003FFC5CB1BFF35B8F064B53E8001F01392E
:1029E00043E80012002AF8D1BFF35B8F10BD00BF8F
:1029F00050140020541400200020064BBFF35B8FBE
:102A0000014653E8000F43E80012002AF9D1BFF352
:102A10005B8F70475014002070B5FFF7EDFF084C36
:102A2000084E0546B44200D370BD63685B792BB194
:102A300023685B6813B12946204698471034F1E7B4
:102A4000083C0100183C010010B5044C0449204624
:102A50000DF093F8034B1C6010BD00BF7003002005
:102A6000EC3E010048140020094A0A4808B500233A
:102A70001370094A1360094A4FF400411360FFF7CD
:102A800085FFFFF7E1FFBDE8084000F089B900BF0E
:102A9000D52300204D0201005014002054140020C2
:102AA00001460022014800230DF088B87003002081
:102AB00001480DF021B900BF70030020024B014610
:102AC00018680DF06BB900BF4814002001480DF0E4
:102AD000A1B900BF70030020F8B5354B1878002865
:102AE00064D0FFF7E5FF044690B1BFF35B8F314B35
:102AF00053E8001F013943E80012002AF8D1BFF360
:102B00005B8F2D4D2D4EB5422DD32046FFF7D6FFBE
:102B10002B4B2C4C1B68002B19DD10F0B9FB4FF42C
:102B20007A72A0FB020302FB0131C30BD4E900203F
:102B300043EA41439B1A4FEAD13140F2E93261EB5B
:102B40000001934271F1000101D3FFF765FFD4E961
:102B5000003213F57A7342F10002C4E90032BDE895
:102B6000F840FFF7B3BF6B685B793BB121784B0747
:102B700006D52B6821461B68284698471035C2E7C2
:102B80002388626813F4E07FC3F38217C1F3C201A4
:102B9000EFD0002AEDD00C4BD21A42F38F02012362
:102BA000284600F0C1F9B842E8D3E2E7F8BD00BF1B
:102BB000D423002054140020083C0100183C0100DC
:102BC00050140020480C0020B403002070B50D4DB7
:102BD000297861B90120FFF791FE0B4C0B4EB442EE
:102BE00006D3FFF779FF0028FBD101232B7070BDBE
:102BF00063685B791BB1236820469B689847103453
:102C0000EDE700BFD5230020083C0100183C01007F
:102C100000212DE9F0470846FFF770FE044658B33F
:102C200040F267684FF0000910F002FE1B4B1C4A8F
:102C30001B58136033B11B4B1B68092B02DD1A486C
:102C40000BF014FC194FDFF860A0002544B12046BA
:102C5000FFF7EEFD044618B94FF0FF384FF0FF398B
:102C6000FFF73AFF064628B9B5B942464B465046EB
:102C70000BF022FC3546E9E74FF0FF384FF0FF3903
:102C8000D2E72B689B691BB1002211462846984762
:102C90001035BD42F5D3E8E7054DFAE7080000001E
:102CA0004C14002054140020C8040020183C0100DB
:102CB000083C010013B518480DF0CAFA174B1B78F1
:102CC0007BB14FF02003EFF3118483F31288BFF33D
:102CD0006F8FFFF701FF84F31188BFF36F8F02B08E
:102CE00010BD0F4B1B68002BF9D050B900220023F8
:102CF000CDE900230B484FF4004200230BF050FFB6
:102D0000EDE70928EBD1074810F015FB064802B0A3
:102D1000BDE810400BF0AABB54140020D5230020BE
:102D20004C140020500C0020C804002010B5064BA5
:102D30001B68044698472146A06004480CF0BCFF7D
:102D4000BDE81040FFF7B6BF580100207003002017
:102D500008B50A46014602480DF069F8002008BD92
:102D600070030020014601480DF06CB8700300208C
:102D7000024B0348C01AC008704700BF603B010007
:102D8000083C0100044A054B9B1AB1EBD30F34BF3A
:102D900052F8310000207047603B0100083C010000
:102DA0000B480C4B30B51B1A0B4CDB0800210430D0
:102DB000994200D130BD10F83120256802F0070299
:102DC00025F007052A4344F8042B0131F0E700BF42
:102DD000603B0100083C0100B4030020F8B50B4F34
:102DE0000B4DED1B0646ED080024AC4203D14FF01D
:102DF000FF342046F8BD57F8340020B13146FDF7C6
:102E000039FB0028F5D00134EFE700BF603B01003B
:102E1000083C010000282DE9F843884615461F4666
:102E200017DA234E234B4FF00009F61A36094C46A9
:102E3000B14502D12046BDE8F88348463B462A46C4
:102E40004146FFF7E7FF844238BF044609F1010914
:102E5000EEE7194B194AD21AB5EBD20F26D203EB83
:102E6000C5031C79BC4228BF3C46154EC0B200EBDE
:102E7000400056F825300722824023EA020304F07E
:102E80000702824013430021032223FA02F000F0DC
:102E90000700814202F1030238BF01461E2AF4D125
:102EA00023F007030B4346F82530C3E70024DCE793
:102EB000183C0100083C0100603B0100083C010097
:102EC000B4030020F8B5094D094BED1A06460F462C
:102ED000ED080024AC4200D3F8BD002122B23B46ED
:102EE000304601340DF0D4F9A4B2F3E7083C0100F8
:102EF000603B010038B50B4BC31A0D461B11114640
:102F0000426801331371436804469971FFF7DAFF91
:102F100063681D60636801225A71BDE83840FFF79D
:102F200045BD00BF083C010070B14168097973B12B
:102F3000002A17DBCBB20C4951F8220003EB430304
:102F4000D84000F0070070474FF0FF31EFE7074926
:102F50000748401AB2EBD00F3ABF01EBC201087923
:102F60001846704704207047B4030020603B0100FE
:102F7000083C01002DE9F04F8FB004AFC1F34A289F
:102F8000B8600D4691467B600C0DB8F1000F67D01C
:102F9000002607F114034FF0040B4FF00A0AC7F89C
:102FA0000C80C7E907667E620193CDF808B0CDF8C2
:102FB00000A007F11C03F96832464846FFF726F9DE
:102FC000B0F5006F034620D32A48036813F0060FBC
:102FD00017D06C468AB0D9F8041004AB264DC3E96B
:102FE000055140F2FF71D9611A464FF400711984FE
:102FF000224B42F8103F4FF412513346FFF7BAFF0D
:10300000A5462C37BD46BDE8F08FC0F30A0804F191
:103010001700184420F0070080083B60FFF740FDD0
:1030200068F35325044690B13B68154AC7E9083652
:1030300000F1100107F11403F961CDE900A3CDF807
:1030400008B0F96807F11C034846FFF7DFF868F39A
:1030500053257B68B9682A4620460DF043F9D0E72E
:1030600004F1170020F007008008FFF719FD04465F
:10307000EDE700BFDC030020E3570100040000017E
:10308000B90201002DE9F04F87B0DDE91269DDE9F1
:10309000105A04460F4693469846A6B31021CDF821
:1030A0000090334652460020CDF81490FEF7DCFE27
:1030B000014605F117000844144B039104F007047E
:1030C0000BF0070BE40020F0070003EA412344EA79
:1030D0008B1480081C43FFF7E3FC44EA05540546C3
:1030E00040B13EB10399CDF80090334652461030BE
:1030F000FEF7BAFE434622463946284607B0BDE8E9
:10310000F04F0DF0EFB83146D3E700BF00FE0F00DF
:103110000EB403B503AB014653F8042B04480193E6
:1031200003F0A2F802B05DF804EB03B0704700BFF3
:10313000F7030100CA0605D48B064CBF02490349B8
:10314000FFF7E6BF704700BFA04C0100D658010052
:103150002DE9F04F89B09B46149B06939DF84CA037
:10316000159B0593169B179E049304460D469046A7
:10317000BAF1000F00F09D8006F4807307930DF004
:1031800085F806F00209024600283ED09149204603
:10319000FFF7BEFF0746B9F1000F08D016F0440F45
:1031A00035D18D492A462046FFF7B2FF074406F085
:1031B000010353B1894B8A4953F82A20894B204691
:1031C000002A08BF1A46FFF7A3FF06F48073002BFE
:1031D00049D006F00803002B63D1B8F1000F66D088
:1031E000814942462046FFF793FF0546069B3D4432
:1031F000002B6DD1049B002B73D1F30700F1E48009
:1032000031462046FFF796FFD8E00746C3E7774BE5
:1032100018680028CAD0764B4FF47A791B68B5FB42
:10322000F3F54FF46161B5FBF0F300FB135509FBB7
:1032300005F54FF03C0CB3FBF1F201FB1231B5FB8D
:10324000F0FEB1FBFCF300FB1E550CFB131109FB58
:1032500005F50091B5FBF0F56649CDE901E520469D
:10326000FFF756FFA2E706F00803EBB1624B634994
:1032700053F82A202046FFF74BFF0546B8F1000F10
:1032800005D0594942462046FFF742FF0544BBF1AD
:10329000000FABD05A495A462046FFF739FF054484
:1032A000A4E74FF0000BE1E706F00805E6E7454626
:1032B0009CE7BBF1010F069B06D1002B64D1049B58
:1032C000002B7BD000250CE0002BF8D04D485CE0B3
:1032D0004D48069B4D4922460CF0E1FA049B002B19
:1032E00068D0DFF82C81DFF82C91049F3146102F35
:1032F000204628BF1027FFF71DFF4FF0000B5D454C
:1033000045DC059B49461A782046FFF701FF4FF040
:10331000010B1BF0070F03D141462046FFF7F8FED3
:103320005F453BD9059B494613F80B202046FFF724
:10333000EFFE0BF1010BBBF1100FEAD1364920462D
:103340004FF0000BFFF7E4FE5A46059B9A5CA2F192
:1033500020015F2928BF2E2230492046FFF7D8FEE2
:103360000BF1010BBBF1100F1DD01BF0070F03D1A8
:1033700041462046FFF7CCFE5F455A46E5D8414618
:103380002046FFF7C5FEEBE71F485546A1E741463B
:103390002046FFF7BDFE0BF1010BB0E720492046A8
:1033A000FFF7B6FEC5E7059B3B440593049BDB1B7B
:1033B00004939AD1BAF1000F7FF41FAF204609B0F1
:1033C000BDE8F04F0DF00AB8064A05492046FFF760
:1033D0009FFE15E7275801002B580100003F010010
:1033E000256001002258010050580100601400209F
:1033F0005C14002034580100143F010054580100AF
:103400005A5801002D040100F70301006962000011
:10341000675801005F580100695801006B580100AE
:10342000655801002DE9F0410F884B688E6886B021
:1034300005460C469046C7F382175BB1144A9B1AA7
:1034400043F38F01002920DB2078C0F3C200FFF78F
:1034500099FC03462146608851F8102B0197C2F36E
:103460004A22002A01EB0204C0F30B1008BF00211E
:103470000022CDE90408CDE9021400923146284625
:10348000FFF766FE06B0BDE8F0810023E2E700BF6B
:10349000B403002073B542F20F738B4228BF0B4672
:1034A00005680F4A0446052168460BF077FC6368FF
:1034B0000C495B680646042228460CF082FF6368CC
:1034C0003246694628465B680CF07BFF6368064914
:1034D0005B68172228460CF074FF02B070BD00BF75
:1034E0006E770100865801006E580100074A0021DE
:1034F0000123904206D8064A01B901231360054B07
:103500001860704740085B000121F2E740420F005D
:103510005C1400206014002000230428CB604B6062
:1035200098BF044B044A98BF53F820308A600B6060
:10353000704700BF84400100C43C01000023084ADA
:103540000B60CB604B608A60064B074AD21AB0EB27
:10355000121F3EBF03EB00139B680B60704700BF58
:1035600008400100083C0100183C01000023064A05
:1035700010B50C46CB604B608A6001461846FFF7D9
:1035800001FC206010BD00BFC43C01002DE9F341E7
:103590000E4C0F4E0F4FDFF840800546B44203D368
:1035A000002002B0BDE8F081636859791B790029D9
:1035B0000CBF3A464246CDE900230821A368074ADA
:1035C00028460DF001F91034E8E700BF083C01007F
:1035D000183C0100AF580100A7580100B85801007D
:1035E0002DE9F74F044600200D46FFF7C1FB0746C3
:1035F0003DB16B685B7923B91E4A032120460DF06B
:10360000E3F81D4B1D4ADFF878A0082120460DF095
:10361000DBF81C4A082120460DF0D6F84FF00008D0
:103620000FFA88F6BE4208F1010803D3002003B068
:10363000BDE8F08F3246012300212846FFF774FCD5
:1036400000233246194681462846FFF76DFC314675
:1036500083460020FFF796FB5AF82B2001925AF878
:10366000292000920346084A082120460DF0ACF8B4
:10367000D6E700BFD9580100EB580100F758010008
:103680009840010015590100525901002DE9F84FE9
:1036900052F8048C134D064640469B468A46174610
:1036A000FCF7FAFE104B81469D4208D30F4A434671
:1036B000012130460DF088F86FF007040CE0A9688E
:1036C0004A4640460FF0E1FF074B044638B93B46F7
:1036D000524629463046D8472046BDE8F88F103577
:1036E000E2E700BF083C0100183C010066590100F8
:1036F00008B5024BFFF7CAFF002008BDE135000006
:10370000014BFFF7C3BF00BF49040100014BFFF7A6
:10371000BDBF00BF51040100014BFFF7B7BF00BFA1
:10372000B9380000014BFFF7B1BF00BF9D04010095
:103730001FB5044602A901A8FFF70AFB002808DA12
:103740002046164A01210DF03FF86FF0070004B043
:1037500010BD134A082120460DF036F8019B114A8E
:10376000082120460DF030F8029B0F4A0821204620
:103770000DF02AF803A8FFF7F5FA002806DA0B4A3D
:10378000082120460DF020F80020E0E7039B084ABE
:10379000082120460DF018F8F6E700BF7B5901001C
:1037A000AC590100D4590100E9590100065A010041
:1037B0003E5A010010B5C3699B681C792CB9044AB4
:1037C00001210DF001F8204610BD0120FCE700BFEB
:1037D000585A01002DE9F04F074685B088469946B2
:1037E0001546002A39D11046FFF7C2FA0646B8F14D
:1037F000000F08D0D8F804305B7923B92A4A032196
:1038000038460CF0E1FFDFF8A4B00024B44221DA1E
:103810003DB359F8243002930020FFF7A9FA0023A2
:1038200082469A450CD0194600200393FFF7AAFA66
:10383000029940220FF029FF039B80B9002B2CDA5C
:1038400059F824301A4A0121384601340CF0BCFFE3
:10385000A642DEDC05B0BDE8F08F1646C7E70133AF
:10386000DFE7A24600210E9B22B240460CF010FD7D
:103870000E9B834204460DD095B951462846FFF76A
:1038800081FA03465BF8242000920321094A384656
:103890000CF09AFF0AF10104B8E7A2461C46E1E7E2
:1038A00059F82A30EEE700BF7C5A01009840010029
:1038B000A75A0100915A01002DE9F74FDFF850B0E7
:1038C000D3F804A00546884691461E4600275BF8BB
:1038D000041B042250460FF0D8FE044658B10137AD
:1038E000052FF4D10B4A5346012128460CF06CFFFA
:1038F0006FF0070408E0009706F10803A9F102023F
:1039000041462846FFF766FF204603B0BDE8F08F2A
:1039100098400100C15A0100014B0360002070472C
:10392000AC40010008B5034A034B08210CF04CFFE2
:10393000002008BD7C5C01009A77010010B50446A8
:1039400008F0A2FE084A0346082120460CF03CFF7E
:10395000064A204608210CF037FF054821460AF0A8
:103960002DFF002010BD00BF0E5D01002D5D010088
:103970007539000070B58EB004460D46D0F89C60D5
:103980000FF0FCF902460FF053FF254B1958254B59
:10399000002A18BF1346CDE90043234A234B28468B
:1039A0008C4218BF1346224A08210CF00DFFD4E9BF
:1039B0000A23CDE9022394F90E300093237B1D4A9C
:1039C000284608210CF000FF06A92022204609F015
:1039D00089FF626E00920346174A082128460CF0C0
:1039E000F3FE05A920460FF0D9F9034630B1134A7A
:1039F000082128460CF0E8FE0EB070BD059A64233D
:103A0000B11ACDE900214B430D4AB3FBF6F308216F
:103A1000CDE90263284633460CF0D6FEECE700BF42
:103A200008000000375D010067580100B96D010012
:103A30003A5D0100465D0100725D0100895D010093
:103A4000B65D0100F0B5002593B0044629460AAFE3
:103A50001C220BA80FF0DCFE144E1A22202138463F
:103A60000FF0D6FE214612480AF0A8FE09AA4FF42C
:103A7000006130460FF086F909996422C1F50060B3
:103A800042434FF40063D20ACDE90403CDE9023189
:103A900006922046CDE90057064AA6F140030821C8
:103AA0000CF092FE284613B0F0BD00BF404C002041
:103AB000A93B0000ED5D010010B504460EF0D8FFF3
:103AC000034A0346082120460CF07EFE002010BD6C
:103AD000365E01002DE9F34117460023044601AA92
:103AE000B86801930A2101F079FA019DC6B255B177
:103AF0002B46154A012120460CF066FE019D284602
:103B000002B0BDE8F081042E0AD9104A33460121E3
:103B100020460CF059FE20460CF073FE0125EEE71E
:103B20007868FFF75BF9B0F1000805DA7B68084AAE
:103B3000012120460CF048FE002133460FFA88F29E
:103B400008460CF0A5FBDAE74C5E0100735E01004D
:103B50008A5E010073B5134600220192044601AA51
:103B600058680A2101F03AFA019D95B920EAE074FB
:103B70004FF40046294640F2E7304FF47A720023B2
:103B8000C4FB0601FCF70CFB0AF09EFA284602B0C3
:103B900070BD2B46034A012120460CF015FE019D05
:103BA000F4E700BFA95E0100F0B50446D0F89C60C0
:103BB00089B00D4607A90FF0F1F8034630B1104A5D
:103BC000082128460CF000FE09B0F0BD20460FF099
:103BD000D5F80C4F079A002818BF0746B11A64237E
:103BE000CDE902214B43CDE90076B3FBF6F3064A5B
:103BF000CDE904630821234628460CF0E5FDE3E700
:103C0000895D0100375D0100C95E01002DE9F043C7
:103C100087B00546684609F051FC009E184A194FC6
:103C2000DFF86480DFF86490142303FB006608214A
:103C300028460CF0C9FD009CB44203D3002007B015
:103C4000BDE8F08323680BB11A7832B923463A46AF
:103C5000142101A80BF0A2F801AB42460821284626
:103C60000CF0B2FD20460FF003F8094B094A00287A
:103C700008BF4B46082128460CF0A6FD1434DBE7AC
:103C8000146001001E600100236001000B60010050
:103C900005600100656601008B1E022B2DE9F041D5
:103CA00007468846144637D86068102200210BF07A
:103CB00017F9B8F1020F064607D1264A202308213A
:103CC00038460CF081FD336816E00A220021A06816
:103CD0000BF006F9C5B21F4A2B46082138460CF0F6
:103CE00073FDB8F1040F1AD0102D0DD0202DEAD09D
:103CF000082D0CD13378DBB2174A082138460CF076
:103D000063FD0020BDE8F08133889BB2F4E7134ADD
:103D1000082138460CF058FD6FF01500F2E7E06816
:103D2000102200210BF0DCF80D4A0346044608215E
:103D300038460CF049FD102D06D0202D07D0082D57
:103D4000E5D1E4B23470DCE7A4B23480D9E7346062
:103D5000D7E700BF5C60010087600100716001006F
:103D6000986001002DE9F04F584BDFF864A19146AF
:103D70004FF0FF35012285B0074688461A6020269D
:103D80002C46494652464046FDF7D4FF411C07D118
:103D90006A1C52D14F4A012138460CF015FD1DE036
:103DA000732820D0772833D0612817D1DFF828B1C5
:103DB0001022DBF8000000210BF092F805460028E5
:103DC000DFD10FF035FD454B1B58162BD9D1DBF851
:103DD0000030434A012138460CF0F6FC6FF0150024
:103DE00005B0BDE8F08FDFF8F0B00022DBF800008E
:103DF00011460BF075F804460028C2D10FF018FDEB
:103E0000364B1B58162BBCD1DBF80030354AE1E7A6
:103E1000DFF8C4B00022DBF8000011460BF060F8B8
:103E200006460028ADD10FF003FD2C4B1B58162B76
:103E3000A7D1DBF800302C4ACCE7631C01D12B4A18
:103E4000A9E75FFA86F8C6F3C406002C3CD06B469F
:103E500029461A46A6EB050C0CE0B8F1100F1DD050
:103E6000B8F1200F20D0B8F1080F2AD108781870C7
:103E700031443344A64203D80CEB01001028ECD99E
:103E8000102CA14628BF4FF0100929464B46384652
:103E900000F0E4FF1035A4EB0904D6E7088880B2EF
:103EA0001870000A5870E3E7086818704FEA102E7F
:103EB00083F801E04FEA104E000E83F802E0D8705C
:103EC000D6E70B4A082167E7204689E74C01002026
:103ED000E6600100ED6001003C1400200C000000D1
:103EE000AC600100BF600100D26001000A61010006
:103EF0007160010070B5104E044633780D4681B1F3
:103F00002BB1BDE870400D4A01210CF05DBC0123CE
:103F100033700B4A082120460CF056FC0123337005
:103F200004E083F001033370002BF2D129462046D0
:103F3000BDE870400CF082BCD62300202461010053
:103F40005F61010070B504463C480378182B02D12C
:103F50000B78112B31D0013A0B468D18AB4225D18D
:103F60008B5C0A780370A2F13003092B344C04D91E
:103F700022F02003413B052B04D823683149CA5461
:103F8000013323602368022B34D110222D480021F5
:103F90000AF0A6FF2C4A136803F8010B13602B4AA2
:103FA0001368013313600023236023E013F8016BCF
:103FB000182ED3D11E78112ED0D1244D244A2B682F
:103FC000082120460CF000FC20460021FFF792FF5C
:103FD000204B187870B9204A2B681168042B0ADC32
:103FE00008B111602B6013F003010BD11268136844
:103FF0001BBA136070BD086800BA41F8040B043B9B
:104000000120EBE75B4203F0030358BF594202294A
:1040100004D1126813885BBA9BB2EAE70329E9D19D
:10402000106802681104C2F3074301F47F010B43D7
:1040300002F47F4213430360DCE700BFD723002074
:1040400064140020D923002070140020681400207C
:1040500089610100D82300206C1400202DE9F84F5D
:104060000C462B49DFF8AC80DFF8AC90DFF8ACB041
:1040700000230B602A4988F8003006460B6015467D
:10408000012C2F4655F804AF1ED90222494650464E
:104090000FF0FBFA80B99AF80220003A18BF01220B
:1040A00092442049022250460FF0EFFA30B9012322
:1040B00088F80030013CE3E70022F1E7494650462A
:1040C000FCF7D8F9A8B904370022114678680AF03D
:1040D00091FE154B00221146186078680AF08AFE9E
:1040E000124B134918603046FFF704FF0020BDE86B
:1040F000F88F9AF800202D2AE6D19AF80120002A9C
:10410000E2D053465A46082130460CF05DFBD1E719
:1041100064140020D8230020A3610100A9610100DC
:1041200068140020A6610100701400206C140020A7
:10413000453F000038B51C460B4B4568187870B1F8
:10414000002009F061F92060002009F0ADF9002895
:10415000FAD12B68296C01209847002038BD09F05E
:104160007FF92060F5E700BFDB23002008B531B1FF
:10417000044B406801221A7008300FF0DCF8002070
:1041800008BD00BFDB23002007B5064A06481268B9
:10419000042300930021012300F01EFD002003B042
:1041A0005DF804FBF8410100183C010037B5446894
:1041B0000A49226004F108052364002228460FF012
:1041C000AEF84FF4A472E46300232846CDE900233F
:1041D0000AF0E6FC002003B030BD00BF330501004B
:1041E00010B581680446083101F09CF8A168034AC3
:1041F00020460831BDE8104001F03AB834630100B0
:1042000038B58368D3F86832DB0704461DD4C0692B
:104210000CF0DEFF606803685B689847054620B9CC
:10422000E0680DF03DF9A3681D71A3685B6B13B1E5
:10423000294620469847A3680FF0FAFA0022C3F8EF
:104240001023034B185801F009FD6FF00F05ECE740
:104250000800000001490CF0C5B900BFA04C0100E6
:104260002DE9F04FA7B004465422002111A80FF009
:10427000CFFA0023CDE90533A368204646330293E5
:104280000CF0BFFD20460CF01DFD10B96069FFF772
:10429000E1FFA0681422002108300FF0B9FA20468F
:1042A0000CF0B3FCA168E068B1F84020463100266C
:1042B0000DF002F920460DF081F94FF0FF37B246BC
:1042C00003960DF14408B3463546B146DDE90532A3
:1042D000012A6DD0132B6ED85FBBBBF1000F0AD043
:1042E00020460DF08CF9A2681423463211A90DEB7B
:1042F00003000CF009FBB9F1000F0CD099F8113054
:10430000FE2B08D1059B26AA02EB830252F8542CFF
:104310000AB101330593A068059D4369002B40F065
:10432000B680CEB1C3689E422DD00D9600F108052F
:1043300024E0029A0223414606A80CF0E5FA069909
:10434000D8F804200292034631B101290AD148B1BC
:104350006C4A20460CF0D2FD6FF00705284627B0C6
:10436000BDE8F08F059B002B34D0D8F8000000F09A
:10437000F9FF98B166B1A5680D9608350CAE0FCE61
:104380000FC533682B602046FFF72AFF0125E5E7BC
:104390005D4A012120460CF0B1FDDDE7059BCBB164
:1043A000D8F800202946204601F08AF8022809D1D1
:1043B000059B132B91D9069B022B8ED1534B544A4C
:1043C0000121C6E7032805D0059B013305934FF073
:1043D000010B7BE7039B33B9D8F8001007AA4846C6
:1043E0000CF089FB054608F10408013F9DB3EB681A
:1043F000BBF1000F08D0F3B120460CF002FD2046BF
:104400000CF078FC434AC4E7ABB1A368DDF814A014
:10441000AE4603F1080CBEE80F00ACE80F00DEF872
:104420000030CCF80030AB682BB96B7CFE2B04BF9E
:104430002F7C07F1FF37D5F804C0BCF1000F08D07E
:10444000AE46BEE80F000CAE0FC6DEF8003033609B
:104450006646A94603E0059B53B101230393069BDF
:1044600017B9022B7FF432AF059B013305932DE77B
:10447000A368DB6913B1DB68002BEED1264B0093F8
:10448000264A119B012120460CF038FDE5E7037E0A
:10449000A5EB0A05B3B1417E4FF6FF72FF2918BFA5
:1044A0000A469D4202D313449D420BD983681C4A9D
:1044B000012120460CF022FD2046FFF791FE6FF00F
:1044C00015054BE701210CF0A6F8A06800F53F7038
:1044D0000CF00EF9A36811AA294602EB8A025B6967
:1044E000204698470546A0684FF0FF324FF0FF3353
:1044F00000F53F700CF083F8A06800210CF08BF8F9
:104500002CE700BF4263010056630100B76301005E
:104510007759010074630100A36301007D66010007
:10452000DB63010010B5836802221A7183689B6BFC
:104530000446BBB90CF011F88368D3F86832DB0489
:104540000BD50321084B094A0CF0D8FCA0686FF486
:10455000805100F51A700CF01AF82046BDE81040A2
:1045600000F068BE10BD00BFF663010025600100C9
:104570002DE9F04F04468068B1B0012100F51A70B2
:104580000BF0F6FFA3681B79022B20D100230993BF
:10459000A36860689E6B03681D6909AB0EB31022A7
:1045A0001BA9A847099B93B1A06801210CF033F81F
:1045B000099A1BA92046B047A06800210CF02BF8EF
:1045C000A3689B6B002BE3D12046FFF7ABFFA068ED
:1045D0006FF0010100F51A7031B0BDE8F04F0BF03B
:1045E000D6BF01220DF12301A847099B002BEED075
:1045F0009DF923209DF82310A368002AC8DB5A796F
:10460000032A00F27582DFE812F0040062027902E8
:1046100073020D297CD00A2958D0B3F868226FF3B1
:10462000CA02A3F868220929A06800F086803DD854
:104630000029ADD0082900F0F8810346D3F8643290
:104640009E07A5D54B1E162BA2D801A252F823F027
:104650009D4B0000654A00006D4A00005D4A000065
:10466000914B00008B4A00009145000091450000ED
:104670009145000091450000934A00009B4A0000CC
:1046800091450000A34A000091450000AD4A00009A
:1046900091450000914500009145000091450000C2
:1046A000B14A000091450000C74A00001B2941D0D3
:1046B0007F2900F0C681A1F120025E2A0346BDD801
:1046C00001210BF0B3FF9DF82310B7E0D3F8682267
:1046D000C2F3C7022AB1D3F86822C2F3C7020A2A7A
:1046E000ACD1B3F8682261F3CA02A3F86822A568C6
:1046F000B5F84010C1B928460BF098FFE0680CF0FF
:10470000A1FE6069FFF7A6FD2046FFF70BFF3FE71C
:10471000D3F86822C2F3C702002AE2D0D3F8682295
:10472000C2F3C7020D2ADBE72046FFF799FDC5F863
:104730001403E9E7012343712AE7D0F864329D07A7
:104740007FF526AF01210BF071FFA068B0F8403073
:10475000FF2B3FF41DAFB0F8422000F1460100F5F9
:10476000A3700FF02DF8A368B3F84220134400257E
:1047700083F84651A2681BA9142302F5A3720BA863
:104780000CF0C2F80B9914293FF602AF30AB03EBE3
:10479000810343F8545CA368B3F84220134493F8B0
:1047A0004530202B02D0093B042B4BD800294CD19B
:1047B00000250A950A9B30AA02EB8303002653F8D2
:1047C00054AC50460BF008FFB3468146B04637461E
:1047D00016AA3946284600F0C7FB0346002840D1F8
:1047E000012EA76865D10A9B30AA02EB830353F818
:1047F000540C0BF0F1FE07F108020646414628462C
:1048000000F0B2FB056828460BF0E6FE864205D0B4
:10481000821B92B2A91920460CF0B8FBA068B0F830
:104820004230034493F84630202B31D0093B042B0F
:104830002ED9D0F86432D9072FD42021204600F099
:10484000C1FCA5E60129B3D9013900200CAB0093C6
:1048500001900AAB1BAA0CF079F905460028A9D1F2
:1048600096E61B6803934A46514618460EF00DFF24
:1048700060B9039B1846FBF70FFE584538BF5846F2
:104880001FFA80FB002E08BFB846013601379FE7AC
:10489000012120460CF051FA7AE600210BF019FFB5
:1048A0002021204600F08EFCA06801210BF011FFB2
:1048B0006EE604907FF66CAE0A9A30AB03EB820290
:1048C000C14652F8543C039318460BF085FE049BF6
:1048D00005903B860496A26849460832284600F0B7
:1048E00043FB039BD0F800A009F101094BB1BAF1D9
:1048F000000F06D0059A194650460EF0C6FE002855
:10490000E9D1A168BAF1000F4ED1A1F830A0049B03
:10491000013B0493DFD16069FFF79CFC204600F067
:1049200089FC0A9B30AA02EB830308F1010A53F8C1
:10493000540C0BF051FE414611AA8146284600F066
:1049400013FB0746A0683968FF2200F5A3700EF03C
:10495000AEFE3B6803934FF6FF77B84616AA514662
:1049600028460AF1010B00F0FFFA002851D0A16897
:10497000036801F24511002211F801EF985C7045BF
:1049800003D110B101324245F6D1B9F1000F01D087
:104990004A4507DBBA4206F1FF36A8BF3A46012E68
:1049A00097B236D0DA46D9E7884806910BF014FE64
:1049B000069907914A8D00EB0B07BFB2121A5046B9
:1049C00092FBF7F292B206920BF006FE0799069A56
:1049D0003F1A088E00F1010CA1F830C0B0FBF2F1D3
:1049E00002FB110080B2BFB260B9784B784ACDF8B3
:1049F00000A0062120460CF081FA394620460CF032
:104A000060F984E7734A5346062120460CF076FA93
:104A1000F3E7002F3FF4BCAD0399A7EB090292B274
:104A2000494420460CF0B2FAB2E5D0F864329A0755
:104A30007FF5AEAD01210BF0F9FD20460CF0C7FA71
:104A4000A6E5D0F864329B077FF5A2AD01210BF0FB
:104A5000EDFDA368D3F864321F07EED420460CF0B6
:104A600097FA95E520460CF0D5F991E520460CF033
:104A7000C8F920460CF026F910B96069FFF7EAFB87
:104A8000A06801210BF0D2FD3EE620460CF0CBF9E8
:104A90007EE520460CF0D2F97AE5204600F0CAFB0C
:104AA00076E5002120460BF0CBFD71E50121F9E709
:104AB00020460CF09FF920460BF04FFDA068012125
:104AC0000BF0B4FD64E5204600F0F4FAF6E75B294C
:104AD00002D102225A715BE5D3F864329D0706D5F4
:104AE000622907D14FF0FF3120460CF045F9A36849
:104AF0000022EFE76629FAD10121F5E700225A7179
:104B0000A268D2F8643298077FF542ADA1F1310373
:104B10001B2B3FF63DAD01A151F823F0994B00004E
:104B2000A54B0000B94B00008D4B000091450000E3
:104B3000914500009145000091450000914500001D
:104B4000914500009145000091450000914500000D
:104B5000914500009145000091450000AD4A0000DC
:104B6000A34A00008B4A0000654A000091450000FE
:104B7000914B0000914500009D4B000091450000C5
:104B80009145000091450000A94B0000032353719B
:104B900020460CF036F9FBE40323537120460CF059
:104BA00029F9F5E403235371A068D0F8641201F0E9
:104BB000010181F0010179E603235371A368D3F861
:104BC00064329B077FF5E4AC48E700BF66580100FC
:104BD0003A640100256001002DE9F0470446806831
:104BE0008846D0F8101388B015461F46002968D1B2
:104BF00092464FF446720EF00BFEA36822681A60CC
:104C0000E0680CF0C1FCA06800F53F700EF023FADC
:104C10004FF42B794FF41B76A06830440EF0EFFC74
:104C2000A068002283190121484410360EF0BDFC13
:104C3000B6F52B7F09F11409EED1A36900221A60A1
:104C4000A068022100F51A700BF092FCA3685022B4
:104C50005A85A36818221A85A66830680BF0BCFC38
:104C600086F82C00A368184A25F0340565F3070A76
:104C7000C3F864A26068036841461D682346A847DC
:104C80000546D0B9A36801221A71D4E90A010022AD
:104C90000023CDE906230E230393109B0495CDE951
:104CA00001730094094B4FF4006208F0DBFEA36827
:104CB000C3F81003616A08F005FE284608B0BDE895
:104CC000F0876FF07705F8E703060100394D000023
:104CD00010B583681A79012A044627D1D3F86822CF
:104CE000510408D5D3F86422520704D40146DA6B84
:104CF000C0690CF056FAA0684FF0FF3200F53F7023
:104D00004FF0FF330BF07BFC20680BF065FC18B113
:104D1000084960690BF066FC2046FFF703FCA068B9
:104D200000F53F700BF0E4FC002010BD6FF0850033
:104D3000FBE700BF9F4C01002DE9F041044680686D
:104D4000154600F51A70002937D04FF480410BF05A
:104D50000FFCA368DD636068036800219B689847C7
:104D600000284BD12046FFF7B3FF002846D1244E40
:104D7000244FDFF89480A06800F52B704FF0FF32CD
:104D80004FF0FF33032109F045FF0546A0684FF0BF
:104D9000FF324FF0FF3300F53F709DB10BF02FFC59
:104DA00020462B46194A01210CF0A8F8A068BDE85E
:104DB000F04100F53F700BF09BBC6FF480410BF0AD
:104DC000E6FBC6E70BF01BFC3246022120460BF047
:104DD000EDFB3A46294620460BF0E8FB20464246CA
:104DE00001210BF0E3FB606803685B6903B198473E
:104DF000A06800F53F700BF07BFCBCE7BDE8F081DC
:104E00000142000071450000F50601004064010008
:104E100010B50D4A044608210BF0D6FC20460B4A7B
:104E200008210BF0D1FC2046094A08210BF0CCFCEC
:104E30002046084A08210BF0C7FC2046064A0021FC
:104E400000F016FA002010BD5764010095640100BF
:104E5000F464010048650100E2650100F8B51E46F2
:104E600017460B462F4A082104460BF0ADFC6EB3E3
:104E70003B782D4A082120460BF0A6FC01256A0745
:104E800004D12A4A082120460BF09EFCAE4223D9C9
:104E90007B5D254A082120460BF096FC0135102D3C
:104EA000EDD1234A082120460BF08EFCD6B91F4ACB
:104EB000082120460BF088FC0125AE422B4613D872
:104EC0001A4A082120460BF07FFC18E0194A0821F5
:104ED00020460BF079FC0125164A082120460BF0EC
:104EE00073FCDBE700252B46FB5CA3F120025F2A65
:104EF00028BF2E23104A082120460BF065FC0135FF
:104F0000102D07D06B07D8D1084A082120460BF096
:104F10005BFCD2E72046094ABDE8F84008210BF0C7
:104F200053BC00BFF86501005F58010067580100DD
:104F300069580100655801006B580100FF650100C8
:104F400010B5044613460A460146064801F08CF99E
:104F500023691B7923B12046BDE810400BF074BCD7
:104F600010BD00BF6108010038B50B46154648B9B1
:104F70001449154A521AB3EB920F05D251F8235037
:104F8000284638BD84680CB90025F9E70F4A9442D9
:104F90000AD30F4A944207D21846226829469047FE
:104FA0002B68002BECD1EFE70A4A944202D30A4A5D
:104FB000944205D3246814225343E518E358F0E7DC
:104FC0000133F8E7483C0100AC3C0100C03C010063
:104FD000CC3C0100AC3C0100C03C0100F7B51646DA
:104FE000027800232D2A0446019305D16FF01503A2
:104FF0003360002003B0F0BD0EF01AFC0B4F0546E5
:10500000C3510A46204601A909F06AFFEB59222B39
:1050100002D16FF02103EBE7002BE7D1019BA34204
:10502000E4D01B78002BE5D0E0E700BF0C000000C7
:1050300001490BF025BE00BFA04C01002DE9F0474F
:105040008568DFF86890044605F14600FBF724FA0E
:10505000002395F82C7086B29846A268558DED1BFA
:10506000B54209DB002E1FDD463360691049BDE8FB
:10507000F0471A440BF004BE1D442A44463392F80C
:1050800046A082F84680A26860691A4449460BF03F
:10509000F7FDA3682B4483F846A0A3685B8DDB1B58
:1050A000F61A00272B46D8E7BDE8F08777590100AC
:1050B000256001002DE9F04183680646B3F8400001
:1050C000002841D0B3F8421000293DD0453103F10A
:1050D00046020B441D46954206D3294611F8014964
:1050E000202C28D0954228D29CB2AFB2E21B92B2BB
:1050F00005F10108511C2944821A40460EF06EFB4E
:10510000B268B2F84030391B13FA81F3A2F840308C
:10511000B268B2F840301A44002382F84630304674
:1051200009B20BF00AFE43463046084ABDE8F0419A
:1051300008210BF0E3BE0D46CDE7294611F80149E1
:10514000202CD1D00D46CDE7BDE8F08125600100CF
:105150002DE9F04183681746B3F842200D46D3F895
:105160006412463213444A07044621D51846FBF719
:1051700093F9DFF848800646A6B9A368B3F8402043
:10518000A3F84220A0680BF088FD20B107B115B14B
:105190006069FFF74DFF6942204609B2BDE8F04162
:1051A0000BF0CBBD606941460BF06AFD013EE3E7C1
:1051B000034A08210BF0A2FEDFE700BFB96D010032
:1051C0002560010013B583688DF80710D3F86422B9
:1051D0000446D00725D5B3F84210B3F840208A42E0
:1051E0001FD0481CA3F842000B449DF8072083F809
:1051F0004620A368D3F86412890710D5D3F8643227
:1052000060690B4913F0040F18BF2A220BF038FD18
:1052100020460BF057FD10B16069FFF709FF02B09F
:1052200010BD01220DF1070120460BF075FEF6E7D7
:105230006B58010010B58368094A1B6804460221B7
:105240000BF05CFEA368D3F864329B0707D52046B9
:10525000FFF7F4FE2046BDE810400BF05ABD10BD2C
:105260002560010001490CF00FB800BFA04C0100FF
:105270002DE9F04F0E46002189B0044617460D4631
:1052800003AA304601F10108FFF76EFEB0B995B1EF
:1052900027B13A46082120460BF030FE1E4FDFF8BA
:1052A0007C90DFF87CA0002103AA304601F10108C0
:1052B000FFF75AFE60B909B0BDE8F08F006810B181
:1052C000FBF7EAF880B2854238BF05464146D7E78A
:1052D00003688BB11A787AB1D0F804B04A46CDE9A8
:1052E000005308213B4620460BF008FEBBF1000F9F
:1052F00004D16069FFF7B6FF4146D5E75246204624
:105300003B4608210BF0FAFD6A1D92B25946204631
:105310000BF0C7FFF0E700BF306601001B6601001D
:105320005A580100F7B50F6805460E46A7B1384632
:10533000FBF7B2F884B2094B00932846084A3B4673
:1053400008210BF0DBFDE21C716892B2284603B025
:10535000BDE8F0400BF0A5BF3C46ECE72C66010031
:105360003B64010010B507490446FBF783F838B1E8
:1053700005492046FBF77EF8B0FA80F0400910BDE1
:105380000120FCE7226601002566010008B583695B
:10539000034A1B6808210BF017FA002008BD00BF64
:1053A000336601002DE9F3410F4A104C104EDFF82F
:1053B0004480082105460BF007FA0023B44203F1AC
:1053C000010703D3002002B0BDE8F081626A0192B8
:1053D000A268126800929BB24246082128460BF050
:1053E000F3F930343B46E9E743660100183C01001D
:1053F000483C01005B66010008B502490BF0F1F979
:10540000002008BDA14C01007FB50F4E04460025C9
:10541000A268E0680DF10E0302F5A37201210CF001
:1054200014F8BDF80E00A36850B103F5A373009300
:1054300032462B46082120460BF0C6F90135E7E736
:1054400083F8460104B070BD6C66010010B50446D7
:105450000BF0ECF9034A0346082120460BF0B4F99F
:10546000002010BD9F610100022907B50DD15368CE
:1054700001930E4B009313680D4A01210BF0A4F920
:105480006FF0150003B05DF804FB8368094AD3F898
:10549000643213F0020F4FF00801074B08BF1346A8
:1054A000064A0BF091F90020ECE700BF836601008B
:1054B0007A660100766601005A560100986601007E
:1054C0002DE9F04F074689B01546894621B11046AF
:1054D0000CF060F800285BD1032455E05C463CE00A
:1054E00029460AF5A3700EF0FEF80646002854D0AF
:1054F000FAF7D2FF82B2601C0132314630440EF01E
:105500006DF92246594630460EF05AF94FF0200305
:105510003355BAF8443001331C44AAF8444008F12A
:105520000108002401994B1C03AA48460193FFF788
:105530001BFD0646E8B13168002228460CF0C3F98D
:105540000028EFD1D6F800B0D7F808A0BBF1000FC3
:10555000C4D05846FAF7A0FF84B2BAF844302344C6
:10556000FF2BBDDD0E4A2B46032138460BF0C6FC4F
:105570000124B8F1000F07D0B8682A4600F14401B1
:1055800000F5A3700BF090FA204609B0BDE8F08F4B
:105590004FF0000841460224C5E70224E9E700BFB6
:1055A000906901002DE9F843054600AF0C4600293B
:1055B00048D0DFF8A090D9F80030580742D06E46A6
:1055C0008AB0D1E90001A3686A46DFF88CC04FF0C9
:1055D0000508C2E905C0C2E9071342F8108F00238D
:1055E0004FF421514846FDF7C5FCD9F80030590762
:1055F000B54627D08AB0D4E9030163696A46DFF86B
:105600005CC0C2E90713C2E905C042F8108F00234D
:105610004FF421514846FDF7ADFCD9F800305A0748
:10562000B5460FD0E3690E4A012148460AF0B3FEA1
:10563000D9F800305B0705D0A3690A4A0121484622
:105640000AF0A9FE2146284607F058FFBD46BDE8EE
:10565000F88300BFF0030020E2690100116A010035
:10566000406A01004F6A010030BFFFF7FDBF00BF75
:105670002DE9F0410B4EDFF8308006EB0807CC1B1C
:1056800005463246094920460EF09AF8A0194246CE
:105690000021083C0EF0BCF8C5F8A84007F108004E
:1056A000BDE8F0810000000008000000CC3C0100D3
:1056B000044B99685869884203D003494FF08052DF
:1056C0000A6070477823002004ED00E0F8B5374CFD
:1056D00023685B0706460D4603D0354920460BF08C
:1056E000A9FF344B9B6ADF0451D52368580703D0C8
:1056F00031492E480BF09EFF17202E4B9B6A19054F
:1057000007D523685A0703D02C4928480BF092FF8D
:105710001820284FBB6A9B0519D52368580703D06A
:10572000274922480BF086FFBB6BBA6A11040DD5DE
:105730002268520704D0234A1C4801210AF02BFE9C
:1057400026B11C4A936A23F4004393621920194B33
:105750009B6A5B0507D523685F0703D01A49134886
:105760000BF068FF1A20134B9A6AD60511D52368EF
:10577000590703D015490D480BF05CFF1B200D4A5B
:10578000936A43F47F43936200232B70F8BD162085
:10579000B3E79B6A9A04F2D523685B0703D00C49F0
:1057A00002480BF047FF1C20E9E700BFF003002090
:1057B0007D6A010000ED00E0936A0100A46A010027
:1057C000B76A0100D06A0100E56A0100006B0100C0
:1057D000186B010010B52D4C23685A0703D02C49D3
:1057E00020460BF027FF2B4B9B6A9B014BD5236870
:1057F000580703D0284925480BF01CFF1E20254BD5
:105800009B6AD90107D523685A0703D023491F484B
:105810000BF010FF1F201F4B9B6A1B0307D523684B
:10582000580703D01E4919480BF004FF2120194BDB
:105830009B6A590307D523685A0703D019491348AF
:105840000BF0F8FE2220134B9B6A9B0307D52368BD
:10585000590703D014490D480BF0ECFE23200D4BE3
:105860009B6ADA0307D523685B0703D00F49074813
:105870000BF0E0FE2420074A936A6FEA03436FEAC5
:105880001343936210BD1D20B9E700BFF003002051
:10589000476B010000ED00E05F6B0100726B0100DF
:1058A0008C6B0100AA6B0100CF6B0100E96B01005A
:1058B0002DE9F047454D2B68894659078046174624
:1058C00003D0434928460BF0B5FE424B9B6ADA06EB
:1058D00039D52B685B0703D03F493C480BF0AAFE43
:1058E00011243C4B9B6A1E0707D52B68580703D031
:1058F0003A4936480BF09EFE1224DFF8D8A0DAF8B9
:105900002830990721D52B685A0703D034492F48EE
:105910000BF090FEDAF83460DAF828301B0651D527
:105920002B685C0705D02F4A2848334601210AF02E
:1059300032FDB9F1000F04D0264A936A23F08003A8
:105940009362132403E01024CBE76FF01506214B7C
:105950009B6AD80707D52B68590703D022491B48F3
:105960000BF068FE14241B4B9B6A9A0607D52B6824
:105970005B0703D01D4915480BF05CFE1524154B41
:105980009A6AD50602D49A6A90070AD55B68190507
:1059900007D54146304600F05DFA10B180F3098822
:1059A00002240C4B9A6A920642BF5A6A22F40052B1
:1059B0005A629A6A42F0FF029A6200233B702046C4
:1059C000BDE8F0876FF01506BBE700BFF0030020CD
:1059D000146C010000ED00E02A6C0100A46A0100D3
:1059E0005D6C0100756C01008B6C0100186B01008F
:1059F0002DE9F041744B8AB0D3F8048000AF04461F
:105A0000C8F30806002585F31188BFF36F8F02F0F5
:105A10007F43B3F17F4F0AD102F00C03082B15D15D
:105A20006A480368590702D069490BF003FE002554
:105A30002C460023FB71F31E092B00F29F80DFE848
:105A400003F00A91948D9D9D9D9D9D9712074CBFDB
:105A50000C460125EDE75D4E33685B0703D05D49D9
:105A600030460BF0E7FD0023FB71574BDA6A9007D5
:105A700008D53368590703D0574954480BF0DAFD6D
:105A800000233CE0DA6A002A04DA33685A07F7D0C8
:105A90005249F2E7DB6A5B00F2D53368580703D05E
:105AA0004F494A480BF0C6FD474BA1695A6942F479
:105AB00080725A61BFF34F8FBFF36F8F5A6931F80D
:105AC000021C22F480725A61BFF34F8FBFF36F8FB5
:105AD0004DF60272914208D09A6AD2B28AB3FA1D88
